S00F000056335F463431322E7372656350
S3150800800000000420599000080D9800080F980008F1
S315080080101198000813980008159800080000000039
S31508008020000000000000000000000000179800088B
S3150800803019980008000000001B9800081D98000801
S31508008040A9900008A9900008A9900008D1980008EE
S31508008050A9900008A9900008A9900008A99000080E
S3150800806025980008A9900008A9900008A99000087A
S31508008070A9900008A9900008A9900008A9900008EE
S31508008080A9900008A9900008A9900008A9900008DE
S3150800809081980008A9900008A99000082F98000860
S315080080A0A9900008A9900008A9900008A9900008BE
S315080080B0C1980008A9900008A9900008A99000088E
S315080080C0A9900008A9900008A9900008A99000089E
S315080080D0A9900008A990000891980008A99000089E
S315080080E0A9900008A9900008A9900008A99000087E
S315080080F0A9900008A9900008A9900008A99000086E
S3150800810000000000A9900008A9900008A99000089E
S315080081100000000000000000A9900008A9900008CF
S31508008120A1980008A9900008599800086D980008B9
S31508008130A9900008A9900008A9900008A99000082D
S31508008140A9900008A9900008A9900008A99000081D
S31508008150A9900008A9900008A9900008A99000080D
S31508008160A9900008A990000800000000000000007F
S3150800817000000000000000000000000000000000F1
S31508008180A9900008A990000800000000000000005F
S31508008190A9900008A990000800000000000000004F
S315080081A000000000000000000000000000000000C1
S315080081B0A99000080000000000000000A99000082F
S30D080081C0A9900008EE11AA556A
S315080081D010B5054C237833B9044B13B10448AFF3F3
S315080081E000800123237010BD380D00200000000018
S315080081F038C3020808B5034B1BB103490348AFF35C
S31508008200008008BD000000003C0D002038C30208AD
S3150800821010F8012B11F8013B012A28BF9A42F7D022
S31508008220D01A7047034613F8012B002AFBD1181AF7
S315080082300138704700000000000000000000000040
S3150800824001F0FF01102A2BDB10F0070F08D010F8F9
S31508008250013B013A8B422DD010F0070F42B3F6D1FD
S31508008260F0B441EA012141EA014122F007047FF016
S3150800827000070023F0E80256083C85EA010586EA6D
S31508008280010685FA47F5A3FA87F586FA47F6A5FAA9
S3150800829087F68EB9EED1F0BC01F0FF0102F00702B5
S315080082A032B110F8013B013A83EA010313B1F8D160
S315080082B00020704701387047002D06BF3546033841
S315080082C0073815F0010F07D1013015F4807F02BF7A
S315080082D0013015F4C03F0130F0BC0138704700BFCB
S315080082E081F0004102E000BF83F0004330B54FEA59
S315080082F041044FEA430594EA050F08BF90EA020FC6
S315080083001FBF54EA000C55EA020C7FEA645C7FEA58
S31508008310655C00F0E2804FEA5454D4EB5555B8BF7B
S315080083206D420CDD2C4480EA020281EA030382EAEC
S31508008330000083EA010180EA020281EA0303362D7E
S3150800834088BF30BD11F0004F4FEA01314FF4801C51
S315080083504CEA113102D0404261EB410113F0004F63
S315080083604FEA03334CEA133302D0524263EB43031A
S3150800837094EA050F00F0A780A4F10104D5F1200EB8
S315080083800DDB02FA0EFC22FA05F2801841F1000113
S3150800839003FA0EF2801843FA05F359410EE0A5F1E7
S315080083A020050EF1200E012A03FA0EFC28BF4CF018
S315080083B0020C43FA05F3C01851EBE37101F00045CE
S315080083C007D54FF0000EDCF1000C7EEB00006EEBDB
S315080083D00101B1F5801F1BD3B1F5001F0CD3490865
S315080083E05FEA30004FEA3C0C04F101044FEA4452BC
S315080083F012F5800F80F09A80BCF1004F08BF5FEA43
S31508008400500C50F1000041EB045141EA050130BD22
S315080084105FEA4C0C404141EB0101013C28BFB1F534
S31508008420801FE9D291F0000F04BF01460020B1FA7F
S3150800843081F308BF2033A3F10B03B3F120020CDA52
S315080084400C3208DD02F1140CC2F10C0201FA0CF030
S3150800845021FA02F10CE002F11402D8BFC2F1200C95
S3150800846001FA02F120FA0CFCDCBF41EA0C0190404B
S31508008470E41AA2BF01EB0451294330BD6FEA040494
S315080084801F3C1CDA0C340EDC04F11404C4F120027F
S3150800849020FA04F001FA02F340EA030021FA04F391
S315080084A045EA030130BDC4F10C04C4F1200220FAE8
S315080084B002F001FA04F340EA0300294630BD21FA26
S315080084C004F0294630BD94F0000F83F4801306BFEC
S315080084D081F480110134013D4EE77FEA645C18BFE0
S315080084E07FEA655C29D094EA050F08BF90EA020F77
S315080084F005D054EA000C04BF1946104630BD91EA6F
S31508008500030F1EBF0021002030BD5FEA545C05D171
S315080085104000494128BF41F0004130BD14F58004B0
S315080085203CBF01F5801130BD01F0004545F0FE4124
S3150800853041F470014FF0000030BD7FEA645C1ABF59
S31508008540194610467FEA655C1CBF0B46024650EA90
S31508008550013406BF52EA033591EA030F41F40021BC
S3150800856030BD00BF90F0000F04BF0021704730B542
S315080085704FF4806404F132044FF000054FF0000117
S3150800858050E700BF90F0000F04BF0021704730B5D8
S315080085904FF4806404F1320410F0004548BF4042AD
S315080085A04FF000013EE700BF42004FEAE2014FEA02
S315080085B031014FEA02701FBF12F07F4393F07F4FDD
S315080085C081F06051704732F07F4208BF704793F0E0
S315080085D07F4F04BF41F40021704730B54FF46074F3
S315080085E001F0004521F000411CE700BF50EA0102F6
S315080085F008BF704730B54FF000050AE050EA01029F
S3150800860008BF704730B511F0004502D5404261EB0E
S3150800861041014FF4806404F132045FEA915C3FF44F
S31508008620D8AE4FF003025FEADC0C18BF03325FEAEC
S31508008630DC0C18BF033202EBDC02C2F1200300FA9D
S3150800864003FC20FA02F001FA03FE40EA0E0021FAC2
S3150800865002F11444BDE600BF70B54FF0FF0C4CF4B0
S31508008660E06C1CEA11541DBF1CEA135594EA0C0F62
S3150800867095EA0C0F00F0DEF82C4481EA030621EA9D
S315080086804C5123EA4C5350EA013518BF52EA0335D8
S3150800869041F4801143F4801338D0A0FB02CE4FF08A
S315080086A00005E1FB02E506F00042E0FB03E54FF0BA
S315080086B00006E1FB03569CF0000F18BF4EF0010EB2
S315080086C0A4F1FF04B6F5007F64F5407404D25FEAAE
S315080086D04E0E6D4146EB060642EAC62141EA555161
S315080086E04FEAC52040EA5E504FEACE2EB4F1FD0CA3
S315080086F088BFBCF5E06F1ED8BEF1004F08BF5FEA21
S31508008700500E50F1000041EB045170BD06F00046D2
S3150800871046EA010140EA020081EA0301B4EB5C047F
S31508008720C2BFD4EB0C0541EA045170BD41F4801177
S315080087304FF0000E013C00F3AB8014F1360FDEBF9C
S31508008740002001F0004170BDC4F10004203C35DA78
S315080087500C341BDC04F11404C4F1200500FA05F3FB
S3150800876020FA04F001FA05F240EA020001F000429C
S3150800877021F0004110EBD37021FA04F642EB060112
S315080087805EEA430E08BF20EAD37070BDC4F10C043C
S31508008790C4F1200500FA04F320FA05F001FA04F200
S315080087A040EA020001F0004110EBD37041F10001EC
S315080087B05EEA430E08BF20EAD37070BDC4F12005F7
S315080087C000FA05F24EEA020E20FA04F301FA05F25F
S315080087D043EA020321FA04F001F0004121FA04F207
S315080087E020EA020000EBD3705EEA430E08BF20EAD7
S315080087F0D37070BD94F0000F0FD101F00046400011
S3150800880041EB010111F4801F08BF013CF7D041EA92
S31508008810060195F0000F18BF704703F00046520096
S3150800882043EB030313F4801F08BF013DF7D043EA67
S315080088300603704794EA0C0F0CEA135518BF95EA1D
S315080088400C0F0CD050EA410618BF52EA4306D1D1A4
S3150800885081EA030101F000414FF0000070BD50EAC3
S31508008860410606BF1046194652EA430619D094EA4D
S315080088700C0F02D150EA013613D195EA0C0F05D137
S3150800888052EA03361CBF104619460AD181EA03018B
S3150800889001F0004141F0FE4141F470014FF0000043
S315080088A070BD41F0FE4141F4780170BD70B54FF0DE
S315080088B0FF0C4CF4E06C1CEA11541DBF1CEA13555E
S315080088C094EA0C0F95EA0C0F00F0A7F8A4EB050440
S315080088D081EA030E52EA03354FEA013100F0888037
S315080088E04FEA03334FF0805545EA131343EA126300
S315080088F04FEA022245EA111545EA10654FEA0026B5
S315080089000EF000419D4208BF964244F1FD0404F56D
S31508008910407402D25B084FEA3202B61A65EB0305C9
S315080089205B084FEA32024FF480104FF4002CB6EB86
S31508008930020E75EB030E22BFB61A754640EA0C0006
S315080089405B084FEA3202B6EB020E75EB030E22BF46
S31508008950B61A754640EA5C005B084FEA3202B6EB87
S31508008960020E75EB030E22BFB61A754640EA9C0046
S315080089705B084FEA3202B6EB020E75EB030E22BF16
S31508008980B61A754640EADC0055EA060E18D04FEAD4
S31508008990051545EA16754FEA06164FEAC30343EA74
S315080089A052734FEAC2025FEA1C1CC0D111F4801F41
S315080089B00BD141EA00014FF000004FF0004CB6E73A
S315080089C011F4801F04BF01430020B4F1FD0C88BFD9
S315080089D0BCF5E06F3FF6AFAEB5EB030C04BFB6EBE4
S315080089E0020C5FEA500C50F1000041EB045170BDD7
S315080089F00EF0004E4EEA113114EB5C04C2BFD4EB04
S31508008A000C0541EA045170BD41F480114FF0000E87
S31508008A10013C90E645EA060E8DE60CEA135594EA03
S31508008A200C0F08BF95EA0C0F3FF43BAF94EA0C0F06
S31508008A300AD150EA01347FF434AF95EA0C0F7FF47B
S31508008A4025AF104619462CE795EA0C0F06D152EACF
S31508008A5003353FF4FDAE1046194622E750EA4106B3
S31508008A6018BF52EA43067FF4C5AE50EA41047FF4C4
S31508008A700DAF52EA43057FF4EBAE12E74FF0FF3C29
S31508008A8006E000BF4FF0010C02E000BF4FF0010CFA
S31508008A904DF804CD4FEA410C7FEA6C5C4FEA430C73
S31508008AA018BF7FEA6C5C1BD001B050EA410C0CBFC2
S31508008AB052EA430C91EA030F02BF90EA020F002024
S31508008AC0704710F1000F91EA030F58BF994208BF8B
S31508008AD090422CBFD8176FEAE37040F00100704748
S31508008AE04FEA410C7FEA6C5C02D150EA013C07D19F
S31508008AF04FEA430C7FEA6C5CD6D152EA033CD3D0EA
S31508008B005DF8040B704700BF8446104662468C46E3
S31508008B101946634600E000BF01B5FFF7B7FF002816
S31508008B2048BF10F1000F01BD4DF808EDFFF7F4FF3F
S31508008B300CBF012000205DF808FB00BF4DF808EDCA
S31508008B40FFF7EAFF34BF012000205DF808FB00BFED
S31508008B504DF808EDFFF7E0FF94BF012000205DF80F
S31508008B6008FB00BF4DF808EDFFF7CEFF94BF0120C4
S31508008B7000205DF808FB00BF4DF808EDFFF7C4FFBD
S31508008B8034BF012000205DF808FB00BF4FEA410C06
S31508008B907FEA6C5C02D150EA013C0AD14FEA430CE9
S31508008BA07FEA6C5C02D152EA033C02D14FF0000026
S31508008BB070474FF0010070474FEA410212F5001264
S31508008BC015D211D56FF47873B3EB625212D94FEA06
S31508008BD0C12343F0004343EA505311F0004F23FAF0
S31508008BE002F018BF404270474FF00000704750EA45
S31508008BF0013005D111F0004008BF6FF00040704702
S31508008C004FF00000704700BF4A0011D212F500125B
S31508008C1011D20DD56FF47873B3EB62520ED44FEAC6
S31508008C20C12343F0004343EA505323FA02F0704746
S31508008C304FF00000704750EA013002D14FF0FF3084
S31508008C4070474FF0000070474FEA4102B2F1E04327
S31508008C5024BFB3F5001CDCF1FE5C0DD901F0004C15
S31508008C604FEAC0024CEA5070B2F1004F40EB830065
S31508008C7008BF20F00100704711F0804F21D113F191
S31508008C803872BCBF01F00040704741F480114FEACA
S31508008C905252C2F11802C2F1200C10FA0CF320FA53
S31508008CA002F018BF40F001004FEAC1234FEAD32370
S31508008CB003FA0CFC40EA0C0023FA02F34FEA4303DA
S31508008CC0CCE77FEA625307D150EA01331EBF4FF063
S31508008CD0FE4040F44000704701F0004040F0FE407E
S31508008CE040F40000704700BF53B94AB9002908BFCD
S31508008CF000281CBF4FF0FF314FF0FF3000F0AAB933
S31508008D00ADF1080C6DE904CE00F03CF8DDF804E09E
S31508008D10DDE9022304B0704738B500220023044673
S31508008D200D46FFF70BFF28B920462946BDE838400F
S31508008D3000F00AB8204605F1004100F005F8404267
S31508008D4061EB410138BD00BFD0B50C4B0022064689
S31508008D500F46FFF781FCFFF757FF0446FFF702FCB3
S31508008D60074B0022FFF778FC02460B463046394689
S31508008D70FFF7BAFAFFF748FF2146D0BD0000F03DDD
S31508008D800000F0412DE9F047089D04468E46002B69
S31508008D904DD18A42944669D9B2FA82F252B101FAA1
S31508008DA002F3C2F1200120FA01F10CFA02FC41EAB1
S31508008DB0030E94404FEA1C48210CBEFBF8F61FFA36
S31508008DC08CF708FB16E341EA034306FB07F19942D1
S31508008DD00AD91CEB030306F1FF3080F01F81994284
S31508008DE040F21C81023E63445B1AA4B2B3FBF8F05E
S31508008DF008FB103344EA034400FB07F7A7420AD9E5
S31508008E001CEB040400F1FF3380F00A81A74240F20C
S31508008E1007816444023840EA0640E41B00261DB177
S31508008E20D4400023C5E900433146BDE8F0878B42AC
S31508008E3009D9002D00F0EF800026C5E9000130466B
S31508008E403146BDE8F087B3FA83F6002E4AD18B4245
S31508008E5002D3824200F2F980841A61EB03030120EF
S31508008E609E46002DE0D0C5E9004EDDE702B9FFDEDB
S31508008E70B2FA82F2002A40F09280A1EB0C014FEA86
S31508008E801C471FFA8CFE0126200CB1FBF7F307FBE3
S31508008E90131140EA01410EFB03F0884208D91CEB86
S31508008EA0010103F1FF3802D2884200F2CB80434623
S31508008EB0091AA4B2B1FBF7F007FB101144EA014402
S31508008EC00EFB00FEA64508D91CEB040400F1FF3191
S31508008ED002D2A64500F2BB800846A4EB0E0440EA7F
S31508008EE003409CE7C6F12007B34022FA07FC4CEA88
S31508008EF0030C20FA07F401FA06F31C43F9404FEA7B
S31508008F001C4900FA06F3B1FBF9F8200C1FFA8CFE8F
S31508008F1009FB181140EA014108FB0EF0884202FAE3
S31508008F2006F20BD91CEB010108F1FF3A80F08880A4
S31508008F30884240F28580A8F102086144091AA4B261
S31508008F40B1FBF9F009FB101144EA014100FB0EFEE2
S31508008F508E4508D91CEB010100F1FF346CD28E4511
S31508008F606AD90238614440EA0840A0FB0294A1EBA2
S31508008F700E01A142C846A64656D353D05DB1B3EBFF
S31508008F80080261EB0E0101FA07F722FA06F3F1402F
S31508008F901F43C5E9007100263146BDE8F087C2F1D6
S31508008FA02003D8400CFA02FC21FA03F3914001434E
S31508008FB04FEA1C471FFA8CFEB3FBF7F007FB103687
S31508008FC00B0C43EA064300FB0EF69E4204FA02F433
S31508008FD008D91CEB030300F1FF382FD29E422DD986
S31508008FE0023863449B1B89B2B3FBF7F607FB1633BB
S31508008FF041EA034106FB0EF38B4208D91CEB01013B
S3150800900006F1FF3816D28B4214D9023E6144C91ABA
S3150800901046EA004638E72E46284605E70646E3E6CA
S315080090201846F8E64B45A9D2B9EB020864EB0C0ED4
S315080090300138A3E74646EAE7204694E74046D1E7E3
S31508009040D0467BE7023B614432E7304609E7644491
S31508009050023842E7704700BFDFF834D00D480E49A2
S315080090600E4A002302E0D458C4500433C4188C4274
S31508009070F9D30B4A0B4C002301E013600432A242D9
S31508009080FBD300F089FC1EF049FE00F0DDF87047BE
S315080090900000042000000020F40C002060F0020804
S315080090A0380D002030840020FEE708B502F0F8FBF2
S315080090B013F08CF808BD000030B5A5B034220021A5
S315080090C017A81EF06DFE0024129413941494159498
S315080090D016943C22214603A81EF062FE02F036FED4
S315080090E00194234B1A6C42F080521A641B6C03F0ED
S315080090F080530193019B02941E4B1A6842F4404226
S315080091001A601B6803F440430293029B0D231793CE
S315080091104FF480331893012319931C931A9302254D
S315080091201D954FF480031E9304231F9364232093F5
S3150800913021952295239517A803F0BAF80F231293C1
S31508009140139514944FF4805315931694032112A87B
S3150800915002F07CFE082303934FF480730A9303A856
S3150800916002F046FF02F008FE034B186025B030BD3A
S315080091700038024000700040540D002008B5084A27
S31508009180536F43F080735367064A074B9A6000F0A3
S315080091900DFC01F0E7F9FFF78FFF72B608BD00BFB7
S315080091A0003802400080000800ED00E010B50B4CC6
S315080091B041F270720A49204605F0BAF8204605F0D1
S315080091C0F1F801200BF0C4F907F0A4FE07F0D8FE69
S315080091D0014601200BF054FB10BD00BF580D0020BE
S315080091E0680D002008B500F033FE00F007FE00F019
S315080091F061FC00F075FD00F025FF00F093FF00F01C
S31508009200B3FF01F031F901F079F801F0ABF80BF092
S3150800921053FB0BF063FC17F071FE16F0F7FBFFF734
S31508009220C5FF12F087FE07F0B7FDFFF73EFF17F000
S315080092305DFE1EF0EBFC08F0D7FA05F0EDF962B614
S315080092401CF0D2FB08BD704708B5FFF797FFFFF77C
S31508009250C9FF00F003F800F0E3F9FEE708B507F0E8
S3150800926007FE014B186008BD3025002008B501210E
S31508009270964B186807F0E2FD00B908BD07F0F8FD3F
S31508009280924B1860924B1B680133312B00F28A808F
S315080092908F4A13608F4B1B680133632B00F28E8055
S315080092A08C4A13608C4B1B680133022B00F29280A8
S315080092B0894A1360894B1B68B3F1FF3F40F09680DB
S315080092C0864B00221A60864B1B680133B3F57A7FFA
S315080092D080F09880824A1360824B1B680133072B03
S315080092E000F29C807F4A13607F4B1B680133632B17
S315080092F000F2A0807C4A13607C4B1B68B3F1FF3FE9
S3150800930040F0A480794B00221A60794B1B68013320
S31508009310132B00F2A780764A1360764B1B6801333D
S3150800932042F20F72934200F2A180724A1360724BA6
S315080093301B680133632B00F2A5806F4A13606F4BDD
S315080093401B68B3F1FF3F40F0A9806C4B00221A60FE
S315080093506B4B1B680133B3F5FA6F80F0AB80684A34
S315080093601360684B1B68012B00F00281664B1B6873
S315080093700133B3F57A7F80F00D81634A1360634B3E
S315080093801B68B3F1FF3F40F01181604B00221A6061
S315080093905F4B1B68B3F1FF3F40F014815C4B002222
S315080093A01A606AE74A4B00221A605A4B1B68012B5F
S315080093B07FF470AF584B01221A606BE7454B0022C9
S315080093C01A60564B1B68012B7FF46CAF544B012275
S315080093D01A6067E7404B00221A60524B1B68012B44
S315080093E07FF468AF504B01221A6063E73B4B0022BB
S315080093F01A604E4B1B68012B7FF465AF4C4B01225C
S315080094001A6060E7364B00221A604A4B1B68012B2C
S315080094107FF462AF484B01221A605DE7314B0022A8
S315080094201A60464B1B68012B7FF45EAF444B012242
S315080094301A6059E72C4B00221A60424B1B68012B15
S315080094407FF45AAF404B01221A6055E7274B00229A
S315080094501A603E4B1B68012B7FF457AF3C4B012229
S315080094601A6052E7224B00221A6056E7214B002267
S315080094701A60384B1B68012B7FF459AF364B012213
S315080094801A6054E71C4B00221A60344B1B68012BE8
S315080094907FF455AF324B01221A6050E7174B002272
S315080094A01A60304B1B68012B7FF452AF154B012213
S315080094B01A604DE7124B00221A602B4B1B68012BD2
S315080094C07FF44FAF294B01221A604AE73025002066
S315080094D028250020042500201825002054250020D2
S315080094E020250020EC2400204C250020FC24002008
S315080094F05C25002044250020342500203C2500203A
S31508009500E024002040250020E42400200C2500202B
S31508009510F4240020200000202C2500201400002020
S3150800952008250020180000201C25002034000020F3
S31508009530582500201C0000202425002008000020B3
S31508009540F0240020300000205025002010000020C4
S31508009550002500202C00002048250020240000209B
S31508009560382500202800002000000020DC240020E8
S315080095701A4B00221A601A4B1B8813B1013B184A72
S315080095801380184B1B88002B3FF4F0AE013B154A9D
S315080095901380EBE6144B00221A60144B1B68012B50
S315080095A07FF4EDAE124B01221A60E8E6114B002259
S315080095B01A60114B1B68012B7FF4EAAE0F4B012290
S315080095C01A60E5E60E4B00221A600E4B1B68012B4B
S315080095D07FF453AE0C4B01221A604EE6402500205C
S315080095E06679002068790020E42400200400002021
S315080095F0E82400200C250020102500201425002032
S31508009600F42400200C000020F824002008B54FF4AC
S315080096100051024802F07CFB08BD00BF000802406A
S3150800962008B55A4D5A4C5B4E5CE01DF0D3FE002837
S315080096305BD100232B6016F0C5FA56E000232360A1
S3150800964007F016FF54E017F071F9002853D1524B72
S315080096501B68002B4FD11DF0C3FE1CF0DBF91DF073
S31508009660C5FE0023336046E017F060F9002846D1AE
S31508009670494B1B68002B42D01DF0B2FE1DF0AEFD13
S315080096801DF0B4FE454B00221A6038E0444B002218
S315080096901A6000F0FDFC36E0424B00221A6012F018
S315080096A05BFC34E0404B1B68012B3ED03F4B1B68EC
S315080096B0012B40D03E4B1B68012B42D03D4B1B680B
S315080096C0012B44D03C4B1B68012B46D03B4B1B68F7
S315080096D0012B48D03A4B1B68012B4AD0394B1B68E3
S315080096E0002B51D12B68012B9FD02368012BA5D0C5
S315080096F03368012BA7D0294B1B68012BB4D0284B04
S315080097001B68012BC2D0274B1B68012BC4D02E4BDC
S315080097101B68012BC6D12D4B1B68002BC2D02A4BC8
S3150800972000221A601AF0E4F8BCE71F4B00221A6000
S31508009730FFF76CFFBAE71D4B00221A600BF0F0F931
S31508009740B8E71B4B00221A601DF0B0FFB6E7194BAD
S3150800975000221A600AF0DCFEB4E7174B00221A60F2
S315080097600CF082FBB2E7154B00221A6000F028F9CC
S31508009770B0E7134B00221A60154802F0E1FA0028F8
S31508009780ACD0FFF760FDA9E7FEE700BF2C25002057
S315080097900825002048250020C86900203825002013
S315080097A0E82400201C25002024250020F024002081
S315080097B0502500200025002014250020F82400202C
S315080097C060250020D824002058250020DC2400200D
S315080097D07826002082B0002100910B4B5A6C42F487
S315080097E080425A645A6C02F480420092009A0191AF
S315080097F01A6C42F080521A641B6C03F08053019372
S31508009800019B02B0704700BF00380240FEE7FEE742
S31508009810FEE7FEE7FEE770477047704708B500F0B9
S31508009820BBFE08BD08B5042002F07CFA08BD08B5E1
S315080098304FF4807002F076FA08BDB0F5807F02D04A
S31508009840042800D0704708B5FFF736FC00F0B6FECE
S3150800985002F08AFA08BD000008B5034801F0A2FE26
S315080098603A2001F095FD08BDC426002008B5034836
S3150800987001F098FE3B2001F08BFD08BD242700204F
S3150800988008B5024801F0F4FB08BD00BF1026002009
S3150800989008B501200AF06CFE262001F079FD08BD06
S315080098A008B5064801F07EFE0BF024F8FFF7DEFC4B
S315080098B007F082FA382001F06BFD08BDB0250020BC
S315080098C008B5024803F038FF08BD00BF3428002059
S315080098D008B5034803F066F9032001F059FD08BDF1
S315080098E08C2600200120704708B51EF011FA1623B1
S315080098F003604FF0FF3008BD08B51EF009FA1623BD
S315080099000360FEE770B5161E07DD0C468D19AFF32A
S31508009910008004F8010BA542F9D1304670BD70B538
S31508009920161E07DD0C468D1914F8010BAFF30080DF
S31508009930A542F9D1304670BD4FF0FF3070474FF45D
S3150800994000534B6000207047012070470020704785
S3150800995008B503460C4A126852B10B4A106803440C
S315080099600A4A0B49521A934206D8074A136008BD99
S31508009970054A08491160F0E71EF0CAF90C2303608E
S315080099804FF0FF30F3E700BF6425002000000420F5
S315080099900004000030840020034AD2F8883043F4DB
S315080099A07003C2F88830704700ED00E008B500F093
S315080099B07FF800F04FF80021084600F063F808BD6C
S315080099C008B500F001F808BD70470000BFF34F8FD7
S315080099D00549CA6802F4E062044B1343CB60BFF33F
S315080099E04F8F00BFFDE700BF00ED00E00400FA0559
S315080099F00C490B4653F8032BC2F30720C2F3074C56
S31508009A00604450FA82F0120E12FA80F080B23B31AE
S31508009A1013F8012F104480B28B42F9D1404280B22C
S31508009A20704700BFF40C002008B5084B1A68084BAD
S31508009A309A4201D0002008BDFFF7DAFF034B9B8F3F
S31508009A40834214BF00200120F5E700BFF40C002074
S31508009A50A2E742CE08B5FFF7E7FF70B9074A1346F3
S31508009A60074943F8031B3B32002103F8011F9342C1
S31508009A70FBD1FFF7BDFF014B988708BDF40C00200A
S31508009A80A2E742CEF8B504460D46FFF7CDFF0646D7
S31508009A9010B1372C02D900263046F8BD034F3819C5
S31508009AA00571FFF7A5FFB887F6E700BFF40C00209D
S31508009AB07047000000B589B0002305930693079305
S31508009AC001930293039304934248434A02604FF476
S31508009AD080324260836001220261037680F820307A
S31508009AE04FF04051C1624FF0106181624FF400613E
S31508009AF0C1600521C16180F83020436100F066FD30
S31508009B00002851D10023059305A9324800F0EAFF41
S31508009B1000284CD1062301930123029303930023C3
S31508009B20049301A92B4800F011FF002842D107230E
S31508009B30019302230293012303930023049301A9AB
S31508009B40244800F003FF002837D108230193032394
S31508009B500293012303930023049301A91D4800F0EF
S31508009B60F5FE68BB0E230193042302930123039396
S31508009B700023049301A9174800F0E8FE18BB0F2339
S31508009B80019305230293012303930023049301A958
S31508009B90104800F0DBFEC8B9052210490D4800F050
S31508009BA0D7FD09B05DF804FBFFF74DFBAAE7FFF701
S31508009BB04AFBAFE7FFF747FBB9E7FFF744FBC4E704
S31508009BC0FFF741FBCEE7FFF73EFBD8E7FFF73BFB86
S31508009BD0E2E700BF68250020002001400C6700204E
S31508009BE070B58AB0002305930693079308930993E3
S31508009BF0026803F1804303F590339A4201D00AB014
S31508009C0070BD04460025019503F58C335A6C42F461
S31508009C1080725A645A6C02F480720192019A029513
S31508009C201A6B42F001021A631A6B02F001020292E1
S31508009C30029A03951A6B42F004021A631A6B02F031
S31508009C4004020392039A04951A6B42F002021A63FD
S31508009C501B6B03F002030493049BC023059303269E
S31508009C60069605A9194801F067FF3023059306965D
S31508009C70079505A9164801F05FFF01230593069687
S31508009C80079505A9134801F057FF1348134B0360BE
S31508009C9045608560C5604FF4806303614FF4805367
S31508009CA043614FF4804383614FF48073C3614FF47B
S31508009CB040330362456201F09BFB18B9064BA36368
S31508009CC09C639CE7FFF7BFFAF8E700BF0000024075
S31508009CD00008024000040240B0250020106402403B
S31508009CE008B52348234B036005234360002383609C
S31508009CF0C3604FF4202202614FF4E002426103760A
S31508009D00012242768376C3760377437700F016FFFF
S31508009D1008BB194900238B618B60CB600B604B60D5
S31508009D200B6101220A624B61CA61114800F096FF75
S31508009D30A0B90F4801F02EF898B902210C4801F095
S31508009D4079F988B90D4B04229A6000221A75082100
S31508009D501961DA6008BDFFF776FADAE7FFF773FAF2
S31508009D60E7E7FFF770FAE8E7FFF76DFAEAE700BFFB
S31508009D7010260020006400403826002060260020B7
S31508009D8030B589B00023039304930593069307938C
S31508009D900268184B9A4201D009B030BD00250195DA
S31508009DA003F5EA331A6C42F000721A641A6C02F070
S31508009DB000720192019A02951A6B42F002021A6326
S31508009DC01B6B03F002030293029B4FF44073039349
S31508009DD00224049406940823079303A9064801F06D
S31508009DE0ABFE2A462146142001F07AFA142001F027
S31508009DF0ADFAD1E7006400400004024010B582B015
S31508009E0000240194114B1A6B42F480021A631B6BEF
S31508009E1003F480030193019B22462146382001F072
S31508009E205FFA382001F092FA224601213A2001F021
S31508009E3057FA3A2001F08AFA224601213B2001F01E
S31508009E404FFA3B2001F082FA02B010BD00380240FA
S31508009E502DE9F04F8BB00024089409940094744BB4
S31508009E601A6B42F004021A631A6B02F0040200929B
S31508009E70009A01941A6B42F080021A631A6B02F078
S31508009E8080020192019A02941A6B42F001021A6347
S31508009E901A6B02F001020292029A03941A6B42F0BC
S31508009EA002021A631A6B02F002020392039A0494DE
S31508009EB01A6B42F008021A631B6B03F0080304933B
S31508009EC0049B43F607230593012606960225079564
S31508009ED0DFF8689105A9484601F02EFE4FF40043C5
S31508009EE00593069607950894DFF8548105A9404618
S31508009EF001F022FE4FF480530593069607950894C1
S31508009F004C4F05A9384601F017FE4FF481630593B7
S31508009F100694079505A9484601F00EFE41F230134E
S31508009F20059306960795089405A9404601F004FE90
S31508009F3005950694079505A9384601F0FDFD4FF0ED
S31508009F40040ACDF814A04FF4881BCDF818B007956D
S31508009F5005A9384601F0F0FD22462146082001F001
S31508009F60BFF9082001F0F2F94FF4806305930696CD
S31508009F700795089405A9384601F0DEFD4FF480736D
S31508009F800593CDF818B0079505A9484601F0D4FD04
S31508009F9022462146172001F0A3F9172001F0D6F929
S31508009FA04FF4C06305930694079505A9404601F04A
S31508009FB0C3FD4FF4006305930696079505A9404629
S31508009FC001F0BAFDCDF814A00694079505A91A481C
S31508009FD001F0B2FDC02305931223069307950323C8
S31508009FE00893CDF824A005A9384601F0A5FD324608
S31508009FF04FF40041404601F085FE32464FF4805149
S3150800A000384601F07FFE224643F60721484601F00E
S3150800A01079FE224641F23011404601F073FE22468F
S3150800A0204FF48061384601F06DFE0BB0BDE8F08F45
S3150800A0300038024000040240000C024000080240BA
S3150800A0400000024008B51048104B03600023436027
S3150800A0507F228260FF22C26003614361836102F04E
S3150800A06066FB70B900224FF6FF71074802F010FD33
S3150800A07000221146032001F033F9032001F066F9A6
S3150800A08008BDFFF7E0F8EDE78C2600200028004021
S3150800A09070B50F4D0F4E00222946304602F0B1FC2E
S3150800A0A00D4C00222146304602F0D3FC0B4B2A7891
S3150800A0B01A706A785A70AA789A70A2781A712278F1
S3150800A0C05A716278DA70E27802F5FA62DA8070BD5F
S3150800A0D0B02600208C260020AC26002084260020EE
S3150800A0E002680D4B9A4200D0704700B583B0002332
S3150800A0F001930A4B1A6C42F080521A641B6C03F0E7
S3150800A10080530193019B01F021FE054B0122C3F800
S3150800A1103C2E03B05DF804FB0028004000380240DE
S3150800A1200000474208B50E480E4B03604FF4827391
S3150800A130436000238360C3600222026101224261F8
S3150800A1404FF4007181613021C16103624362836209
S3150800A150C26202F02BFE00B908BDFFF774F8FBE7F0
S3150800A160842700200030014008B50E480E4B0360D6
S3150800A1704FF48273436000238360C3600222026146
S3150800A180012242614FF4007181612021C16103629D
S3150800A19043628362C26202F009FE00B908BDFFF796
S3150800A1A052F8FBE7DC2700200038004030B58BB0BA
S3150800A1B00023059306930793089309930368474A70
S3150800A1C0934204D0464A934263D00BB030BD04464E
S3150800A1D000250095434B5A6C42F480525A645A6CD7
S3150800A1E002F480520092009A01951A6B42F001021D
S3150800A1F01A631A6B02F001020192019A02951A6B10
S3150800A20042F002021A631B6B03F002030293029BDD
S3150800A21038230593022306930323089305230993FA
S3150800A22005A9314801F088FC3048314B03604FF0EE
S3150800A230C06343608560C5604FF480630361456110
S3150800A2408561C5610562456201F0D2F8D8B9274B28
S3150800A250E3649C632748284B03604FF0C063436060
S3150800A260402383600023C3604FF480620261436128
S3150800A2708361C3610362436201F0BAF830B91D4BCA
S3150800A280A3649C63A1E7FEF7DEFFE0E7FEF7DBFFCA
S3150800A290F5E700210391134B1A6C42F480421A64C5
S3150800A2A01A6C02F480420392039A04911A6B42F0E4
S3150800A2B002021A631B6B03F002030493049B4FF418
S3150800A2C06043059302230693032308930523099302
S3150800A2D005A9054801F030FC77E700BF00300140CA
S3150800A2E0003800400038024000040240C42600201E
S3150800A2F040640240242700205864024010B588B004
S3150800A30000230193029303930493059306930793FB
S3150800A3101248134A0260436083604CF25032C260AE
S3150800A32003614361836103F049FB98B930230193C4
S3150800A33046F2A8130293002303930593074C0C22B5
S3150800A34001A9204603F0CCFB0C21204603F062FD50
S3150800A35008B010BDFEF777FFE8E700BF7C280020AD
S3150800A3600008004008B516484FF0804303600023F4
S3150800A370436083604FF6FF72C26003614361836185
S3150800A38003F048FB90B90F490A230B600023CB6002
S3150800A3908B6001234B600422094803F00FFC40B987
S3150800A3A00421074803F0B0FD30B908BDFEF74BFF9E
S3150800A3B0E9E7FEF748FFF3E7FEF745FFF5E700BFD5
S3150800A3C034280020C428002010B586B00023019345
S3150800A3D002930393049305930368B3F1804F01D066
S3150800A3E006B010BD0024009403F50E331A6C42F033
S3150800A3F001021A641B6C03F001030093009B0223FD
S3150800A4000193029301230593039301A9054801F0DB
S3150800A41093FB224621461C2000F062FF1C2000F018
S3150800A42095FFDDE70000024002680C4B9A4200D017
S3150800A430704700B583B000230193094B1A6C42F0AC
S3150800A44004021A641B6C03F004030193019B0C219C
S3150800A450044803F065FC03B05DF804FB00080040FF
S3150800A460003802407C28002008B50A480A4B0360D9
S3150800A4704FF4E133436000238360C36003610C2219
S3150800A48042618361C36103F07BFE00B908BDFEF734
S3150800A490DAFEFBE7D42800200044004010B588B057
S3150800A4A00023039304930593069307930268184BB6
S3150800A4B09A4201D008B010BD0024019403F5FA337E
S3150800A4C01A6C42F400321A641A6C02F400320192D1
S3150800A4D0019A02941A6B42F001021A631B6B03F08D
S3150800A4E001030293029B0C2303930223049306930E
S3150800A4F00723079303A9074801F01EFB22460321F9
S3150800A500262000F0EDFE262000F020FFD2E700BF4F
S3150800A510004400400000024010B504460E4B18786F
S3150800A5204FF47A73B3FBF0F30C4A1068B0FBF3F000
S3150800A53000F01AFF68B90F2C01D901200AE00022A1
S3150800A54021464FF0FF3000F0CBFE054B1C60002083
S3150800A55000E0012010BD00BF3C00002038000020AC
S3150800A5604000002008B50B4B1A6842F400721A60C6
S3150800A5701A6842F480621A601A6842F480721A6095
S3150800A580032000F09BFE0F20FFF7C6FFFFF722F916
S3150800A590002008BD003C0240034A1168034B1B78A3
S3150800A5A00B441360704700BF182900203C000020A8
S3150800A5B0014B1868704700BF182900204FF0E022A9
S3150800A5C0136943F00203136170470000002800F086
S3150800A5D0B98010B50446036C43B1236C13F0100F11
S3150800A5E00BD00120002384F83C3010BDFFF7F8FAA1
S3150800A5F00023636484F83C30EFE7236C23F4885324
S3150800A60023F0020343F0020323644F4B5A6822F4F3
S3150800A61040325A605A6861680A435A602268536829
S3150800A62023F48073536022685368216943EA01233F
S3150800A63053602268536823F0407353602268536856
S3150800A640A1680B4353602268936823F40063936000
S3150800A65022689368E1680B439360A26A3B4B9A426F
S3150800A6605FD02268936823F07063936022689368CA
S3150800A670A16A0B4393602268936823F04053936062
S3150800A68022689368E16A0B4393602268936823F013
S3150800A6900203936022689368217E43EA410393602C
S3150800A6A094F82030002B47D02268536843F400639F
S3150800A6B053602268536823F46043536021684B68EB
S3150800A6C0626A013A43EA42334B602268D36A23F44A
S3150800A6D07003D3622168CB6AE269013A43EA0253FE
S3150800A6E0CB622268936823F40073936022689368A8
S3150800A6F094F8301043EA412393602268936823F460
S3150800A7008063936022689368616943EA8123936052
S3150800A71000206064236C23F0030343F001032364E1
S3150800A72060E72268936823F07063936022689368F1
S3150800A73023F040539360A8E72268536823F4006324
S3150800A7405360C2E701207047002301400100000F53
S3150800A75010B582B013460022019290F83C20012AD7
S3150800A76000F094800446012280F83C200268906834
S3150800A77010F0010F14D1906840F001009060464A2D
S3150800A7801068464AA2FB0020800C00EB40000190AE
S3150800A790019A2AB101980138019001980028F9D147
S3150800A7A02268906810F4807F03D0906820F4807047
S3150800A7B090602268906810F0010F5CD0206C20F43D
S3150800A7C0E06020F0010040F480702064526812F4C2
S3150800A7D0806F05D0226C22F4405242F480522264E3
S3150800A7E0226C12F4805F1ABF626C22F00602002205
S3150800A7F06264002284F83C20A26B2948D063A26BCD
S3150800A80028481064A26B2848D06422686FF022009A
S3150800A81010602068426842F0806242602068826860
S3150800A82042F48072826020680A4600F14C01A06BEF
S3150800A83000F076FE1D4B5B6813F01F0F0AD12368E4
S3150800A8409A6812F0405F23D19A6842F080429A6073
S3150800A850002019E02268164B9A4201D0002013E026
S3150800A8609B6813F0405F15D1114A936843F0804303
S3150800A8709360002008E0236C43F010032364636CA4
S3150800A88043F001036364002002B010BD0220FBE719
S3150800A8900020F9E70020F7E73800002083DE1B4395
S3150800A8A0DBA80008B9A80008C5A8000800230140CD
S3150800A8B0002001407047704708B5806BFFF7FBFF23
S3150800A8C008BD704708B5806B40230364436C43F0AA
S3150800A8D004034364FFF7F5FF08BD08B50346806B1C
S3150800A8E0026C12F0500F25D1036C43F40073036415
S3150800A8F003689A6812F0405F19D1027EBAB9DA6A1B
S3150800A90012F4700F03D09A6812F4806F0FD15A6848
S3150800A91022F020025A60036C23F480730364036CEC
S3150800A92013F4805F03D1036C43F001030364FFF75C
S3150800A930C1FF08BD026C12F0100F04D1826BD26CF5
S3150800A94018469047F5E7FFF7BCFFF2E730B482B048
S3150800A9500023019390F83C30012B00F0BB800123C3
S3150800A96080F83C300B68092B3CD90468E2689BB236
S3150800A97003EB43031E3B4FF0070C0CFA03F322EAE2
S3150800A9800303E3600468E5680B8803EB43031E3B97
S3150800A9908A6802FA03F32B43E3604B68062B37D821
S3150800A9A00468626B03EB8303053B4FF01F0C0CFA3C
S3150800A9B003F322EA030363630468656B0A884B683A
S3150800A9C003EB8303053B02FA03F32B436363026835
S3150800A9D0414B9A424CD0002380F83C30184602B0CE
S3150800A9E030BC7047046822699BB203EB43034FF0FF
S3150800A9F0070C0CFA03F322EA0303236104682569AA
S3150800AA000B8803EB43028B6893402B432361C4E70F
S3150800AA100C2B16D805682A6B03EB8303233B1F24EC
S3150800AA2004FA03F322EA03032B630468256B0A88F6
S3150800AA304B6803EB8303233B02FA03F32B4323639D
S3150800AA40C5E70568EA6A03EB8303413B1F2404FA5A
S3150800AA5003F322EA0303EB620468E56A0A884B6893
S3150800AA6003EB8303413B02FA03F32B43E362AEE7AE
S3150800AA700B68122B24D00B68103B012BABD8174A56
S3150800AA80536843F4000353600B68102BA3D1144B8F
S3150800AA901B6802F1467202F52E3202F28332A2FBDD
S3150800AAA003239B0C03EB83035B000193019B002BA1
S3150800AAB091D0019B013B0193019B002BF9D18AE7B9
S3150800AAC0064A536843F4800353600268024B9A426D
S3150800AAD0D1D080E7022082E7002001400023014010
S3150800AAE03800002090F83C30012B23D010B4012305
S3150800AAF080F83C30104B5A6822F01F025A605A6898
S3150800AB000C6822435A605A6822F440425A605A68CE
S3150800AB104C6822435A605A6822F470625A605A682E
S3150800AB2089680A435A60002380F83C3018465DF865
S3150800AB30044B70470220704700230140002800F0AC
S3150800AB408A8038B5044690F82030D3B12268136855
S3150800AB5043F001031360FFF72BFD054623685A6887
S3150800AB6012F0010F10D1FFF723FD401B0A28F5D973
S3150800AB70636A43F400336362052384F820300120B6
S3150800AB8038BDFFF7FDF8E1E71A6822F002021A60FD
S3150800AB90FFF70EFD054623685A6812F0020F0DD01E
S3150800ABA0FFF706FD401B0A28F5D9636A43F400330C
S3150800ABB06362052384F820300120E1E7227E012A1A
S3150800ABC01A680CBF42F0800222F080021A60637E87
S3150800ABD0012B226813680CBF43F0400323F040039F
S3150800ABE01360A37E012B226813680CBF43F0200371
S3150800ABF023F020031360E37E012B226813680CBF41
S3150800AC0023F0100343F010031360237F012B2268FF
S3150800AC1013680CBF43F0080323F008031360637F2F
S3150800AC20012B226813680CBF43F0040323F00403C6
S3150800AC3013602168A368E2681343226913436269B3
S3150800AC4013436268013A1343CB6100206062012313
S3150800AC5084F8203094E701207047000090F82030EF
S3150800AC60013BDBB2012B05D9436A43F480234362D7
S3150800AC700120704730B5464BD3F8002242F0010256
S3150800AC80C3F80022D3F8002222F47C52C3F800222B
S3150800AC90D3F80022486A42EA0022C3F800224A6929
S3150800ACA002F01F02012000FA02F2D3F81C026FEA32
S3150800ACB0020C20EA0200C3F81C02CB69C3B9344B64
S3150800ACC0D3F80C020CEA0000C3F80C0248698C8819
S3150800ACD0CD6844EA0544483043F830408C68088813
S3150800ACE040EA04404C6904F1480E03EBCE03586071
S3150800ACF0CB69012B1ED08B69002B33D12448D0F8A1
S3150800AD0004320CEA0303C0F804320B698BBB2048F3
S3150800AD10D0F814320CEA0303C0F814320B6A012B7C
S3150800AD202ED01B4AD2F8003223F00103C2F80032B3
S3150800AD30002030BD164BD3F80C021043C3F80C02A2
S3150800AD4048698C880D6844EA0544483043F8304021
S3150800AD504C6988898D6840EA0540483403EBC4038A
S3150800AD605860C8E70A48D0F804321343C0F80432DA
S3150800AD70CBE70748D0F814321343C0F81432CDE7AE
S3150800AD800349D1F81C321A43C1F81C22C9E700BF8F
S3150800AD900064004070B5044690F82050EDB2012DCD
S3150800ADA006D0436A43F4002343620125284670BD52
S3150800ADB0022380F820300268136823F00103136029
S3150800ADC0FFF7F6FB064623685B6813F0010F0CD005
S3150800ADD0FFF7EEFB831B0A2BF5D9636A43F40033AE
S3150800ADE06362052384F82030E0E700256562DDE725
S3150800ADF070B590F820C00468A4680CF1FF3C5FFAAF
S3150800AE008CFCBCF1010F6DD814F0E05F64D0C4F37C
S3150800AE10016CBCF1020F05D9436A43F4000343628F
S3150800AE20012064E0012404FA0CF41C608B68002BF2
S3150800AE303BD104680D68CB6843EA45550CF1180305
S3150800AE401B01E55003680C690CF1180E03EB0E1391
S3150800AE505C600B7D012B35D00168D47993791B048E
S3150800AE6043EA046314792343547943EA042301EB40
S3150800AE700C11C1F88C310168D47893781B0443EA25
S3150800AE80046314782343527843EA022301EB0C1136
S3150800AE90C1F88831036803EB0C1CDCF8803143F0F9
S3150800AEA00103CCF88031002021E004684D68CE68A3
S3150800AEB0334343EAC5030CF1180E4FEA0E1E44F855
S3150800AEC00E30BFE7036803EB0C13D3F8841141F483
S3150800AED08071C3F88411BFE7436A43F400134362E1
S3150800AEE0012004E0436A43F480234362012070BDD5
S3150800AEF090F820C00CF1FF3C5FFA8CFCBCF1010F06
S3150800AF0000F2928030B459B90468E46814F0030F6B
S3150800AF1011D1436A43F400134362012030BC7047E1
S3150800AF200468246914F0030F05D1436A43F4001337
S3150800AF3043620120F2E701F11B04240105682C593C
S3150800AF4004F004049460002C5FD101F11B04240171
S3150800AF5005682C59640D1460046801F11B0C4FEA4E
S3150800AF600C1C54F80C4004F00204D46004686444D1
S3150800AF70646804F00F041461046864446468C4F3E4
S3150800AF8007249461046864446468240C5461026864
S3150800AF9002EB0112D2F8B8211A70026802EB01120C
S3150800AFA0D2F8B821120A5A70026802EB0112D2F8D6
S3150800AFB0B821120C9A70026802EB0112D2F8B82175
S3150800AFC0120EDA70026802EB0112D2F8BC211A716D
S3150800AFD0026802EB0112D2F8BC21120A5A71026801
S3150800AFE002EB0112D2F8BC21120C9A71026802EB2C
S3150800AFF00112D2F8BC21120EDA7171B90268D3684F
S3150800B00043F02003D360002088E701F11B042401E4
S3150800B01005682C59E40854609EE70268136943F0F2
S3150800B02020031361002079E7436A43F480234362CF
S3150800B0300120704790F82030013BDBB2012B05D97F
S3150800B040436A43F4802343620120704702685369C8
S3150800B0501943516100207047704770477047704721
S3150800B060704770477047704770477047704770471A
S3150800B0702DE9F84F054603685C69D3F804809F6894
S3150800B080D3F80CB0D3F810A0D3F8189014F0010632
S3150800B0903BD017F0010616D001229A6017F0020F6E
S3150800B0A008D117F0040F0CD117F0080606D04FF494
S3150800B0B0805608E0FFF7D0FF002604E0FFF7CFFF31
S3150800B0C001E04FF4006617F4807F0DD02B684FF42B
S3150800B0D080729A6017F4007F40F0878017F4806FBB
S3150800B0E000F0878046F4005617F4803F0DD02B6891
S3150800B0F04FF480329A6017F4003F40F0848017F4CA
S3150800B100802F00F0848046F4004614F0080F07D01C
S3150800B1101BF0100F04D046F400762B681022DA6074
S3150800B12014F0040F02D01BF0080F7AD114F0020FA6
S3150800B13004D02B68DB6813F0030F79D114F0400FA5
S3150800B14007D01AF0100F04D046F480662B68102238
S3150800B1501A6114F0200F02D01AF0080F6CD114F0FF
S3150800B160100F04D02B681B6913F0030F6BD114F46E
S3150800B170003F02D018F0100F69D114F4803F02D0B6
S3150800B18018F0080F6AD114F4004F00F0848018F004
S3150800B190040F7DD014F4807F04D019F0010F18BF76
S3150800B1A046F0010614F4007F04D019F0020F18BF08
S3150800B1B046F0020614F4806F04D019F0040F18BF85
S3150800B1C046F0040614F4006F62D019F070095FD0D7
S3150800B1D0B9F1400F65D04ED8B9F1200F5ED0B9F15C
S3150800B1E0300F42D146F020064DE02846FFF735FFDE
S3150800B1F07AE717F4006F02D046F4804674E72846CB
S3150800B200FFF72EFF70E72846FFF728FF7DE717F4BC
S3150800B210002F02D046F4803677E72846FFF721FF4D
S3150800B22073E72B680822DA602846FFF71BFF7DE7DD
S3150800B230284616F0F5F981E72B6808221A61284690
S3150800B240FFF712FF8BE72846FFF70DFF8FE72B68FE
S3150800B25010225A602846FFF708FF8EE72B68082257
S3150800B2605A602846FFF702FF8DE7B9F1100F0AD199
S3150800B27046F0080607E0B9F1500F15D0B9F1600F8E
S3150800B28008BF46F480762A68936923F070039361B1
S3150800B2902B6804225A6056B9BDE8F88F46F01006A6
S3150800B2A0F1E746F04006EEE746F08006EBE76B6A04
S3150800B2B01E436E622846FFF7DAFEEDE70749CA68BD
S3150800B2C0030203F4E06322F4E0621204120C13434F
S3150800B2D043F0BF6343F40033CB60704700ED00E0F2
S3150800B2E000B5184BDB68C3F30223C3F1070CBCF1A6
S3150800B2F0040F28BF4FF0040C03F1040EBEF1060F2D
S3150800B3008CBF033B00234FF0FF3E0EFA0CFC21EAEC
S3150800B3100C0199400EFA03F322EA030211430028AE
S3150800B32009DB0901C9B200F1604000F5614080F807
S3150800B33000135DF804FB00F00F000901C9B2024BC7
S3150800B3401954F6E700ED00E014ED00E0002808DBEC
S3150800B350420900F01F00012303FA00F0014B43F8ED
S3150800B3602200704700E100E00138B0F1807F0BD27F
S3150800B3704FF0E0235861054AF02182F82310002097
S3150800B380986107221A6170470120704700ED00E0B6
S3150800B390002809DB430900F01F00012202FA00F029
S3150800B3A06033024A42F82300704700BF00E100E01C
S3150800B3B010B402460368D8B210380B49A1FB004105
S3150800B3C009090A4C615CD1655F2808D923F47F73A3
S3150800B3D023F00303181D90655DF8044B704723F4AA
S3150800B3E07F7020F00300F6E7ABAAAAAA68C3020892
S3150800B3F038B50446FFF7DCF8002C00F08C800546CB
S3150800B400022384F83530002384F834302268136820
S3150800B41023F00103136023681A6812F0010F0AD09B
S3150800B420FFF7C6F8431B052BF5D9202363650320D0
S3150800B43084F8350038BD1A68384810406168A26833
S3150800B4400A43E1680A4321690A4361690A43A16913
S3150800B4500A43E1690A43216A0A430243616A0429E5
S3150800B46021D01A6021684A6922F00702636A1A43E2
S3150800B470042B0AD1A06A0243E36A33B1A5693DBB2E
S3150800B48001281FD030F0020012D04A612046FFF78B
S3150800B4908FFFE26D3F2393408360002060650123A0
S3150800B4A084F83530C6E7E16A206B01430A43D8E7DA
S3150800B4B0C3F30063002BE8D040236365012084F8BA
S3150800B4C03500B7E7B3F1C07F14BF00230123F1E7C6
S3150800B4D0B5F5005F08D00228EED90328D5D1C3F305
S3150800B4E00063002BD1D0E7E70328CED801A555F88D
S3150800B4F020F000BFB9B4000805B50008B9B40008C3
S3150800B5000BB50008C3F30063EBE7B3F1C07F14BFC4
S3150800B51000230123E5E701208CE700BF3F8010F0F8
S3150800B52070B4846D90F834C0BCF1010F38D04FF078
S3150800B530010C80F834C090F835C05FFA8CFCBCF179
S3150800B540010F05D0002380F83430022070BC704704
S3150800B550022580F83550002545650668356825F4C6
S3150800B5608025356005686B608368402B13D00368B7
S3150800B57099600368DA60C26D3F239340A36002684E
S3150800B580136843F0160313600268136843F0010357
S3150800B59013600020DAE703689A600368D960EAE76F
S3150800B5A00220D3E7F0B583B0044600230193724B1B
S3150800B5B01E68876D3D68C26D082393402B4210D0E4
S3150800B5C003681A6812F0040F0BD01A6822F00402F6
S3150800B5D01A60C26D08239340BB60436D43F00103B4
S3150800B5E04365E26D012393402B4209D022685269D4
S3150800B5F012F0800F04D0BB60636D43F002036365ED
S3150800B600E26D042393402B4209D02268126812F097
S3150800B610020F04D0BB60636D43F004036365E26DFB
S3150800B620102393402B4224D02268126812F0080F88
S3150800B6301FD0BB6023681A6812F4802F0DD01B68D0
S3150800B64013F4002F04D1236C9BB12046984710E0D1
S3150800B650A36C73B1204698470BE01A6812F4807FF2
S3150800B66003D11A6822F008021A60236C0BB120462F
S3150800B6709847E26D202393402B4255D022681268E2
S3150800B68012F0100F50D0BB6094F83530DBB2052BA2
S3150800B6900ED023681A6812F4802F33D01B6813F46F
S3150800B6A0002F2AD1636C002B3ED0204698473BE0FA
S3150800B6B02268136823F0160313602268536923F07F
S3150800B6C080035361236CA3B12268136823F008032F
S3150800B6D01360E26D3F239340BB60012384F8353045
S3150800B6E0002384F83430236D002B43D02046984736
S3150800B6F040E0A36C002BE7D1EBE7E36BA3B1204650
S3150800B700984711E01A6812F4807F09D11A6822F066
S3150800B71010021A60012384F83530002384F8343087
S3150800B720E36B0BB120469847636D1BB3636D13F04B
S3150800B730010F1BD0114BA3FB0636B60A052384F866
S3150800B74035302268136823F001031360019B013327
S3150800B7500193B34204D823681B6813F0010FF5D18F
S3150800B760012384F83530002384F83430E36C0BB1B8
S3150800B7702046984703B0F0BD38000020B5814E1B1F
S3150800B78010B40A490C6924F440740C610C6944F439
S3150800B79040740C610C6944F001040C610260BFF34B
S3150800B7A06F8F43605DF8044B704700BF003C024052
S3150800B7B0074B1A6922F440721A611A6942F4007238
S3150800B7C01A611A6942F001021A610160704700BFE6
S3150800B7D0003C0240074B1A6922F440721A611A6942
S3150800B7E042F480721A611A6942F001021A610180F4
S3150800B7F0704700BF003C0240274BDB6813F0100F70
S3150800B80007D0264AD36943F01003D361224B10228E
S3150800B810DA60214BDB6813F0200F07D01F4AD36983
S3150800B82043F00803D3611C4B2022DA601A4BDB680D
S3150800B83013F0400F07D0194AD36943F00403D361C4
S3150800B840154B4022DA60144BDB6813F0800F07D0E3
S3150800B850124AD36943F00203D3610F4B8022DA60A0
S3150800B8600D4BDB6813F4807F08D00C4AD36943F08C
S3150800B8700103D361084B4FF48072DA60064BDB682C
S3150800B88013F0020F07D0054AD36943F02003D361AA
S3150800B890014B0222DA607047003C02401C29002056
S3150800B8A0074B1B69002B01DB00207047044B054A38
S3150800B8B05A6002F188325A601869C00F704700BF93
S3150800B8C0003C02402301674570B50446154B00222B
S3150800B8D0DA61FEF76DFE0646134DEB6813F4803FFA
S3150800B8E00AD0B4F1FF3FF8D0CCB1FEF761FE801B59
S3150800B8F0A042F2D903200DE00B4BDB6813F0010FD1
S3150800B90002D0094B0122DA60074BDB6813F4F97F92
S3150800B91001D1002070BDFFF76FFF0120FAE7032071
S3150800B920F8E700BF1C290020003C0240F8B5154680
S3150800B9301F4A127E012A39D004460E461F461C4B62
S3150800B94001221A764CF25030FFF7BEFF90B9ACB11F
S3150800B950012C21D0022C24D02A463B463046FFF73C
S3150800B9600FFF4CF25030FFF7AFFF124A136923F06E
S3150800B970010313610E4B00221A76F8BDEDB20D4B8A
S3150800B980196921F4407119611A691A61196941F036
S3150800B990010119613570E4E7A9B23046FFF71AFFCD
S3150800B9A0DFE729463046FFF703FFDAE70220E4E738
S3150800B9B01C290020003C0240074B196921F44071FC
S3150800B9C01961196941F0040119611A6942EA0022EC
S3150800B9D042F480321A617047003C024041B10129A5
S3150800B9E020D002290CBF4FF4007C4FF4407C01E0C4
S3150800B9F04FF0000C0D4B196921F4407119611A6951
S3150800BA0042EA0C021A611A6922F0F8021A611A69E6
S3150800BA1042EAC00040F0020018611A6942F4803216
S3150800BA201A6170474FF4807CE4E700BF003C02408F
S3150800BA30164B1B6813F4007F10D0144B1A6822F4B7
S3150800BA4000721A601A6842F400621A601A6822F4D0
S3150800BA5000621A601A6842F400721A600B4B1B687F
S3150800BA6013F4806F10D0094B1A6822F480621A60AA
S3150800BA701A6842F480521A601A6822F480521A60D0
S3150800BA801A6842F480621A60704700BF003C0240A0
S3150800BA902DE9F843264B1B7E012B45D004460F465D
S3150800BAA0234B01221A764CF25030FFF70DFF8146E0
S3150800BAB0002833D14FF0FF333B602368012B1BD09E
S3150800BAC0A568E3682B449D4226D24CF25038194E9D
S3150800BAD0217C2846FFF782FF4046FFF7F5FE3369CB
S3150800BAE023F0FA0333618146A8B90135E368A268F1
S3150800BAF01344AB42ECD80FE06168207CFFF75CFF8B
S3150800BB004CF25030FFF7E0FE81460A4A136923F0EB
S3150800BB100403136100E03D60FFF78AFF044B00222F
S3150800BB201A764846BDE8F8834FF00209F9E700BFE0
S3150800BB301C290020003C02402DE9F04F83B000226A
S3150800BB4013464FF0010E0325DFF8A881674C4AE03B
S3150800BB50876805FA02FA27EA0A0ACF68974047EA89
S3150800BB600A078760476827EA0C0C4F68C7F300176F
S3150800BB709F4047EA0C07476043E04FF0000C0CFA79
S3150800BB800BFC4CEA0A0CC7F808C027686FEA090CD0
S3150800BB904E6816F4803F0CBF0CEA070749EA070708
S3150800BBA0276067684E6816F4003F0CBF0CEA070763
S3150800BBB049EA07076760A7684E6816F4801F0CBF36
S3150800BBC00CEA070749EA0707A760E7684E6816F40C
S3150800BBD0001F0CBF0CEA070749EA0707E7600133AD
S3150800BBE00232102B7ED00EFA03FC0F680CEA070906
S3150800BBF03CEA0706F3D14F6807F00307013F012F18
S3150800BC00A6D94F6807F00307032F24D0C76805FA9B
S3150800BC1002FC27EA0C0C8F68974047EA0C07C760B6
S3150800BC204F6807F00307022F15D14FEAD30C00EB34
S3150800BC308C0CDCF820A003F007074FEA870B0F27C8
S3150800BC4007FA0BF72AEA070A0F6907FA0BF747EA12
S3150800BC500A07CCF82070076805FA02FC27EA0C0CDC
S3150800BC604F6807F00307974047EA0C0707604F68D5
S3150800BC7017F4403FB3D0002701971D4E776C47F461
S3150800BC8080477764776C07F480470197019F23F014
S3150800BC90030707F1804707F59C37D7F808A003F094
S3150800BCA0030C4FEA8C0B4FF00F0C0CFA0BFC2AEA2C
S3150800BCB00C0A40453FF461AFA6F55056B0420CD089
S3150800BCC006F58066B0420AD006F58066B0420CBF1B
S3150800BCD04FF0030C4FF0070C51E7F4464FE74FF0CF
S3150800BCE0020C4CE703B0BDE8F08F00BF003C0140F2
S3150800BCF000380240000002400369194214BF0120BF
S3150800BD00002070470AB18161704709048161704754
S3150800BD10436901EA030221EA030141EA024181611A
S3150800BD207047000008B5054B5B69034200D108BDA2
S3150800BD30024B5861FDF781FDF9E700BF003C014061
S3150800BD4003684AF6AA221A600020704782B0044B9C
S3150800BD5001221A62034B1B680193019B02B07047CC
S3150800BD6000000E4200700040024A136923F00203E5
S3150800BD701361704700ED00E008B5314B9B6803F08E
S3150800BD800C03042B57D0082B57D12D4B5A6802F0B9
S3150800BD903F025B6813F4800F2AD0294B5968C1F318
S3150800BDA0881C4FEA4C11B1EB0C006EEB0E0E4FEAF5
S3150800BDB08E1343EA90638101091A63EB0E03DB00D5
S3150800BDC043EA5173C90011EB0C0C43F10003590205
S3150800BDD000234FEA4C2041EADC51FCF785FF184B5B
S3150800BDE05B68C3F3014301335B00B0FBF3F025E066
S3150800BDF0134B5968C1F3881C4FEA4C11B1EB0C0080
S3150800BE006EEB0E0E4FEA8E1343EA90638101091A10
S3150800BE1063EB0E03DB0043EA5173C90011EB0C0C0C
S3150800BE2043F10003990200234FEA8C2041EA9C5112
S3150800BE30FCF75AFFD3E7034800E0034808BD00BFF4
S3150800BE400038024000127A000024F400002800F0AE
S3150800BE509D802DE9F0410D460446504B1B6803F0C2
S3150800BE6007038B4208D2CBB24C4A1370136803F00F
S3150800BE7007038B4240F08C80236813F0020F17D01B
S3150800BE8013F0040F04D0464A936843F4E0539360D2
S3150800BE90236813F0080F04D0414A936843F46043BB
S3150800BEA093603F4A936823F0F003A1680B439360BD
S3150800BEB0236813F0010F32D06268012A21D0931E3D
S3150800BEC0012B25D9364B1B6813F0020F62D0344973
S3150800BED08B6823F0030313438B60FEF769FB064662
S3150800BEE02F4F41F28838BB6803F00C036268B3EB46
S3150800BEF0820F14D0FEF75CFB801B4045F3D9032064
S3150800BF0042E0274B1B6813F4003FE0D101203BE0D9
S3150800BF10234B1B6813F0007FD9D1012034E01F4B57
S3150800BF201B6803F00703AB4207D9EAB21B4B1A702A
S3150800BF301B6803F00703AB422ED1236813F0040FE6
S3150800BF4006D0174A936823F4E053E1680B439360DD
S3150800BF50236813F0080F07D0114A9368216923F460
S3150800BF60604343EAC1039360FFF706FF0C4B9B68E7
S3150800BF70C3F303130B4AD35CD8400B4B18600B4B27
S3150800BF801868FEF7C9FA0020BDE8F081012070475D
S3150800BF900120F9E70120F7E70120F5E7003C024018
S3150800BFA00038024050C30208380000204000002034
S3150800BFB0044B9B68C3F38223034AD35C034A106885
S3150800BFC0D84070470038024060C302083800002095
S3150800BFD0044B9B68C3F34233034AD35C034A106895
S3150800BFE0D84070470038024060C302083800002075
S3150800BFF02DE9F04182B00446056815F001050CD01C
S3150800C000A74AD2F88C3023F0C06341690B43C2F8C3
S3150800C0108C304569B5FA85F56D09236813F0020F6A
S3150800C0200CD09F4AD2F88C3023F0C053A1690B4339
S3150800C030C2F88C30A369002B08BF0125236813F0CA
S3150800C040080F5AD1236813F0040F04D094F8382047
S3150800C050944BC3F8E021236813F0100F08D0904AD8
S3150800C060D2F8943023F44003616A0B43C2F8943043
S3150800C070236813F0200F0DD0894AD2F8943023F0A4
S3150800C0800063A16A0B43C2F89430A36AB3F1006F48
S3150800C09000F0F080236813F0400F08D0804AD2F8E9
S3150800C0A0943023F08053216A0B43C2F89430012D53
S3150800C0B000F0E4802368802B00F0E080236813F406
S3150800C0C0807F08D0764AD2F88C3023F00043E16AA4
S3150800C0D00B43C2F88C30236813F4007F00F0C88045
S3150800C0E06F4AD2F88C3023F40043216B0B43C2F815
S3150800C0F08C30002002B0BDE8F08100230193684B24
S3150800C1001A6C42F080521A641B6C03F08053019338
S3150800C110019B654A136843F480731360FEF748FA77
S3150800C1200646614F3B6813F4807F06D1FEF740FA56
S3150800C130801B0228F6D90320DCE7594B1B6F13F442
S3150800C140407314D0E26902F440729A420FD0544BFD
S3150800C1501A6F22F4407255490120C1F8400E00209A
S3150800C160C1F8400E1A671B6F13F0010F12D1E3696D
S3150800C17003F44072B2F5407F1DD0494A936823F410
S3150800C180F8139360464A116FE369C3F30B030B4335
S3150800C190136757E7FEF70CFA0646414F41F288380F
S3150800C1A03B6F13F0020FE2D1FEF702FA801B4045FF
S3150800C1B0F6D903209EE73A498A6822F4F81223F052
S3150800C1C0704323F4407313438B60DBE7012565E76F
S3150800C1D0626B344BC3F8D820236813F0010F01D0E3
S3150800C1E06269A2B113F0020F01D0A2697AB113F005
S3150800C1F0200F03D0A26AB2F1006F08D013F0400FE7
S3150800C20012D0236A83B9A36AB3F1006F0CD1A2686E
S3150800C210E3681B0643EA821362681343226943EA0A
S3150800C22002731F4AC2F88430236813F0800F0CD0BB
S3150800C230A268E3681B0643EA82136268134322690D
S3150800C24043EA0273164AC2F88430184B01229A66EA
S3150800C250FEF7AEF90546124E336813F0006F7FF409
S3150800C2602DAFFEF7A5F9401B0228F5D9032041E7B3
S3150800C27000203FE7236813F0400FA7D10B4B00229D
S3150800C2809A66FEF795F90546054E336813F0006F72
S3150800C2909ED0FEF78DF9401B0228F6D9032029E720
S3150800C2A00038024000104742007000400000474234
S3150800C2B0002800F0EA812DE9F04182B004460368BF
S3150800C2C013F0010F3BD09F4B9B6803F00C03042B24
S3150800C2D02CD09C4B9B6803F00C03082B21D0636879
S3150800C2E0B3F5803F4FD0B3F5A02F52D0954B1A68BF
S3150800C2F022F480321A601A6822F480221A6063686F
S3150800C300002B50D0FEF754F905468E4E336813F4C9
S3150800C310003F14D1FEF74CF9401B6428F6D90320D8
S3150800C320BAE1884B5B6813F4800FD8D0854B1B683D
S3150800C33013F4003F03D06368002B00F0A88123683C
S3150800C34013F0020F54D07F4B9B6813F00C0F3ED0AE
S3150800C3507C4B9B6803F00C03082B33D0E368002B57
S3150800C36068D0794B01221A60FEF722F90546754E08
S3150800C370336813F0020F54D1FEF71AF9401B02284E
S3150800C380F6D9032088E16F4A136843F480331360B3
S3150800C390B5E76C4B1A6842F480221A601A6842F4B0
S3150800C3A080321A60ABE7FEF703F90546654E336837
S3150800C3B013F4003FC3D0FEF7FBF8401B6428F6D9F8
S3150800C3C0032069E15F4B5B6813F4800FC6D15D4BB0
S3150800C3D01B6813F0020F03D0E368012B40F0598164
S3150800C3E0584A1368216923F0F80343EAC103136026
S3150800C3F0236813F0080F42D063696BB3524B0122CE
S3150800C400C3F8802EFEF7D4F805464E4E736F13F028
S3150800C410020F34D1FEF7CCF8401B0228F6D90320C8
S3150800C4203AE1484A1368216923F0F80343EAC1034D
S3150800C4301360DDE7444B00221A60FEF7B9F805469B
S3150800C440404E336813F0020FD2D0FEF7B1F8401B06
S3150800C4500228F6D903201FE13B4B0022C3F8802EA1
S3150800C460FEF7A6F80546374E736F13F0020F06D08F
S3150800C470FEF79EF8401B0228F6D903200CE1236834
S3150800C48013F0040F76D02F4B1B6C13F0805F33D15B
S3150800C490002301932B4B1A6C42F080521A641B6CD2
S3150800C4A003F080530193019B0125284B1B6813F465
S3150800C4B0807F23D0A368012B34D0052B38D0214B9D
S3150800C4C01A6F22F001021A671A6F22F004021A671D
S3150800C4D0A368002B3CD0FEF76BF80646194F41F2CD
S3150800C4E088383B6F13F0020F43D1FEF761F8801BC3
S3150800C4F04045F6D90320CFE00025D6E7134A13684E
S3150800C50043F480731360FEF753F806460F4F3B68F3
S3150800C51013F4807FCED1FEF74BF8801B0228F6D99C
S3150800C5200320B9E0074A136F43F001031367CFE707
S3150800C530044B1A6F42F004021A671A6F42F001029E
S3150800C5401A67C5E7003802400000474200700040FD
S3150800C550FEF72EF80646584F41F288383B6F13F01F
S3150800C560020F06D0FEF724F8801B4045F6D90320B3
S3150800C57092E0EDB9A369002B00F08D804E4A9268CF
S3150800C58002F00C02082A54D0022B17D04B4B00227B
S3150800C5901A66FEF70DF80446474D2B6813F0007F20
S3150800C5A045D0FEF705F8001B0228F6D9032073E0EC
S3150800C5B0414A136C23F080531364DBE73F4B002298
S3150800C5C01A66FDF7F5FF05463B4E336813F0007F04
S3150800C5D006D0FDF7EDFF401B0228F6D903205BE0E5
S3150800C5E0E369226A1343626A43EA8213E26A43EA08
S3150800C5F00263226B43EA0273A26A5208013A43EACB
S3150800C60002432D4A53602D4B01221A66FDF7D0FFCF
S3150800C6100446294D2B6813F0007F06D1FDF7C8FFA5
S3150800C620001B0228F6D9032036E0002034E000205B
S3150800C63032E0012B33D0204B5B6803F48001E269BA
S3150800C64091422ED103F03F02216A8A422BD1616AB8
S3150800C65047F6C0721A40B2EB811F26D103F4403167
S3150800C660A26A5208013AB1EB024F20D103F0706278
S3150800C670E16AB2EB016F1CD1226B03F0E043B3EB26
S3150800C680027F14BF0120002006E001207047012028
S3150800C69002E0012000E0002002B0BDE8F0810120A0
S3150800C6A0FAE70120F8E70120F6E70120F4E7012080
S3150800C6B0F2E70120F0E700BF0038024000004742D9
S3150800C6C038B504460268D36823F0A003D360FDF7A3
S3150800C6D06FFF05462368DB6813F0200F07D1FDF7C7
S3150800C6E067FF401BB0F57A7FF4D9032000E00020ED
S3150800C6F038BD38B50368DA6812F0400F01D000205B
S3150800C70038BD04464FF0FF32DA60FDF751FF0546A3
S3150800C7102368DB6813F0400F07D1FDF749FF431B79
S3150800C720B3F57A7FF4D90320EAE70020E8E738B5BD
S3150800C73000285CD00446437F002B41D00223637750
S3150800C7402368CA225A62236853225A622046FFF790
S3150800C750D0FF0546002837D12268936823F4E00302
S3150800C76023F0400393602268916863682069034355
S3150800C770606903430B4393602368E2681A61226881
S3150800C7801369A16843EA014313612268D36823F059
S3150800C7908003D36023689B6813F0200F1BD02268A0
S3150800C7A0136C23F4802313642268136CA1690B436A
S3150800C7B013642368FF225A6201236377284638BD2B
S3150800C7C00377FDF78DFCB9E72368FF225A62042335
S3150800C7D063770125F2E72046FFF772FF0028DED0CF
S3150800C7E02368FF225A62042363770125E6E70125B9
S3150800C7F0E4E7092809D9002301330A38C0B2092811
S3150800C800FAD840EA0310C0B270470023F9E72DE9C9
S3150800C810F041037F012B7BD004460E4601230377A4
S3150800C82002234377002A4AD103689B6813F0400F16
S3150800C83004BF0023CB700878FFF7DBFF80467078CB
S3150800C840FFF7D7FF0746B078FFF7D3FFF57840EA3A
S3150800C850054545EA084545EA07252368CA225A6276
S3150800C860236853225A622046FFF743FF07460028EB
S3150800C87037D1236805F07F3525F0FE451D6022680F
S3150800C880936823F48023936022689168F36830697B
S3150800C89003430B4393602268D36823F08003D36075
S3150800C8A023689B6813F0200F24D02368FF225A625E
S3150800C8B001236377002323773846BDE8F0810368B0
S3150800C8C09B6813F0400F04BF0023CB700D7848789F
S3150800C8D0000240EA05408D782843CD7840EA0545B0
S3150800C8E0BBE72368FF225A62042363770023237772
S3150800C8F00127E1E72046FFF7E3FE0028D5D02368A5
S3150800C900FF225A6204236377002323770127D3E79C
S3150800C9100227D1E7F8B5037F012B38D004460D4628
S3150800C92001230377022343779ABB4B7813F0100F42
S3150800C93003D023F010030A334B70E878FFF759FF4A
S3150800C94007466878FFF755FF0646A878FFF751FFB0
S3150800C9502B7840EA433343EA074343EA062522E0B5
S3150800C9602368FF225A62042363770023237701266C
S3150800C9703CE02046FFF7A4FE002830D02368FF22BB
S3150800C9805A62042363770023237701262EE00226C2
S3150800C9902CE0CB784878000240EA03408B781843AD
S3150800C9A00B7840EA43352368CA225A622368532221
S3150800C9B05A622046FFF79DFE06460028D0D1236816
S3150800C9C025F07F4525F0C0055D602268D36823F011
S3150800C9D08003D36023689B6813F0200FC9D02368AF
S3150800C9E0FF225A6201236377002323773046F8BD76
S3150800C9F0030903EB830300F00F0000EB4300C0B20A
S3150800CA00704770B50C4603689B6A4B6003681B69E0
S3150800CA10C3F30E038B6003681D68C5F30641C5F3AF
S3150800CA2005402070C5F30626667005F07F05A570DB
S3150800CA3001F04003E37052B9FFF7DAFF2070304681
S3150800CA40FFF7D6FF60702846FFF7D2FFA0700020D8
S3150800CA5070BD70B503685B68C3F30740C870C3F35D
S3150800CA6004264E7003F03F058D70C3F342330B70F6
S3150800CA705AB90C46FFF7BCFFE0703046FFF7B8FF1F
S3150800CA8060702846FFF7B4FFA070002070BD000054
S3150800CA90037F012B7CD030B482B0012303770223B5
S3150800CAA043770368CA245C62036853245C6205689A
S3150800CAB0AB6813F4806F13D0364B1B68364CA4FB57
S3150800CAC00343DB0A4FF47A7404FB03F30193019BD7
S3150800CAD05C1E0194002B48D0EB6813F0040FF6D1C6
S3150800CAE0AB6823F48063AB602A4B1B682A4CA4FB13
S3150800CAF00343DB0A4FF47A7404FB03F30193019BA7
S3150800CB005C1E0194002B38D00368DC6814F0040F0F
S3150800CB10F5D0596101688B6823F007038B600168BB
S3150800CB208B681A438A601D4B1A6842F480021A60A1
S3150800CB309A6842F480029A600268D368DBB263F4AA
S3150800CB409063D3600268936843F4804393600268F5
S3150800CB50936843F4806393600368FF225A62012353
S3150800CB6043770023037718460FE0FF236B620323FE
S3150800CB70437700220277184607E00368FF225A62C5
S3150800CB800323437700220277184602B030BC704769
S3150800CB900220704738000020D34D6210003C014047
S3150800CBA07047000010B504460368DB6813F4806F0D
S3150800CBB006D1084B4FF480025A610123637710BDF2
S3150800CBC0FFF7EEFF2268D368DBB263F49063D360A5
S3150800CBD0EFE700BF003C01402DE9F04782B08146EF
S3150800CBE00F4616461D46FDF7E3FC0A9B2B44A3EBAE
S3150800CBF00008FDF7DDFC82462D4B1B68C3F3CB33DB
S3150800CC0008FB03F30193D9F800309C6837EA04025D
S3150800CC100CBF4FF0010C4FF0000CB44544D0B5F1F1
S3150800CC20FF3FF2D0FDF7C4FCA0EB0A00404507D24F
S3150800CC30019B002B08BF9846019B013B0193E2E745
S3150800CC40D9F80020536823F0E0035360D9F804307C
S3150800CC50B3F5827F0CD0D9F82830B3F5005F16D02B
S3150800CC60012389F85130002389F8503003201CE04D
S3150800CC70D9F80830B3F5004F02D0B3F5806FEAD182
S3150800CC80D9F80020136823F040031360E3E7D9F8C6
S3150800CC900020136823F400531360D9F800201368A2
S3150800CCA043F400531360DBE7002002B0BDE8F087C9
S3150800CCB03800002010B584B00446164B1868164B89
S3150800CCC0A3FB0030400D4FF47A7303FB00F003908A
S3150800CCD06368B3F5827F0BD0039BBBB1039B013B13
S3150800CCE0039323689B6813F0800FF5D100200EE0AC
S3150800CCF000920B46002280212046FFF76DFF30B1D7
S3150800CD00636D43F020036365032000E0002004B050
S3150800CD1010BD00BF38000020819F5E1610B582B096
S3150800CD2004460B464168B1F5827F09D0009200227D
S3150800CD3001212046FFF750FF002831D102B010BD6F
S3150800CD408168B1F5004F02D0B1F5806F0CD120682B
S3150800CD50016821F0400101606168B1F5827FE5D183
S3150800CD60A168B1F5806F0DD000920022802120467F
S3150800CD70FFF732FF0028E1D0636D43F020036365B7
S3150800CD800320DBE70092002201212046FFF724FF5B
S3150800CD900028D3D0636D43F0200363650320CDE7F5
S3150800CDA0636D43F0200363650320C7E700285AD064
S3150800CDB010B50446436A33B94368B3F5827F05D094
S3150800CDC00023C36102E00023036143610023A362D9
S3150800CDD094F85130002B40D0022384F85130226851
S3150800CDE0136823F0400313602268636803F48273B0
S3150800CDF0A16801F404410B43E16801F400610B43A7
S3150800CE00216901F002010B43616901F001010B433D
S3150800CE10A16901F400710B43E16901F038010B4384
S3150800CE20216A01F080010B43A16A01F400510B430A
S3150800CE3013602168638B03F00403626A02F0100230
S3150800CE4013434B602268D36923F40063D36100203F
S3150800CE506065012384F8513010BD84F850302046AF
S3150800CE60FDF7A4F9B8E7012070472DE9F04182B033
S3150800CE701D4690F85030012B00F0CE8004468846B7
S3150800CE801746012380F85030FDF792FB064694F8C2
S3150800CE905100C0B2012840F0B180B8F1000F00F08F
S3150800CEA0AE80002F00F0AB80032384F851300023B6
S3150800CEB06365C4F83080A786E786A363A387E387FC
S3150800CEC063642364A368B3F5004F35D023681A68F2
S3150800CED012F0400F03D11A6842F040021A60E36864
S3150800CEE0B3F5006F33D063680BB1012F0AD12368FD
S3150800CEF0226B12781A73236B01332363E38E013B8B
S3150800CF009BB2E386E38E9BB2002B5FD1324629465D
S3150800CF102046FFF7CFFE08B120236365A36833B91F
S3150800CF2001932368DA6801929B680193019B606DFF
S3150800CF30003818BF012062E02268136823F0400316
S3150800CF4013602268136843F480431360BEE763687E
S3150800CF500BB1012F0AD12368226B1288DA60236B82
S3150800CF6002332363E38E013B9BB2E386E38E9BB2D7
S3150800CF7063B9CBE7FDF71CFB801BA84216D3B5F1B6
S3150800CF80FF3F45D1E38E9BB2002BBFD023689A683A
S3150800CF9012F0020FEED0226B1288DA60236B02338E
S3150800CFA02363E38E013B9BB2E386EBE7002DE9D1D1
S3150800CFB0032024E0FDF7FCFA801BA8421AD3B5F13A
S3150800CFC0FF3F27D1E18E89B200299FD023689A684E
S3150800CFD012F0020FEED0226B12781A73236B01330C
S3150800CFE02363B4F836C00CF1FF3C1FFA8CFCA4F896
S3150800CFF036C0E7E7002DE5D1032000E00220012333
S3150800D00084F85130002384F8503002B0BDE8F0812E
S3150800D0100320F4E70320F2E70220F6E72DE9F043C0
S3150800D02083B01F460A9D90F85030012B00F00E8100
S3150800D030044688469146012380F85030FDF7B8FA31
S3150800D040064694F85100C0B201280BD06368B3F5C0
S3150800D050827F40F0E380A368002B40F0E980042833
S3150800D06040F0E880B8F1000F00F0E680B9F1000F53
S3150800D07000F0E480002F00F0E38094F85130DBB232
S3150800D080042B1CBF052384F8513000236365C4F8BC
S3150800D0903890E787A787C4F83080E786A786236491
S3150800D0A0636423681A6812F0400F03D11A6842F0C5
S3150800D0B040021A60E368B3F5006F12D063680BB1DB
S3150800D0C0012F0AD12368226B12781A73236B013356
S3150800D0D02363E38E013B9BB2E38601274FF00008EA
S3150800D0E067E063680BB1012F0AD12368226B1288A7
S3150800D0F0DA60236B02332363E38E013B9BB2E3863C
S3150800D10001274FF000081BE02268936813F001031B
S3150800D1100DD0E18F89B251B1D168A26B1180A26B93
S3150800D1200232A263E28F013A92B2E2871F46FDF706
S3150800D1303FFA801BA84203D3B5F1FF3F40F0828037
S3150800D140E38E9BB21BB9E38F9BB2002B52D02368A8
S3150800D1509A6812F0020FD7D0E28E92B2002AD3D084
S3150800D160002FD1D0226B1288DA60236B0233236337
S3150800D170E38E013B9BB2E3864746C5E72268936880
S3150800D18013F001030DD0E18F89B251B1D168A26BBA
S3150800D1901170A26B0132A263E28F013A92B2E28762
S3150800D1A01F46FDF705FA831BAB421FD3B5F1FF3FB8
S3150800D1B04AD1E38E9BB213B9E38F9BB2D3B12368EE
S3150800D1C09A6812F0020FD9D0E28E92B2002AD5D010
S3150800D1D0012FD3D1226B12781A73236B0133236381
S3150800D1E0E38E013B9BB2E3864746C7E7002DE0D1B5
S3150800D1F0032014E0324629462046FFF75BFD48B96E
S3150800D200A36863B901932368DA6801929B6801935E
S3150800D210019B04E020236365012000E0022001232E
S3150800D22084F85130002384F8503003B0BDE8F08309
S3150800D2300220F4E70220F2E70120F0E70120EEE7FA
S3150800D2400120ECE70320EAE70320E8E70220ECE701
S3150800D25038B590F85030012B61D00446012380F888
S3150800D260503090F85150EDB29D4252D1002951D01C
S3150800D270002A4FD0032380F8513000234365016309
S3150800D2808286C2868363436403648387C38783680D
S3150800D290B3F5004F2AD0A36C224A1A64A36C224A1B
S3150800D2A0DA63A36C214ADA64A36C00221A65E38E5A
S3150800D2B022689BB20C32216BA06CFEF731F901464D
S3150800D2C0F8B923681A6812F0400F03D11A6842F0B9
S3150800D2D040021A602268536843F0200353602268AC
S3150800D2E0536843F0020353600D4613E0026813685F
S3150800D2F023F0400313600268136843F48043136005
S3150800D300C9E7636D43F010036365012384F8513060
S3150800D31000E00225002384F85030284638BD02254F
S3150800D320FBE700BF85D40008CBD40008A9D40008C1
S3150800D33038B5044690F85000012800F09480012082
S3150800D34084F8500094F85100C0B2012808D06568E6
S3150800D350B5F5827F78D1A568002D7AD104287AD1CF
S3150800D36000297AD0002A7AD0002B7AD094F8510076
S3150800D370C0B204281CBF052084F85100002060654F
S3150800D3802163A386E386A263A387E3872064606498
S3150800D39094F85130DBB2042B1CD0E36C334A1A6480
S3150800D3A0E36C334ADA63E36C324ADA64E36C0022EC
S3150800D3B01A65E38F21689BB2A26B0C31E06CFEF70D
S3150800D3C0AFF870B1636D43F010036365012084F80C
S3150800D3D051003AE0E36C284A1A64E36C274ADA6398
S3150800D3E0E1E72268536843F001035360A26C002307
S3150800D3F01364A26CD363A26CD364A26C1365E38E28
S3150800D40022689BB20C32216BA06CFEF789F898B99A
S3150800D41023681A6812F0400F03D11A6842F04002D6
S3150800D4201A602268536843F02003536022685368E1
S3150800D43043F00203536008E0636D43F0100363652D
S3150800D440012084F8510000E00220002384F85030BF
S3150800D45038BD0220F9E70220F7E70120F5E70120A9
S3150800D460F3E70120F1E70220F2E700BF9DD40008A8
S3150800D470A9D50008A9D4000891D400083BD500080E
S3150800D4807047704708B5806BFFF7FBFF08BD70470C
S3150800D49008B5806BFFF7FBFF08BD704708B5806BC2
S3150800D4A0FFF7FBFF08BD704708B5806B0268536835
S3150800D4B023F003035360436D43F0100343650123D0
S3150800D4C080F85130FFF7EFFF08BD30B583B0054649
S3150800D4D0846BFDF76DF82B681B6813F4807F23D1E6
S3150800D4E0024621684B6823F020034B6021684B688D
S3150800D4F023F002034B6064212046FFF7DBFB18B1DB
S3150800D500636D43F020036365A36833B90193236809
