S00F000056335F463431322E7372656350
S315080080000000042059900008DD980008E39800084D
S31508008010E9980008EF980008F598000800000000A5
S31508008020000000000000000000000000FB980008A7
S31508008030099900080000000017990008259900080A
S31508008040A9900008A9900008A9900008259A000898
S31508008050A9900008A9900008A9900008A99000080E
S3150800806031990008A9900008A9900008A99000086D
S31508008070A9900008A9900008A9900008A9900008EE
S31508008080A9900008A9900008A9900008A9900008DE
S31508008090B1990008A9900008A9900008419900081C
S315080080A0A9900008A9900008A9900008A9900008BE
S315080080B0119A0008A9900008A9900008A99000083C
S315080080C0A9900008A9900008A9900008A99000089E
S315080080D0A9900008A9900008C5990008A990000869
S315080080E0A9900008A9900008A9900008A99000087E
S315080080F0A9900008A9900008A9900008A99000086E
S3150800810000000000A9900008A9900008A99000089E
S315080081100000000000000000A9900008A9900008CF
S31508008120ED990008A9900008819900089999000816
S31508008130A9900008A9900008A9900008A99000082D
S31508008140A9900008A9900008A9900008A99000081D
S31508008150A9900008A9900008A9900008D9990008D4
S31508008160A9900008A990000800000000000000007F
S3150800817000000000000000000000000000000000F1
S31508008180A9900008A990000800000000000000005F
S31508008190A9900008A990000800000000000000004F
S315080081A000000000000000000000000000000000C1
S315080081B0A99000080000000000000000A99000082F
S30D080081C0A9900008EE11AA556A
S315080081D010B5054C237833B9044B13B10448AFF3F3
S315080081E000800123237010BDC00F0020000000008E
S315080081F018A7030808B5034B1BB103490348AFF397
S31508008200008008BD00000000C40F002018A703085E
S3150800821010F8012B11F8013B012A28BF9A42F7D022
S31508008220D01A7047034613F8012B002AFBD1181AF7
S315080082300138704700000000000000000000000040
S3150800824001F0FF01102A2BDB10F0070F08D010F8F9
S31508008250013B013A8B422DD010F0070F42B3F6D1FD
S31508008260F0B441EA012141EA014122F007047FF016
S3150800827000070023F0E80256083C85EA010586EA6D
S31508008280010685FA47F5A3FA87F586FA47F6A5FAA9
S3150800829087F68EB9EED1F0BC01F0FF0102F00702B5
S315080082A032B110F8013B013A83EA010313B1F8D160
S315080082B00020704701387047002D06BF3546033841
S315080082C0073815F0010F07D1013015F4807F02BF7A
S315080082D0013015F4C03F0130F0BC0138704700BFCB
S315080082E081F0004102E000BF83F0004330B54FEA59
S315080082F041044FEA430594EA050F08BF90EA020FC6
S315080083001FBF54EA000C55EA020C7FEA645C7FEA58
S31508008310655C00F0E2804FEA5454D4EB5555B8BF7B
S315080083206D420CDD2C4480EA020281EA030382EAEC
S31508008330000083EA010180EA020281EA0303362D7E
S3150800834088BF30BD11F0004F4FEA01314FF4801C51
S315080083504CEA113102D0404261EB410113F0004F63
S315080083604FEA03334CEA133302D0524263EB43031A
S3150800837094EA050F00F0A780A4F10104D5F1200EB8
S315080083800DDB02FA0EFC22FA05F2801841F1000113
S3150800839003FA0EF2801843FA05F359410EE0A5F1E7
S315080083A020050EF1200E012A03FA0EFC28BF4CF018
S315080083B0020C43FA05F3C01851EBE37101F00045CE
S315080083C007D54FF0000EDCF1000C7EEB00006EEBDB
S315080083D00101B1F5801F1BD3B1F5001F0CD3490865
S315080083E05FEA30004FEA3C0C04F101044FEA4452BC
S315080083F012F5800F80F09A80BCF1004F08BF5FEA43
S31508008400500C50F1000041EB045141EA050130BD22
S315080084105FEA4C0C404141EB0101013C28BFB1F534
S31508008420801FE9D291F0000F04BF01460020B1FA7F
S3150800843081F308BF2033A3F10B03B3F120020CDA52
S315080084400C3208DD02F1140CC2F10C0201FA0CF030
S3150800845021FA02F10CE002F11402D8BFC2F1200C95
S3150800846001FA02F120FA0CFCDCBF41EA0C0190404B
S31508008470E41AA2BF01EB0451294330BD6FEA040494
S315080084801F3C1CDA0C340EDC04F11404C4F120027F
S3150800849020FA04F001FA02F340EA030021FA04F391
S315080084A045EA030130BDC4F10C04C4F1200220FAE8
S315080084B002F001FA04F340EA0300294630BD21FA26
S315080084C004F0294630BD94F0000F83F4801306BFEC
S315080084D081F480110134013D4EE77FEA645C18BFE0
S315080084E07FEA655C29D094EA050F08BF90EA020F77
S315080084F005D054EA000C04BF1946104630BD91EA6F
S31508008500030F1EBF0021002030BD5FEA545C05D171
S315080085104000494128BF41F0004130BD14F58004B0
S315080085203CBF01F5801130BD01F0004545F0FE4124
S3150800853041F470014FF0000030BD7FEA645C1ABF59
S31508008540194610467FEA655C1CBF0B46024650EA90
S31508008550013406BF52EA033591EA030F41F40021BC
S3150800856030BD00BF90F0000F04BF0021704730B542
S315080085704FF4806404F132044FF000054FF0000117
S3150800858050E700BF90F0000F04BF0021704730B5D8
S315080085904FF4806404F1320410F0004548BF4042AD
S315080085A04FF000013EE700BF42004FEAE2014FEA02
S315080085B031014FEA02701FBF12F07F4393F07F4FDD
S315080085C081F06051704732F07F4208BF704793F0E0
S315080085D07F4F04BF41F40021704730B54FF46074F3
S315080085E001F0004521F000411CE700BF50EA0102F6
S315080085F008BF704730B54FF000050AE050EA01029F
S3150800860008BF704730B511F0004502D5404261EB0E
S3150800861041014FF4806404F132045FEA915C3FF44F
S31508008620D8AE4FF003025FEADC0C18BF03325FEAEC
S31508008630DC0C18BF033202EBDC02C2F1200300FA9D
S3150800864003FC20FA02F001FA03FE40EA0E0021FAC2
S3150800865002F11444BDE600BF70B54FF0FF0C4CF4B0
S31508008660E06C1CEA11541DBF1CEA135594EA0C0F62
S3150800867095EA0C0F00F0DEF82C4481EA030621EA9D
S315080086804C5123EA4C5350EA013518BF52EA0335D8
S3150800869041F4801143F4801338D0A0FB02CE4FF08A
S315080086A00005E1FB02E506F00042E0FB03E54FF0BA
S315080086B00006E1FB03569CF0000F18BF4EF0010EB2
S315080086C0A4F1FF04B6F5007F64F5407404D25FEAAE
S315080086D04E0E6D4146EB060642EAC62141EA555161
S315080086E04FEAC52040EA5E504FEACE2EB4F1FD0CA3
S315080086F088BFBCF5E06F1ED8BEF1004F08BF5FEA21
S31508008700500E50F1000041EB045170BD06F00046D2
S3150800871046EA010140EA020081EA0301B4EB5C047F
S31508008720C2BFD4EB0C0541EA045170BD41F4801177
S315080087304FF0000E013C00F3AB8014F1360FDEBF9C
S31508008740002001F0004170BDC4F10004203C35DA78
S315080087500C341BDC04F11404C4F1200500FA05F3FB
S3150800876020FA04F001FA05F240EA020001F000429C
S3150800877021F0004110EBD37021FA04F642EB060112
S315080087805EEA430E08BF20EAD37070BDC4F10C043C
S31508008790C4F1200500FA04F320FA05F001FA04F200
S315080087A040EA020001F0004110EBD37041F10001EC
S315080087B05EEA430E08BF20EAD37070BDC4F12005F7
S315080087C000FA05F24EEA020E20FA04F301FA05F25F
S315080087D043EA020321FA04F001F0004121FA04F207
S315080087E020EA020000EBD3705EEA430E08BF20EAD7
S315080087F0D37070BD94F0000F0FD101F00046400011
S3150800880041EB010111F4801F08BF013CF7D041EA92
S31508008810060195F0000F18BF704703F00046520096
S3150800882043EB030313F4801F08BF013DF7D043EA67
S315080088300603704794EA0C0F0CEA135518BF95EA1D
S315080088400C0F0CD050EA410618BF52EA4306D1D1A4
S3150800885081EA030101F000414FF0000070BD50EAC3
S31508008860410606BF1046194652EA430619D094EA4D
S315080088700C0F02D150EA013613D195EA0C0F05D137
S3150800888052EA03361CBF104619460AD181EA03018B
S3150800889001F0004141F0FE4141F470014FF0000043
S315080088A070BD41F0FE4141F4780170BD70B54FF0DE
S315080088B0FF0C4CF4E06C1CEA11541DBF1CEA13555E
S315080088C094EA0C0F95EA0C0F00F0A7F8A4EB050440
S315080088D081EA030E52EA03354FEA013100F0888037
S315080088E04FEA03334FF0805545EA131343EA126300
S315080088F04FEA022245EA111545EA10654FEA0026B5
S315080089000EF000419D4208BF964244F1FD0404F56D
S31508008910407402D25B084FEA3202B61A65EB0305C9
S315080089205B084FEA32024FF480104FF4002CB6EB86
S31508008930020E75EB030E22BFB61A754640EA0C0006
S315080089405B084FEA3202B6EB020E75EB030E22BF46
S31508008950B61A754640EA5C005B084FEA3202B6EB87
S31508008960020E75EB030E22BFB61A754640EA9C0046
S315080089705B084FEA3202B6EB020E75EB030E22BF16
S31508008980B61A754640EADC0055EA060E18D04FEAD4
S31508008990051545EA16754FEA06164FEAC30343EA74
S315080089A052734FEAC2025FEA1C1CC0D111F4801F41
S315080089B00BD141EA00014FF000004FF0004CB6E73A
S315080089C011F4801F04BF01430020B4F1FD0C88BFD9
S315080089D0BCF5E06F3FF6AFAEB5EB030C04BFB6EBE4
S315080089E0020C5FEA500C50F1000041EB045170BDD7
S315080089F00EF0004E4EEA113114EB5C04C2BFD4EB04
S31508008A000C0541EA045170BD41F480114FF0000E87
S31508008A10013C90E645EA060E8DE60CEA135594EA03
S31508008A200C0F08BF95EA0C0F3FF43BAF94EA0C0F06
S31508008A300AD150EA01347FF434AF95EA0C0F7FF47B
S31508008A4025AF104619462CE795EA0C0F06D152EACF
S31508008A5003353FF4FDAE1046194622E750EA4106B3
S31508008A6018BF52EA43067FF4C5AE50EA41047FF4C4
S31508008A700DAF52EA43057FF4EBAE12E74FF0FF3C29
S31508008A8006E000BF4FF0010C02E000BF4FF0010CFA
S31508008A904DF804CD4FEA410C7FEA6C5C4FEA430C73
S31508008AA018BF7FEA6C5C1BD001B050EA410C0CBFC2
S31508008AB052EA430C91EA030F02BF90EA020F002024
S31508008AC0704710F1000F91EA030F58BF994208BF8B
S31508008AD090422CBFD8176FEAE37040F00100704748
S31508008AE04FEA410C7FEA6C5C02D150EA013C07D19F
S31508008AF04FEA430C7FEA6C5CD6D152EA033CD3D0EA
S31508008B005DF8040B704700BF8446104662468C46E3
S31508008B101946634600E000BF01B5FFF7B7FF002816
S31508008B2048BF10F1000F01BD4DF808EDFFF7F4FF3F
S31508008B300CBF012000205DF808FB00BF4DF808EDCA
S31508008B40FFF7EAFF34BF012000205DF808FB00BFED
S31508008B504DF808EDFFF7E0FF94BF012000205DF80F
S31508008B6008FB00BF4DF808EDFFF7CEFF94BF0120C4
S31508008B7000205DF808FB00BF4DF808EDFFF7C4FFBD
S31508008B8034BF012000205DF808FB00BF4FEA410C06
S31508008B907FEA6C5C02D150EA013C0AD14FEA430CE9
S31508008BA07FEA6C5C02D152EA033C02D14FF0000026
S31508008BB070474FF0010070474FEA410212F5001264
S31508008BC015D211D56FF47873B3EB625212D94FEA06
S31508008BD0C12343F0004343EA505311F0004F23FAF0
S31508008BE002F018BF404270474FF00000704750EA45
S31508008BF0013005D111F0004008BF6FF00040704702
S31508008C004FF00000704700BF4A0011D212F500125B
S31508008C1011D20DD56FF47873B3EB62520ED44FEAC6
S31508008C20C12343F0004343EA505323FA02F0704746
S31508008C304FF00000704750EA013002D14FF0FF3084
S31508008C4070474FF0000070474FEA4102B2F1E04327
S31508008C5024BFB3F5001CDCF1FE5C0DD901F0004C15
S31508008C604FEAC0024CEA5070B2F1004F40EB830065
S31508008C7008BF20F00100704711F0804F21D113F191
S31508008C803872BCBF01F00040704741F480114FEACA
S31508008C905252C2F11802C2F1200C10FA0CF320FA53
S31508008CA002F018BF40F001004FEAC1234FEAD32370
S31508008CB003FA0CFC40EA0C0023FA02F34FEA4303DA
S31508008CC0CCE77FEA625307D150EA01331EBF4FF063
S31508008CD0FE4040F44000704701F0004040F0FE407E
S31508008CE040F40000704700BF53B94AB9002908BFCD
S31508008CF000281CBF4FF0FF314FF0FF3000F0AAB933
S31508008D00ADF1080C6DE904CE00F03CF8DDF804E09E
S31508008D10DDE9022304B0704738B500220023044673
S31508008D200D46FFF70BFF28B920462946BDE838400F
S31508008D3000F00AB8204605F1004100F005F8404267
S31508008D4061EB410138BD00BFD0B50C4B0022064689
S31508008D500F46FFF781FCFFF757FF0446FFF702FCB3
S31508008D60074B0022FFF778FC02460B463046394689
S31508008D70FFF7BAFAFFF748FF2146D0BD0000F03DDD
S31508008D800000F0412DE9F047089D04468E46002B69
S31508008D904DD18A42944669D9B2FA82F252B101FAA1
S31508008DA002F3C2F1200120FA01F10CFA02FC41EAB1
S31508008DB0030E94404FEA1C48210CBEFBF8F61FFA36
S31508008DC08CF708FB16E341EA034306FB07F19942D1
S31508008DD00AD91CEB030306F1FF3080F01F81994284
S31508008DE040F21C81023E63445B1AA4B2B3FBF8F05E
S31508008DF008FB103344EA034400FB07F7A7420AD9E5
S31508008E001CEB040400F1FF3380F00A81A74240F20C
S31508008E1007816444023840EA0640E41B00261DB177
S31508008E20D4400023C5E900433146BDE8F0878B42AC
S31508008E3009D9002D00F0EF800026C5E9000130466B
S31508008E403146BDE8F087B3FA83F6002E4AD18B4245
S31508008E5002D3824200F2F980841A61EB03030120EF
S31508008E609E46002DE0D0C5E9004EDDE702B9FFDEDB
S31508008E70B2FA82F2002A40F09280A1EB0C014FEA86
S31508008E801C471FFA8CFE0126200CB1FBF7F307FBE3
S31508008E90131140EA01410EFB03F0884208D91CEB86
S31508008EA0010103F1FF3802D2884200F2CB80434623
S31508008EB0091AA4B2B1FBF7F007FB101144EA014402
S31508008EC00EFB00FEA64508D91CEB040400F1FF3191
S31508008ED002D2A64500F2BB800846A4EB0E0440EA7F
S31508008EE003409CE7C6F12007B34022FA07FC4CEA88
S31508008EF0030C20FA07F401FA06F31C43F9404FEA7B
S31508008F001C4900FA06F3B1FBF9F8200C1FFA8CFE8F
S31508008F1009FB181140EA014108FB0EF0884202FAE3
S31508008F2006F20BD91CEB010108F1FF3A80F08880A4
S31508008F30884240F28580A8F102086144091AA4B261
S31508008F40B1FBF9F009FB101144EA014100FB0EFEE2
S31508008F508E4508D91CEB010100F1FF346CD28E4511
S31508008F606AD90238614440EA0840A0FB0294A1EBA2
S31508008F700E01A142C846A64656D353D05DB1B3EBFF
S31508008F80080261EB0E0101FA07F722FA06F3F1402F
S31508008F901F43C5E9007100263146BDE8F087C2F1D6
S31508008FA02003D8400CFA02FC21FA03F3914001434E
S31508008FB04FEA1C471FFA8CFEB3FBF7F007FB103687
S31508008FC00B0C43EA064300FB0EF69E4204FA02F433
S31508008FD008D91CEB030300F1FF382FD29E422DD986
S31508008FE0023863449B1B89B2B3FBF7F607FB1633BB
S31508008FF041EA034106FB0EF38B4208D91CEB01013B
S3150800900006F1FF3816D28B4214D9023E6144C91ABA
S3150800901046EA004638E72E46284605E70646E3E6CA
S315080090201846F8E64B45A9D2B9EB020864EB0C0ED4
S315080090300138A3E74646EAE7204694E74046D1E7E3
S31508009040D0467BE7023B614432E7304609E7644491
S31508009050023842E7704700BFDFF834D00D480E49A2
S315080090600E4A002302E0D458C4500433C4188C4274
S31508009070F9D30B4A0B4C002301E013600432A242D9
S31508009080FBD300F0A1FD2DF007F800F034F9704786
S315080090900000042000000020800F002078D4030878
S315080090A0C00F002040700020FEE7000080B400AF2B
S315080090B0034B044A9A6000BFBD465DF8047B7047BF
S315080090C000ED00E00080000880B500AF084B5B6F3C
S315080090D0074A43F080735367FFF7E8FF00F086FD01
S315080090E001F086FD00F04EF872B600BF00BF80BDE5
S315080090F00038024080B500AF01F0E6F801F0B4F898
S3150800910000F07CFE00F0E4FF01F02CFA01F0BAFA58
S3150800911001F0EEFA01F08AFC01F0B2FC01F00EFC57
S315080091200FF0A0FB0FF02AFD23F0AAFD00F0BEF811
S3150800913011F086FA0CF088F900F010F823F096FD85
S315080091402BF0A8FF0DF008FA08F010F920F05EFBE6
S3150800915062B600BF2AF05EFB00BF80BD80B582B054
S3150800916000AF00237B6003F055FD1AF093FC03461D
S315080091707B607B68002B01D000F0B6F800BF08378B
S31508009180BD4680BD80B5A4B000AF07F15C033422AC
S31508009190002118462CF0C2FF07F1480300221A6086
S315080091A05A609A60DA601A6107F10C033C220021C2
S315080091B018462CF0B3FF04F0A1F90023BB60384B26
S315080091C01B6C374A43F080531364354B1B6C03F012
S315080091D08053BB60BB6800237B60324B1B68314AF7
S315080091E043F4404313602F4B1B6803F440437B60F2
S315080091F07B680D23FB654FF480333B6601237B6652
S3150800920001233B670123BB6602237B674FF4800378
S31508009210BB670423FB676423C7F880300223C7F8BB
S3150800922084300223C7F888300223C7F88C3007F148
S315080092305C03184604F074FD0346002B01D000F0C9
S3150800924053F80F23BB640223FB6400233B654FF4EA
S3150800925080537B650023BB6507F148030321184645
S3150800926004F070F90346002B01D000F03DF80823FE
S31508009270FB604FF48073BB6207F10C03184604F0D9
S3150800928081FB0346002B01D000F02EF804F040FACB
S315080092900346054A136000BF9037BD4680BD00BF30
S315080092A00038024000700040DC0F002080B500AF97
S315080092B041F270720A490B4807F082FD094807F027
S315080092C007FE03200FF094F80CF0A4F90CF0E4F96B
S315080092D00346194603200FF081FA00BF80BD00BF80
S315080092E0E00F00205027002080B400AF00BFBD4625
S315080092F05DF8047B704780B500AFFFF7E5FEFFF722
S31508009300F9FE00F003F800F0D1F9FEE780B500AFEA
S315080093100CF068F90346024A136000BF80BD00BF1F
S315080093205C27002080B500AF8C4B1B6801211846CE
S315080093300CF01CF90346002B00F0A1810CF052F941
S315080093400346864A1360864B1B680133844A1360BA
S31508009350834B1B68312B09D9814B00221A60814B3C
S315080093601B68012B02D1804B01221A607F4B1B68B8
S3150800937001337E4A13607D4B1B68632B09D97B4BEF
S3150800938000221A607A4B1B68012B02D1794B012205
S315080093901A60794B1B680133774A1360764B1B6852
S315080093A0022B09D9744B00221A60744B1B68012BD7
S315080093B002D1734B01221A60724B1B680133714A42
S315080093C01360704B1B68002B09D06E4B00221A6085
S315080093D06D4B1B68012B02D16C4B01221A606C4B3A
S315080093E01B6801336A4A1360694B1B68B3F57A7FB9
S315080093F009D3674B00221A60664B1B68012B02D102
S31508009400654B01221A60654B1B680133634A13607A
S31508009410624B1B68072B09D9604B00221A60604B08
S315080094201B68012B02D15F4B01221A605E4B1B6839
S3150800943001335D4A13605C4B1B68632B09D95A4B91
S3150800944000221A60594B1B68012B02D1584B012286
S315080094501A60584B1B680133564A1360554B1B68F4
S31508009460002B09D0534B00221A60534B1B68012B63
S3150800947002D1524B01221A60514B1B680133504AE4
S3150800948013604F4B1B68132B02D94D4B00221A60F1
S315080094904C4B1B6801334B4A13604A4B1B6842F21C
S315080094A00F72934209D9474B00221A60464B1B6834
S315080094B0012B02D1454B01221A60454B1B6801332B
S315080094C0434A1360424B1B68632B09D9404B002261
S315080094D01A60404B1B68012B02D13F4B01221A60D0
S315080094E03E4B1B6801333D4A13603C4B1B68002BFF
S315080094F009D03A4B00221A60394B1B68012B02D15E
S31508009500384B01221A60384B1B680133364A136000
S31508009510354B1B68B3F5FA6F09D3334B00221A6033
S31508009520324B1B68012B02D1314B01221A602D4B9D
S315080095301B68012B68D12B4B00221A602D4B1B8808
S31508009540002B05D02B4B1B88013B9AB2294B1A805E
S31508009550294B1B88002B57D050E000BF5C27002002
S3150800956060270020000000206427002068270020CC
S31508009570040000206C270020702700200800002027
S3150800958074270020782700200C0000207C27002064
S31508009590802700201000002084270020882700202C
S315080095A0140000208C270020902700201800002097
S315080095B094270020982700201C0000209C270020C4
S315080095C0A0270020A827002020000020AC27002084
S315080095D0B027002024000020B4270020B827002048
S315080095E028000020BC270020CC27002030000020BF
S315080095F0D0270020E4630020E6630020214B1B8867
S31508009600013B9AB21F4B1A801F4B1B6801331E4A37
S3150800961013601D4B1B68B3F57A7F09D31A4B0022DA
S315080096201A601A4B1B68012B02D1194B01221A60CA
S31508009630184B1B680133174A1360164B1B68002B1F
S3150800964009D0144B00221A60134B1B68012B02D158
S31508009650124B01221A60124B1B680133104A136021
S315080096600F4B1B68002B0BD00D4B00221A600D4BBD
S315080096701B68012B04D10C4B01221A6000E000BFC5
S3150800968080BD00BFE6630020C02700202C00002014
S31508009690C4270020D4270020D8270020DC27002054
S315080096A0E027002034000020E427002080B500AF22
S315080096B05D4B1B68012B09D12BF0C2FC0346002B1E
S315080096C004D1594B00221A6021F056FF574B1B68EC
S315080096D0012B04D1554B00221A600CF0A7FB544B02
S315080096E01B68012B15D122F04FFE0346002B10D123
S315080096F0504B1B68002B0CD14F4B1B68002B08D115
S315080097002BF0B0FC2AF046F92BF0B8FC484B0022A7
S315080097101A604A4B1B68012B1CD122F035FE034602
S31508009720002B17D1434B1B68002B03D1424B1B68F8
S31508009730002B0FD02BF096FC3E4B1B68002B02D05B
S315080097402BF07AFA01E02BF043FB2BF097FC3B4B0E
S3150800975000221A603A4B1B68012B04D1384B0022B1
S315080097601A6000F033FF374B1B68012B04D1354BC9
S3150800977000221A6010F07EFF334B1B68012B08D1BC
S31508009780324B1B68002B04D02F4B00221A6023F0A3
S315080097908FFC2F4B1B68012B04D12D4B00221A601E
S315080097A000F068F82B4B1B68012B04D1294B0022CB
S315080097B01A600FF037FA284B1B68012B04D1264B89
S315080097C000221A602BF06CFD244B1B68012B04D178
S315080097D0224B00221A600CF0BDFF214B1B68012B9F
S315080097E004D11F4B00221A600FF0F2FB1D4B1B68B9
S315080097F0012B04D11B4B00221A6000F003FA1A4B06
S315080098001B68012B0AD1184B00221A60174803F06F
S3150800981065FE0346002B01D0FFF766FD144B1B6857
S31508009820002B3FF445AFFEE7642700206C27002095
S31508009830AC270020C4480020C8480020B4270020D0
S31508009840C4270020742700207C270020D02700206A
S31508009850842700208C270020942700209C2700209E
S31508009860DC270020E4270020A4270020FC2800206D
S31508009870C827002080B500AF4FF40051024803F016
S31508009880FAFD00BF80BD00BF0008024080B483B067
S3150800989000AF00237B60104B5B6C0F4A43F4804398
S315080098A053640D4B5B6C03F480437B607B68002339
S315080098B03B60094B1B6C084A43F080531364064B04
S315080098C01B6C03F080533B603B6800BF0C37BD46FA
S315080098D05DF8047B704700BF0038024080B400AFD3
S315080098E0FEE780B400AFFEE780B400AFFEE780B4C1
S315080098F000AFFEE780B400AFFEE780B400AF00BF5C
S31508009900BD465DF8047B704780B400AF00BFBD4616
S315080099105DF8047B704780B400AF00BFBD465DF8B4
S31508009920047B704780B500AF01F0B4F900BF80BD75
S3150800993080B500AF4FF4806003F0B8FD00BF80BD6E
S3150800994080B500AF4FF4807003F0B0FD00BF80BD56
S3150800995080B582B000AF0346FB80FB88B3F5807FF5
S3150800996003D0FB88B3F5806F05D1FFF70BFC01F038
S31508009970B1F903F0D7FD00BF0837BD4680BD00002A
S3150800998080B500AF034802F087FE3A2002F07BFD5F
S3150800999000BF80BDF829002080B500AF034802F05B
S315080099A07BFE3B2002F06FFD00BF80BD582A0020D9
S315080099B080B500AF024802F008FA00BF80BD00BFBC
S315080099C09428002080B500AF01200EF035FD262032
S315080099D002F059FD00BF80BD80B500AF03200EF030
S315080099E02BFD472002F04FFD00BF80BD80B500AFBC
S315080099F0064802F051FE0EF04BFFFFF793FC0BF002
S31508009A0043FD382002F03FFD00BF80BD342800200A
S31508009A1080B500AF024806F0C3F900BF80BD00BF9D
S31508009A20002B002080B500AF034804F0EFFF0320A9
S31508009A3002F029FD00BF80BD0829002080B400AFD0
S31508009A4001231846BD465DF8047B704780B582B091
S31508009A5000AF786039602CF019FB034616221A60AD
S31508009A604FF0FF3318460837BD4680BD80B582B033
S31508009A7000AF78604FF0FF317868FFF7E7FFFEE741
S31508009A8080B586B000AFF860B9607A6000237B6164
S31508009A900AE0AFF300800146BB685A1CBA60CAB236
S31508009AA01A707B6901337B617A697B689A42F0DBBD
S31508009AB07B6818461837BD4680BD80B586B000AFAE
S31508009AC0F860B9607A6000237B6109E0BB685A1CBC
S31508009AD0BA601B781846AFF300807B6901337B6157
S31508009AE07A697B689A42F1DB7B6818461837BD4667
S31508009AF080BD80B483B000AF78604FF0FF3318465E
S31508009B000C37BD465DF8047B704780B483B000AF60
S31508009B10786039603B684FF400525A600023184653
S31508009B200C37BD465DF8047B704780B483B000AF40
S31508009B307860012318460C37BD465DF8047B7047EC
S31508009B4080B485B000AFF860B9607A600023184623
S31508009B501437BD465DF8047B7047000080B586B0B3
S31508009B6000AF7860144A154BD31A7B617B693B6159
S31508009B70134B1B68002B02D1114B124A1A60104B6B
S31508009B801A687B6813443A699A4207D22CF07EFA1F
S31508009B9003460C221A604FF0FF3309E0084B1B6896
S31508009BA0FB60074B1A687B681344054A1360FB6819
S31508009BB018461837BD4680BD000004200004000082
S31508009BC0E82700204070002080B400AF064BD3F889
S31508009BD08830054A43F47003C2F8883000BFBD4692
S31508009BE05DF8047B704700BF00ED00E080B500AF6C
S31508009BF000F0FCF800F02EF80021002000F052F8E2
S31508009C0000BF80BD80B500AF00F018F800BF80BD6A
S31508009C1080B400AFBFF34F8F00BF064BDB6803F479
S31508009C20E0620449044B1343CB60BFF34F8F00BF78
S31508009C3000BFFDE700ED00E00400FA0580B400AFC0
S31508009C4000BFBD465DF8047B704780B500AFFFF7DF
S31508009C50DFFF000080B582B000AF00F045F803468C
S31508009C6083F00103DBB2002B13D00C4B0C4A1A60AD
S31508009C7000237B6008E0094A7B681344043300220A
S31508009C801A707B6801337B607B68372BF3D900F049
S31508009C9045F800BF0837BD4680BD00BF800F0020CD
S31508009CA0A2E742CE80B584B000AF78600B46FB7061
S31508009CB00023FB7300F018F80346002B0CD07B68D2
S31508009CC0372B09D8074A7B6813440433FA781A7085
S31508009CD000F024F80123FB73FB7B18461037BD46BA
S31508009CE080BD00BF800F002080B582B000AF002382
S31508009CF0FB71084B1B68084A934206D100F01AF814
S31508009D000346002B01D00123FB71FB79184608375F
S31508009D10BD4680BD800F0020A2E742CE80B500AFC9
S31508009D2000F01EF803461A46014B9A8700BF80BD0D
S31508009D30800F002080B582B000AF0023FB7100F0D1
S31508009D400FF803461A46054B9B8F9A4201D1012309
S31508009D50FB71FB7918460837BD4680BD800F002089
S31508009D6080B483B000AF0023FB801F4B1B68DBB2B7
S31508009D709AB2FB881344FB801B4B1B681B0ADBB299
S31508009D809AB2FB881344FB80174B1B681B0CDBB28B
S31508009D909AB2FB881344FB80134B1B681B0EDBB27D
S31508009DA09AB2FB881344FB8000233B600BE00E4A03
S31508009DB03B68134404331B789AB2FB881344FB8030
S31508009DC03B6801333B603B68372BF0D9FB88DB43A4
S31508009DD0FB80FB880133FB80FB8818460C37BD46A1
S31508009DE05DF8047B704700BF800F002080B400AF89
S31508009DF000BFBD465DF8047B7047000080B588B09B
S31508009E0000AF07F1140300221A605A609A603B1DDE
S31508009E1000221A605A609A60DA60514B514A1A60F9
S31508009E204F4B4FF480325A604D4B00229A604C4B90
S31508009E3001221A614A4B00221A76494B002283F8FE
S31508009E402020474B4FF04052DA62454B4FF01062E4
S31508009E509A62434B4FF40062DA60414B0522DA619D
S31508009E603F4B012283F830203D4B00225A613C4883
S31508009E7000F040FF0346002B01D0FFF735FA002318
S31508009E807B6107F114031946354801F025FB0346A3
S31508009E90002B01D0FFF728FA06237B600123BB605D
S31508009EA00123FB6000233B613B1D19462C4801F04A
S31508009EB073F80346002B01D0FFF716FA07237B60D9
S31508009EC00223BB600123FB6000233B613B1D19464F
S31508009ED0234801F061F80346002B01D0FFF704FA86
S31508009EE008237B600323BB600123FB6000233B61DF
S31508009EF03B1D19461A4801F04FF80346002B01D0BE
S31508009F00FFF7F2F90E237B600423BB600123FB6095
S31508009F1000233B613B1D1946114801F03DF80346F5
S31508009F20002B01D0FFF7E0F909237B600523BB600E
S31508009F300123FB6000233B613B1D1946084801F0DD
S31508009F402BF80346002B01D0FFF7CEF90522064968
S31508009F50034800F013FF00BF2037BD4680BD00BF91
S31508009F60EC270020002001409C46002080B58CB0DC
S31508009F7000AF786007F11C0300221A605A609A60E5
S31508009F80DA601A617B681B684A4A934240F08D8002
S31508009F900023BB61484B5B6C474A43F480735364A8
S31508009FA0454B5B6C03F48073BB61BB6900237B6123
S31508009FB0414B1B6B404A43F0010313633E4B1B6B3B
S31508009FC003F001037B617B6900233B613A4B1B6B02
S31508009FD0394A43F004031363374B1B6B03F004033E
S31508009FE03B613B690023FB60334B1B6B324A43F0F2
S31508009FF002031363304B1B6B03F00203FB60FB6821
S3150800A000C023FB6103233B6200237B6207F11C0329
S3150800A01019462A4803F082F81023FB6103233B62A2
S3150800A02000237B6207F11C031946254803F076F8DE
S3150800A0300323FB6103233B6200237B6207F11C03B6
S3150800A0401946204803F06AF81F4B204A1A601E4B2F
S3150800A05000225A601C4B00229A601B4B0022DA60D1
S3150800A060194B4FF480621A61174B4FF480525A61AC
S3150800A070154B4FF480429A61134B4FF48072DA61A4
S3150800A080114B4FF440321A620F4B00225A620E48A7
S3150800A09002F008FA0346002B01D0FFF725F97B6882
S3150800A0A0094A9A63084A7B68936300BF3037BD46FE
S3150800A0B080BD00BF00200140003802400000024079
S3150800A0C000080240000402403428002010640240C0
S3150800A0D080B500AF384B394A1A60374B0B225A60A5
S3150800A0E0354B00229A60344B0022DA60324B4FF42B
S3150800A0F000221A61304B4FF4E0025A612E4B0022BF
S3150800A1001A762D4B01225A762B4B00229A762A4B29
S3150800A1100022DA76284B00221A77274B00225A7734
S3150800A120254801F01FFA0346002B01D0FFF7DCF89B
S3150800A130234B00229A61224B00229A60204B002270
S3150800A140DA601F4B00221A601D4B00225A601C4B16
S3150800A15000221A611A4B01221A62194B00225A610F
S3150800A160174B0122DA611649134801F0F7FA03463C
S3150800A170002B01D0FFF7B8F80F4801F0CFFB0346D4
S3150800A180002B01D0FFF7B0F802210B4801F0F7FDCC
S3150800A1900346002B01D0FFF7A7F80A4B04229A6062
S3150800A1A0084B00221A75074B08221A61054B002234
S3150800A1B0DA6000BF80BD00BF94280020006400401C
S3150800A1C0BC280020E428002080B58AB000AF78605B
S3150800A1D007F1140300221A605A609A60DA601A615D
S3150800A1E07B681B681D4A934234D100233B611C4B94
S3150800A1F01B6C1B4A43F000731364194B1B6C03F06A
S3150800A20000733B613B690023FB60154B1B6B144ACB
S3150800A21043F002031363124B1B6B03F00203FB604C
S3150800A220FB684FF4C0537B610223BB610023FB61CB
S3150800A23002233B6209237B6207F114031946094886
S3150800A24002F06CFF00220221142002F0E6F8142026
S3150800A25002F0FFF800BF2837BD4680BD0064004005
S3150800A260003802400000024080B582B000AF0023EB
S3150800A2707B60144B1B6B134A43F480031363114B27
S3150800A2801B6B03F480037B607B6800220021382067
S3150800A29002F0C3F8382002F0DCF8002201213A2047
S3150800A2A002F0BBF83A2002F0D4F8002202213B2043
S3150800A2B002F0B3F83B2002F0CCF800BF0837BD46E1
S3150800A2C080BD00BF0038024080B58AB000AF07F1F4
S3150800A2D0140300221A605A609A60DA601A61002331
S3150800A2E03B619B4B1B6B9A4A43F004031363984BE1
S3150800A2F01B6B03F004033B613B690023FB60944B33
S3150800A3001B6B934A43F080031363914B1B6B03F05B
S3150800A3108003FB60FB680023BB608D4B1B6B8C4A7C
S3150800A32043F0010313638A4B1B6B03F00103BB6005
S3150800A330BB6800237B60864B1B6B854A43F0020390
S3150800A3401363834B1B6B03F002037B607B6800235C
S3150800A3503B607F4B1B6B7E4A43F0080313637C4BC1
S3150800A3601B6B03F008033B603B6843F607237B61DE
S3150800A3700123BB610223FB6100233B6207F114033F
S3150800A3801946744802F0CAFE4FF400437B61012364
S3150800A390BB610223FB6100233B6207F114031946E4
S3150800A3A06D4802F0BBFE4FF480537B610123BB610D
S3150800A3B00223FB6100233B6207F114031946674831
S3150800A3C002F0ACFE4FF481637B610023BB6102237C
S3150800A3D0FB6107F1140319465E4802F09FFE41F23D
S3150800A3E010037B610123BB610223FB6100233B62EF
S3150800A3F007F114031946584802F090FE40F201137B
S3150800A4007B610023BB610223FB6107F11403194634
S3150800A410514802F083FE02237B610023BB610223BD
S3150800A420FB6107F1140319464C4802F077FE4FF416
S3150800A43080637B614FF48813BB610223FB6107F1DC
S3150800A44014031946454802F069FE00220021082037
S3150800A45001F0E3FF082001F0FCFF84237B61012360
S3150800A460BB610223FB6100233B6207F11403194613
S3150800A4703A4802F053FE4FF480737B614FF4881319
S3150800A480BB610223FB6107F114031946314802F048
S3150800A49045FE00220021172001F0BFFF172001F01A
S3150800A4A0D8FF4FF400737B610023BB610223FB6175
S3150800A4B007F114031946284802F030FE4FF44063AA
S3150800A4C07B610123BB610223FB6107F11403194673
S3150800A4D0214802F023FE04237B610023BB6102238B
S3150800A4E0FB6107F1140319461D4802F017FE4023C5
S3150800A4F07B611223BB610223FB6103233B620423B6
S3150800A5007B6207F114031946144802F007FE01227C
S3150800A5104FF40041104802F095FF01224FF4805194
S3150800A5200E4802F08FFF002243F60621094802F082
S3150800A53089FF002241F21111074802F083FF002229
S3150800A5408421064802F07EFF00BF2837BD4680BD3D
S3150800A55000380240000802400000024000040240A1
S3150800A560000C024080B500AF164B174A1A60154B0F
S3150800A57000225A60134B7F229A60124BFF22DA6040
S3150800A580104B00221A610F4B00225A610D4B002214
S3150800A5909A610C4803F048FE0346002B01D0FEF7EB
S3150800A5A0A3FE00224FF6FF71064804F06FF9002259
S3150800A5B00021032001F031FF032001F04AFF00BF0C
S3150800A5C080BD00BF082900200028004080B500AFE4
S3150800A5D000221549154803F075FF0022144913484F
S3150800A5E004F075F8104B1A78124B1A700E4B5A78FD
S3150800A5F0104B5A700C4B9A780E4B9A700C4B9A78F3
S3150800A6000C4B1A710A4B1A780A4B5A71084B5A782E
S3150800A610084BDA70064BDB789BB203F5FA639AB2FD
S3150800A620044BDA8000BF80BD2829002008290020B5
S3150800A6303C2900204029002080B584B000AF78600E
S3150800A6407B681B680C4A934212D10023FB600B4BB4
S3150800A6501B6C0A4A43F080531364084B1B6C03F0C7
S3150800A6608053FB60FB6802F049FF054B01221A6024
S3150800A67000BF1037BD4680BD0028004000380240A4
S3150800A6803C0E474280B500AF174B184A1A60164B66
S3150800A6904FF482725A60144B00229A60124B0022C1
S3150800A6A0DA60114B02221A610F4B01225A610E4BD6
S3150800A6B04FF400729A610C4B3022DA610A4B002281
S3150800A6C01A62094B00225A62074B00229A62064B0D
S3150800A6D00122DA62044804F0C7F90346002B01D0C8
S3150800A6E0FEF702FE00BF80BD482900200030014069
S3150800A6F080B500AF174B184A1A60164B4FF4827292
S3150800A7005A60144B00229A60124B0022DA60114BF1
S3150800A71002221A610F4B01225A610E4B4FF4007246
S3150800A7209A610C4B2022DA610A4B00221A62094B05
S3150800A73000225A62074B00229A62064B0122DA620D
S3150800A740044804F091F90346002B01D0FEF7CCFD2E
S3150800A75000BF80BDA02900200038004080B58CB01D
S3150800A76000AF786007F11C0300221A605A609A60ED
S3150800A770DA601A617B681B68684A934240F09780E2
S3150800A7800023BB61664B5B6C654A43F48053536494
S3150800A790634B5B6C03F48053BB61BB6900237B612D
S3150800A7A05F4B1B6B5E4A43F0010313635C4B1B6BE9
S3150800A7B003F001037B617B6900233B61584B1B6BEC
S3150800A7C0574A43F002031363554B1B6B03F002030E
S3150800A7D03B613B693823FB6102233B6200237B62B2
S3150800A7E00323BB620523FB6207F11C0319464D4888
S3150800A7F002F094FC4C4B4D4A1A604B4B4FF0C0622A
S3150800A8005A60494B00229A60474B0022DA60464B51
S3150800A8104FF480621A61444B00225A61424B00226F
S3150800A8209A61414B0022DA613F4B00221A623E4B85
S3150800A83000225A623C4801F035FE0346002B01D03F
S3150800A840FEF752FD7B68384ADA64374A7B689363B9
S3150800A850374B384A1A60364B4FF0C0625A60344B51
S3150800A86040229A60324B0022DA60314B4FF4806204
S3150800A8701A612F4B00225A612D4B00229A612C4BEC
S3150800A8800022DA612A4B00221A62294B00225A62F8
S3150800A890274801F007FE0346002B01D0FEF724FDEA
S3150800A8A07B68234A9A64224A7B68936331E07B6813
S3150800A8B01B68214A93422CD10023FB60184B1B6C62
S3150800A8C0174A43F480431364154B1B6C03F4804307
S3150800A8D0FB60FB680023BB60114B1B6B104A43F0FF
S3150800A8E0020313630E4B1B6B03F00203BB60BB68CA
S3150800A8F04FF46043FB6102233B6200237B62032320
S3150800A900BB620523FB6207F11C031946054802F0E2
S3150800A91005FC00BF3037BD4680BD00BF0030014092
S3150800A9200038024000040240F82900204064024032
S3150800A930582A0020586402400038004080B58EB07E
S3150800A94000AF07F1280300221A605A609A60DA609D
S3150800A95007F1200300221A605A603B1D00221A6084
S3150800A9605A609A60DA601A615A619A611A4B1B4AF0
S3150800A9701A60194B00225A60174B00229A60164B30
S3150800A9804CF25032DA60144B00221A61124B002244
S3150800A9905A61114B00229A610F4805F021F80346C7
S3150800A9A0002B01D0FEF7A0FC30237B6046F2A813EB
S3150800A9B0BB600023FB6000237B613B1D0C2219460C
S3150800A9C0054805F0F5FA0C21034805F021F900BF02
S3150800A9D03837BD4680BD00BFB82A002000080040B1
S3150800A9E080B584B000AF78607B681B680C4A9342D8
S3150800A9F011D10023FB600B4B1B6C0A4A43F004037E
S3150800AA001364084B1B6C03F00403FB60FB680C2102
S3150800AA10054805F035F800BF1037BD4680BD00BFB4
S3150800AA200008004000380240B82A002080B500AF70
S3150800AA30114B124A1A60104B4FF4E1325A600E4B12
S3150800AA4000229A600C4B0022DA600B4B00221A6136
S3150800AA50094B0C225A61084B00229A61064B0022C8
S3150800AA60DA61054805F0B1FD0346002B01D0FEF773
S3150800AA703BFC00BF80BD00BF482B002000440040BF
S3150800AA8080B500AF114B124A1A60104B4FF4E132F1
S3150800AA905A600E4B00229A600C4B0022DA600B4B70
S3150800AAA000221A61094B0C225A61084B00229A614E
S3150800AAB0064B0022DA61054805F087FD0346002BA0
S3150800AAC001D0FEF711FC00BF80BD00BF8C2B002013
S3150800AAD00014014080B58CB000AF786007F11C0304
S3150800AAE000221A605A609A60DA601A617B681B68ED
S3150800AAF03A4A934234D10023BB61394B1B6C384A1E
S3150800AB0043F400331364364B1B6C03F40033BB6108
S3150800AB10BB6900237B61324B1B6B314A43F001034F
S3150800AB2013632F4B1B6B03F001037B617B690C23BB
S3150800AB30FB6102233B6200237B620223BB6207237D
S3150800AB40FB6207F11C031946264802F0E7FA0022C1
S3150800AB500321262001F061FC262001F07AFC38E06A
S3150800AB607B681B68204A934233D100233B611C4B08
S3150800AB705B6C1B4A43F020035364194B5B6C03F070
S3150800AB8020033B613B690023FB60154B1B6B144A92
S3150800AB9043F004031363124B1B6B03F00403FB60BF
S3150800ABA0FB68C023FB6102233B6200237B6202230E
S3150800ABB0BB620823FB6207F11C0319460B4802F027
S3150800ABC0ADFA00220321472001F027FC472001F0B7
S3150800ABD040FC00BF3037BD4680BD00BF0044004082
S3150800ABE000380240000002400014014000080240FC
S3150800ABF080B500AF0E4B1B680D4A43F40073136013
S3150800AC000B4B1B680A4A43F480631360084B1B68A6
S3150800AC10074A43F480731360032001F0F3FB0F2007
S3150800AC2000F008F8FEF732FE0023184680BD00BF84
S3150800AC30003C024080B582B000AF7860124B1A68BB
S3150800AC40124B1B7819464FF47A73B3FBF1F3B2FB38
S3150800AC50F3F3184601F00BFC0346002B01D0012341
S3150800AC600EE07B680F2B0AD8002279684FF0FF3078
S3150800AC7001F0D3FB064A7B681360002300E001233A
S3150800AC8018460837BD4680BD380000204000002021
S3150800AC903C00002080B400AF064B1B781A46064BD2
S3150800ACA01B681344044A136000BFBD465DF8047B65
S3150800ACB0704700BF40000020D02B002080B400AFB2
S3150800ACC0034B1B681846BD465DF8047B704700BFFA
S3150800ACD0D02B002080B400AF054B1B68044A43F014
S3150800ACE00203136000BFBD465DF8047B704700BFD2
S3150800ACF010E000E080B584B000AF78600023FB73F5
S3150800AD007B68002B01D1012333E07B681B6C002B89
S3150800AD1009D17868FFF72AF97B6800225A647B68AC
S3150800AD20002283F83C207B681B6C03F01003002B81
S3150800AD3018D17B681B6C23F4885323F0020343F075
S3150800AD4002027B681A64786800F048FA7B68002279
S3150800AD505A647B681B6C23F0030343F001027B688B
S3150800AD601A6401E00123FB737B68002283F83C2008
S3150800AD70FB7B18461037BD4680BD000080B586B0FF
S3150800AD8000AFF860B9607A6000233B61FB6893F80E
S3150800AD903C30012B01D10223CEE0FB68012283F867
S3150800ADA03C20FB681B689B6803F00103012B18D045
S3150800ADB0FB681B689A68FB681B6842F001029A6088
S3150800ADC05F4B1B685F4AA2FB03239A0C13465B0082
S3150800ADD013443B6102E03B69013B3B613B69002B45
S3150800ADE0F9D1FB681B689B6803F48073B3F5807F11
S3150800ADF007D1FB681B689A68FB681B6822F4807297
S3150800AE009A60FB681B689B6803F00103012B40F0FE
S3150800AE108680FB681B6C23F4E06323F0010343F48C
S3150800AE208072FB681A64FB681B685B6803F48063BE
S3150800AE30002B07D0FB681B6C23F4405343F4805265
S3150800AE40FB681A64FB681B6C03F48053B3F5805FD8
S3150800AE5006D1FB685B6C23F00602FB685A6402E0C5
S3150800AE60FB6800225A64FB68002283F83C20364BB4
S3150800AE707B61FB689B6B354ADA63FB689B6B344ADC
S3150800AE801A64FB689B6B334ADA64FB681B686FF0CD
S3150800AE9022021A60FB681B685A68FB681B6842F046
S3150800AEA080625A60FB681B689A68FB681B6842F4F4
S3150800AEB080729A60FB68986BFB681B684C3319466E
S3150800AEC0BA687B6801F09CFB7B695B6803F01F032B
S3150800AED0002B0FD1FB681B689B6803F04053002BBF
S3150800AEE029D1FB681B689A68FB681B6842F0804298
S3150800AEF09A6020E0FB681B68174A93421BD1FB68DF
S3150800AF001B689B6803F04053002B14D1FB681B6831
S3150800AF109A68FB681B6842F080429A600BE0FB68FF
S3150800AF201B6C43F01002FB681A64FB685B6C43F009
S3150800AF300102FB685A64002318461837BD4680BDCF
S3150800AF403800002083DE1B4300230140D5B30008E8
S3150800AF508FB40008ABB400080020014080B483B069
S3150800AF6000AF786000BF0C37BD465DF8047B7047BC
S3150800AF7080B483B000AF786000BF0C37BD465DF87B
S3150800AF80047B704780B483B000AF786000BF0C378D
S3150800AF90BD465DF8047B704780B485B000AF786025
S3150800AFA039600023BB607B6893F83C30012B01D1E4
S3150800AFB0022305E17B68012283F83C203B681B6875
S3150800AFC0092B25D97B681B68D9683B681B689BB227
S3150800AFD01A4613465B0013441E3B072202FA03F384
S3150800AFE0DA437B681B680A40DA607B681B68D968A5
S3150800AFF03B689A683B681B689BB2184603465B0029
S3150800B00003441E3B9A407B681B680A43DA6022E0C9
S3150800B0107B681B6819693B681B689BB21A4613460E
S3150800B0205B001344072202FA03F3DA437B681B68C2
S3150800B0300A401A617B681B6819693B689A683B680D
S3150800B0401B689BB2184603465B0003449A407B681C
S3150800B0501B680A431A613B685B68062B24D87B6821
S3150800B0601B68596B3B685A6813469B001344053B9B
S3150800B0701F2202FA03F3DA437B681B680A405A6305
S3150800B0807B681B68596B3B681B689BB218463B6814
S3150800B0905A6813469B001344053B00FA03F27B6883
S3150800B0A01B680A435A634CE03B685B680C2B24D840
S3150800B0B07B681B68196B3B685A6813469B001344E8
S3150800B0C0233B1F2202FA03F3DA437B681B680A4014
S3150800B0D01A637B681B68196B3B681B689BB218462A
S3150800B0E03B685A6813469B001344233B00FA03F255
S3150800B0F07B681B680A431A6323E07B681B68D96A66
S3150800B1003B685A6813469B001344413B1F2202FAC8
S3150800B11003F3DA437B681B680A40DA627B681B68BC
S3150800B120D96A3B681B689BB218463B685A6813463F
S3150800B1309B001344413B00FA03F27B681B680A43F1
S3150800B140DA62224BFB607B681B68214A934209D16D
S3150800B1503B681B68122B05D1FB685B6843F48002C9
S3150800B160FB685A607B681B68194A934223D13B687F
S3150800B1701B68102B03D03B681B68112B1BD1FB687F
S3150800B1805B6843F40002FB685A603B681B68102B37
S3150800B19011D1104B1B68104AA2FB03239A0C1346C5
S3150800B1A09B0013445B00BB6002E0BB68013BBB60CD
S3150800B1B0BB68002BF9D17B68002283F83C2000236A
S3150800B1C018461437BD465DF8047B704700230140D6
S3150800B1D0002001403800002083DE1B4380B485B080
S3150800B1E000AF7860794BFB60FB685B6823F44032FC
S3150800B1F0FB685A60FB685A687B685B681A43FB6899
S3150800B2005A607B681B685A687B681B6822F48072E0
S3150800B2105A607B681B6859687B681B691A027B68D9
S3150800B2201B680A435A607B681B685A687B681B68F8
S3150800B23022F040725A607B681B6859687B689A6876
S3150800B2407B681B680A435A607B681B689A687B6838
S3150800B2501B6822F400629A607B681B6899687B68A1
S3150800B260DA687B681B680A439A607B689B6A584A57
S3150800B270934222D07B681B689A687B681B6822F019
S3150800B28070629A607B681B6899687B689A6A7B68B3
S3150800B2901B680A439A607B681B689A687B681B6808
S3150800B2A022F040529A607B681B6899687B68DA6A64
S3150800B2B07B681B680A439A600FE07B681B689A687C
S3150800B2C07B681B6822F070629A607B681B689A68C4
S3150800B2D07B681B6822F040529A607B681B689A68F4
S3150800B2E07B681B6822F002029A607B681B68996873
S3150800B2F07B681B7E5A007B681B680A439A607B68DA
S3150800B30093F82030002B1BD07B681B685A687B6833
S3150800B3101B6842F400625A607B681B685A687B683F
S3150800B3201B6822F460425A607B681B6859687B6810
S3150800B3305B6A013B5A037B681B680A435A6007E04D
S3150800B3407B681B685A687B681B6822F400625A602F
S3150800B3507B681B68DA6A7B681B6822F47002DA620B
S3150800B3607B681B68D96A7B68DB69013B1A057B68C1
S3150800B3701B680A43DA627B681B689A687B681B68E5
S3150800B38022F400729A607B681B6899687B6893F858
S3150800B39030305A027B681B680A439A607B681B68D0
S3150800B3A09A687B681B6822F480629A607B681B68CF
S3150800B3B099687B685B699A027B681B680A439A608E
S3150800B3C000BF1437BD465DF8047B70470023014073
S3150800B3D00100000F80B584B000AF78607B689B6B76
S3150800B3E0FB60FB681B6C03F05003002B3CD1FB6829
S3150800B3F01B6C43F40072FB681A64FB681B689B6845
S3150800B40003F04053002B2BD1FB681B7E002B27D162
S3150800B410FB681B68DB6A03F47003002B06D0FB6825
S3150800B4201B689B6803F48063002B19D1FB681B68B3
S3150800B4305A68FB681B6822F020025A60FB681B6C7E
S3150800B44023F48072FB681A64FB681B6C03F4805350
S3150800B450002B05D1FB681B6C43F00102FB681A64DC
S3150800B460F868FFF77BFD0EE0FB681B6C03F0100322
S3150800B470002B03D0F868FFF785FD04E0FB689B6B9B
S3150800B480DB6C7868984700BF1037BD4680BD80B52D
S3150800B49084B000AF78607B689B6BFB60F868FFF749
S3150800B4A067FD00BF1037BD4680BD80B584B000AFCC
S3150800B4B078607B689B6BFB60FB6840221A64FB68BC
S3150800B4C05B6C43F00402FB685A64F868FFF75AFDA0
S3150800B4D000BF1037BD4680BD80B485B000AF786028
S3150800B4E039607B6893F83C30012B01D1022331E0A7
S3150800B4F07B68012283F83C20194BFB60FB685B687C
S3150800B50023F01F02FB685A60FB685A683B681B6891
S3150800B5101A43FB685A60FB685B6823F44042FB6881
S3150800B5205A60FB685A683B685B681A43FB685A604E
S3150800B530FB685B6823F47062FB685A60FB685A68AC
S3150800B5403B689B681A43FB685A607B68002283F84D
S3150800B5503C20002318461437BD465DF8047B704727
S3150800B5600023014080B584B000AF78607B68002B6B
S3150800B57001D10123EDE07B6893F82030DBB2002B84
S3150800B58002D17868FEF720FE7B681B681A687B681C
S3150800B5901B6842F001021A60FFF790FBF86012E0A0
S3150800B5A0FFF78CFB0246FB68D31A0A2B0BD97B687C
S3150800B5B05B6A43F400327B685A627B68052283F82B
S3150800B5C020200123C5E07B681B685B6803F0010344
S3150800B5D0002BE5D07B681B681A687B681B6822F01D
S3150800B5E002021A60FFF76AFBF86012E0FFF766FBD3
S3150800B5F00246FB68D31A0A2B0BD97B685B6A43F4AD
S3150800B60000327B685A627B68052283F82020012372
S3150800B6109FE07B681B685B6803F00203002BE5D19B
S3150800B6207B681B7E012B08D17B681B681A687B68C0
S3150800B6301B6842F080021A6007E07B681B681A687C
S3150800B6407B681B6822F080021A607B685B7E012B90
S3150800B65008D17B681B681A687B681B6842F0400241
S3150800B6601A6007E07B681B681A687B681B6822F00B
S3150800B67040021A607B689B7E012B08D17B681B6899
S3150800B6801A687B681B6842F020021A6007E07B682C
S3150800B6901B681A687B681B6822F020021A607B68A0
S3150800B6A0DB7E012B08D17B681B681A687B681B68E0
S3150800B6B022F010021A6007E07B681B681A687B682C
S3150800B6C01B6842F010021A607B681B7F012B08D1A9
S3150800B6D07B681B681A687B681B6842F008021A6058
S3150800B6E007E07B681B681A687B681B6822F00802FB
S3150800B6F01A607B685B7F012B08D17B681B681A6818
S3150800B7007B681B6842F004021A6007E07B681B68C6
S3150800B7101A687B681B6822F004021A607B689A68BC
S3150800B7207B68DB681A437B681B691A437B685B691D
S3150800B73042EA03017B685B685A1E7B681B680A43FA
S3150800B740DA617B6800225A627B68012283F820202E
S3150800B750002318461037BD4680BD000080B487B068
S3150800B76000AF786039607B681B687B617B6893F8FB
S3150800B7702030FB74FB7C012B03D0FB7C022B40F0B2
S3150800B780BE80654B7B617B69D3F8003243F00102CA
S3150800B7907B69C3F800227B69D3F8003223F47C5214
S3150800B7A07B69C3F800227B69D3F800223B685B6A91
S3150800B7B01B021A437B69C3F800223B685B6903F0E6
S3150800B7C01F03012202FA03F3FB607B69D3F81C22EC
S3150800B7D0FB68DB431A407B69C3F81C223B68DB69BC
S3150800B7E0002B23D17B69D3F80C22FB68DB431A4074
S3150800B7F07B69C3F80C223B68DB6819043B685B6805
S3150800B8009BB23A68526919437B69483243F8321049
S3150800B8103B689B6819043B681B689AB23B685B697E
S3150800B8200A4379694833DB000B445A603B68DB6995
S3150800B830012B22D17B69D3F80C22FB681A437B695A
S3150800B840C3F80C223B681B6819043B685B689BB20B
S3150800B8503A68526919437B69483243F832103B68A3
S3150800B8609B6819043B68DB689AB23B685B690A43C4
S3150800B87079694833DB000B445A603B689B69002BA7
S3150800B88009D17B69D3F80422FB68DB431A407B693C
S3150800B890C3F8042207E07B69D3F80422FB681A433D
S3150800B8A07B69C3F804223B681B69002B09D17B69B5
S3150800B8B0D3F81422FB68DB431A407B69C3F81422C9
S3150800B8C007E07B69D3F81422FB681A437B69C3F83F
S3150800B8D014223B681B6A012B07D17B69D3F81C220B
S3150800B8E0FB681A437B69C3F81C227B69D3F80032CC
S3150800B8F023F001027B69C3F80022002306E07B6877
S3150800B9005B6A43F480227B685A62012318461C3717
S3150800B910BD465DF8047B70470064004080B584B07E
S3150800B92000AF78607B6893F82030DBB2012B2ED10C
S3150800B9307B68022283F820207B681B681A687B686C
S3150800B9401B6822F001021A60FFF7B8F9F86012E0E6
S3150800B950FFF7B4F90246FB68D31A0A2B0BD97B68A2
S3150800B9605B6A43F400327B685A627B68052283F877
S3150800B9702020012312E07B681B685B6803F0010343
S3150800B980002BE5D17B6800225A62002306E07B681B
S3150800B9905B6A43F400227B685A6201231846103713
S3150800B9A0BD4680BD80B489B000AFF860B9607A60E2
S3150800B9B03B60FB6893F82030FB77FB681B689B6845
S3150800B9C0BB61FB7F012B03D0FB7F022B40F0B880C5
S3150800B9D0BB6903F08063002B0AD1BB6903F00063DF
S3150800B9E0002B05D1BB6903F08053002B00F0A08023
S3150800B9F0BB691B0E03F003037B617B69022B07D926
S3150800BA00FB685B6A43F40002FB685A6201239EE006
S3150800BA1001227B699A403B681A60BB689B68002BC9
S3150800BA200DD1BB681B685A05BB68DB68F9680968ED
S3150800BA301A437B6918331B010B441A600FE0BB6875
S3150800BA405B68DA00BB689B681A43BB68DB68F96801
S3150800BA5009681A437B6918331B010B441A60FB6893
S3150800BA601968BB681A697B6918331B010B440433D0
S3150800BA701A60BB681B7D012B11D1FB681A687B69AC
S3150800BA8018331B01134404331B68FA68116843F41E
S3150800BA9080727B6918331B010B4404331A607B6878
S3150800BAA007331B781A067B6806331B781B041A4370
S3150800BAB07B6805331B781B0213437A6804321278B5
S3150800BAC01046FA68116843EA00027B691B010B44B9
S3150800BAD003F5C6731A607B6803331B781A067B68FE
S3150800BAE002331B781B041A437B6801331B781B023D
S3150800BAF013437A6812781046FA68116843EA000216
S3150800BB007B691B010B4403F5C4731A60FB681A684A
S3150800BB107B6918331B0113441B68FA68116843F0E4
S3150800BB2001027B6918331B010B441A6000230EE0DF
S3150800BB30FB685B6A43F40012FB685A62012306E05D
S3150800BB40FB685B6A43F48022FB685A620123184645
S3150800BB502437BD465DF8047B704780B487B000AFD4
S3150800BB60F860B9607A603B60FB6893F82030FB7533
S3150800BB70FB7D012B03D0FB7D022B40F0F380BB68D5
S3150800BB80002B0ED1FB681B68DB6803F00303002B50
S3150800BB9016D1FB685B6A43F40012FB685A620123FC
S3150800BBA0E7E0FB681B681B6903F00303002B07D15A
S3150800BBB0FB685B6A43F40012FB685A620123D8E00B
S3150800BBC0FB681A68BB681B331B0113441B6803F028
S3150800BBD004027B689A607B689B68002B0CD1FB6823
S3150800BBE01A68BB681B331B0113441B685B0DC3F340
S3150800BBF00A027B681A600BE0FB681A68BB681B338D
S3150800BC001B0113441B68DB0823F060427B685A60FB
S3150800BC10FB681A68BB681B331B0113441B6803F0D7
S3150800BC2002027B68DA60FB681A68BB681B331B0173
S3150800BC30134404331B6803F00F027B681A61FB6820
S3150800BC401A68BB681B331B01134404331B681B0AA1
S3150800BC50DAB27B689A61FB681A68BB681B331B01FA
S3150800BC60134404331B681B0C9AB27B685A61FB6841
S3150800BC701A68BB681B01134403F5DC731B68DAB248
S3150800BC803B681A70FB681A68BB681B01134403F506
S3150800BC90DC731B681A0A3B680133D2B21A70FB6858
S3150800BCA01A68BB681B01134403F5DC731B681A0C7E
S3150800BCB03B680233D2B21A70FB681A68BB681B016C
S3150800BCC0134403F5DC731B681A0E3B680333D2B2C0
S3150800BCD01A70FB681A68BB681B01134403F5DE7308
S3150800BCE01A683B680433D2B21A70FB681A68BB68D4
S3150800BCF01B01134403F5DE731B681A0A3B680533F8
S3150800BD00D2B21A70FB681A68BB681B01134403F5A4
S3150800BD10DE731B681A0C3B680633D2B21A70FB68CE
S3150800BD201A68BB681B01134403F5DE731B681A0EF9
S3150800BD303B680733D2B21A70BB68002B08D1FB6880
S3150800BD401B68DA68FB681B6842F02002DA6007E0C5
S3150800BD50FB681B681A69FB681B6842F020021A61B7
S3150800BD60002306E0FB685B6A43F48022FB685A629C
S3150800BD70012318461C37BD465DF8047B704780B41E
S3150800BD8085B000AF786039607B6893F82030FB7324
S3150800BD90FB7B012B02D0FB7B022B09D17B681B683E
S3150800BDA059697B681B683A680A435A61002306E0AA
S3150800BDB07B685B6A43F480227B685A6201231846D3
S3150800BDC01437BD465DF8047B704780B58AB000AF6E
S3150800BDD0786000237B627B681B685B693B627B68D3
S3150800BDE01B685B68FB617B681B689B68BB617B683B
S3150800BDF01B68DB687B617B681B681B693B617B682A
S3150800BE001B689B69FB603B6A03F00103002B7CD02F
S3150800BE10BB6903F00103002B23D07B681B68012252
S3150800BE209A60BB6903F00203002B03D0786800F020
S3150800BE3083F916E0BB6903F00403002B04D07B6A80
S3150800BE4043F400637B620CE0BB6903F00803002B34
S3150800BE5004D07B6A43F480537B6202E0786800F082
S3150800BE6089F9BB6903F48073002B24D07B681B68AF
S3150800BE704FF480729A60BB6903F40073002B03D0F9
S3150800BE80786800F063F916E0BB6903F48063002B59
S3150800BE9004D07B6A43F400537B620CE0BB6903F46D
S3150800BEA00063002B04D07B6A43F480437B6202E084
S3150800BEB0786800F069F9BB6903F48033002B24D055
S3150800BEC07B681B684FF480329A60BB6903F40033C1
S3150800BED0002B03D0786800F043F916E0BB6903F439
S3150800BEE08023002B04D07B6A43F400437B620CE07A
S3150800BEF0BB6903F40023002B04D07B6A43F4803328
S3150800BF007B6202E0786800F049F93B6A03F00803AF
S3150800BF10002B0CD07B6903F01003002B07D07B6A3B
S3150800BF2043F400737B627B681B681022DA603B6A05
S3150800BF3003F00403002B0BD07B6903F00803002BE6
S3150800BF4006D07B681B680822DA60786800F030F94A
S3150800BF503B6A03F00203002B09D07B681B68DB6889
S3150800BF6003F00303002B02D0786826F089FA3B6AAF
S3150800BF7003F04003002B0CD03B6903F01003002BA1
S3150800BF8007D07B6A43F480637B627B681B68102258
S3150800BF901A613B6A03F02003002B0BD03B6903F0C0
S3150800BFA00803002B06D07B681B6808221A6178688C
S3150800BFB000F012F93B6A03F01003002B09D07B68E6
S3150800BFC01B681B6903F00303002B02D0786800F096
S3150800BFD0F9F83B6A03F40033002B0BD0FB6903F036
S3150800BFE01003002B06D07B681B6810225A607868FD
S3150800BFF000F0FCF83B6A03F48033002B0BD0FB6996
S3150800C00003F00803002B06D07B681B6808225A60D9
S3150800C010786800F0F5F83B6A03F40043002B7BD000
S3150800C020FB6903F00403002B72D03B6A03F48073A8
S3150800C030002B08D0FB6803F00103002B03D07B6AB2
S3150800C04043F001037B623B6A03F40073002B08D0BC
S3150800C050FB6803F00203002B03D07B6A43F002035C
S3150800C0607B623B6A03F48063002B08D0FB6803F00D
S3150800C0700403002B03D07B6A43F004037B623B6A0C
S3150800C08003F40063002B43D0FB6803F07003002B16
S3150800C0903ED0FB6803F07003602B2BD0602B2ED8A4
S3150800C0A0502B22D0502B2AD8402B19D0402B26D8DB
S3150800C0B0302B10D0302B22D8102B02D0202B05D0B5
S3150800C0C01DE07B6A43F008037B6219E07B6A43F054
S3150800C0D010037B6214E07B6A43F020037B620FE067
S3150800C0E07B6A43F040037B620AE07B6A43F0800385
S3150800C0F07B6205E07B6A43F480737B6200E000BFE5
S3150800C1007B681B689A697B681B6822F070029A61D3
S3150800C1107B681B6804225A607B6A002B08D07B6800
S3150800C1205A6A7B6A1A437B685A62786800F072F822
S3150800C13000BF2837BD4680BD80B483B000AF7860A5
S3150800C14000BF0C37BD465DF8047B704780B483B0EA
S3150800C15000AF786000BF0C37BD465DF8047B7047BA
S3150800C16080B483B000AF786000BF0C37BD465DF879
S3150800C170047B704780B483B000AF786000BF0C378B
S3150800C180BD465DF8047B704780B483B000AF786025
S3150800C19000BF0C37BD465DF8047B704780B483B09A
S3150800C1A000AF786000BF0C37BD465DF8047B70476A
S3150800C1B080B483B000AF786000BF0C37BD465DF829
S3150800C1C0047B704780B483B000AF786000BF0C373B
S3150800C1D0BD465DF8047B704780B483B000AF7860D5
S3150800C1E000BF0C37BD465DF8047B704780B483B04A
S3150800C1F000AF786000BF0C37BD465DF8047B70471A
S3150800C20080B483B000AF786000BF0C37BD465DF8D8
S3150800C210047B704780B483B000AF786000BF0C37EA
S3150800C220BD465DF8047B704780B485B000AF786082
S3150800C2307B6803F00703FB600C4BDB68BB60BA68DE
S3150800C2404FF6FF031340BB60FB681A02BB68134333
S3150800C25043F0BF6343F40033BB60044ABB68D36052
S3150800C26000BF1437BD465DF8047B704700ED00E05B
S3150800C27080B400AF044BDB681B0A03F007031846BB
S3150800C280BD465DF8047B704700ED00E080B483B0DE
S3150800C29000AF0346FB7197F90730002B0BDBFB79E0
S3150800C2A003F01F02074997F907305B09012000FAD6
S3150800C2B002F241F8232000BF0C37BD465DF8047B27
S3150800C2C0704700BF00E100E080B483B000AF0346CA
S3150800C2D0FB7197F90730002B0CDBFB7903F01F0283
S3150800C2E0074997F907305B09012000FA02F2603323
S3150800C2F041F8232000BF0C37BD465DF8047B704724
S3150800C30000E100E080B483B000AF03463960FB71FA
S3150800C31097F90730002B0ADB3B68DAB20C4997F924
S3150800C32007301201D2B20B4483F800230AE03B68B7
S3150800C330DAB20849FB7903F00F03043B1201D2B2C3
S3150800C3400B441A7600BF0C37BD465DF8047B704770
S3150800C35000E100E000ED00E080B489B000AFF860CD
S3150800C360B9607A60FB6803F00703FB61FB69C3F1F8
S3150800C3700703042B28BF0423BB61FB690433062B80
S3150800C38002D9FB69033B00E000237B614FF0FF32D3
S3150800C390BB6902FA03F3DA43BB681A407B699A4021
S3150800C3A04FF0FF317B6901FA03F3D9437B680B40F1
S3150800C3B0134318462437BD465DF8047B70470000D2
S3150800C3C080B582B000AF78607B68013BB3F1807FAF
S3150800C3D001D301230FE00A4A7B68013B53600F2112
S3150800C3E04FF0FF30FFF78EFF054B00229A60044B93
S3150800C3F007221A60002318460837BD4680BD00BFCD
S3150800C40010E000E080B582B000AF78607868FFF78A
S3150800C4100BFF00BF0837BD4680BD80B586B000AFAC
S3150800C4200346B9607A60FB7300237B61FFF720FF40
S3150800C43078617A68B9687869FFF78EFF024697F9D6
S3150800C4400F3011461846FFF75DFF00BF1837BD4687
S3150800C45080BD80B582B000AF0346FB7197F90730FF
S3150800C4601846FFF713FF00BF0837BD4680BD80B5E5
S3150800C47082B000AF78607868FFF7A2FF03461846D7
S3150800C4800837BD4680BD80B582B000AF0346FB7154
S3150800C49097F907301846FFF717FF00BF0837BD465C
S3150800C4A080BD000080B586B000AF786000237B6150
S3150800C4B0FEF704FC38617B68002B01D1012399E063
S3150800C4C07B68022283F835207B68002283F83420B3
S3150800C4D07B681B681A687B681B6822F001021A6071
S3150800C4E00FE0FEF7EBFB02463B69D31A052B08D98A
S3150800C4F07B6820225A657B68032283F8352003234C
S3150800C50078E07B681B681B6803F00103002BE8D101
S3150800C5107B681B681B687B617A69384B13407B61B3
S3150800C5207B685A687B689B681A437B68DB681A4392
S3150800C5307B681B691A437B685B691A437B689B693E
S3150800C5401A437B68DB691A437B681B6A13437A695B
S3150800C55013437B617B685B6A042B07D17B68DA6AC5
S3150800C5607B681B6B13437A6913437B617B681B6883
S3150800C5707A691A607B681B685B697B617B6923F053
S3150800C58007037B617B685B6A7A6913437B617B6817
S3150800C5905B6A042B17D17B689B6A7A6913437B61B4
S3150800C5A07B68DB6A002B0ED0786800F063FA0346D6
S3150800C5B0002B08D07B6840225A657B68012283F8E5
S3150800C5C03520012316E07B681B687A695A6178680A
S3150800C5D000F01AFA0346FB607B68DB6D3F229A403F
S3150800C5E0FB689A607B6800225A657B68012283F89B
S3150800C5F03520002318461837BD4680BD3F8010F009
S3150800C60080B586B000AFF860B9607A603B600023F9
S3150800C610FB75FB689B6D3B61FB6893F83430012B17
S3150800C62001D1022334E0FB68012283F83420FB6839
S3150800C63093F83530DBB2012B23D1FB68022283F84D
S3150800C6403520FB6800225A653B687A68B968F8683D
S3150800C65000F0ACF9FB68DB6D3F229A403B699A60B3
S3150800C660FB681B681A68FB681B6842F016021A60AA
S3150800C670FB681B681A68FB681B6842F001021A60AF
S3150800C68005E0FB68002283F834200223FB75FB7D56
S3150800C69018461837BD4680BD80B586B000AF7860AD
S3150800C6A00023BB608E4B1B688E4AA2FB03239B0AA2
S3150800C6B07B617B689B6D3B613B691B68FB607B68A4
S3150800C6C0DB6D08229A40FB681340002B1AD07B6862
S3150800C6D01B681B6803F00403002B13D07B681B68D8
S3150800C6E01A687B681B6822F004021A607B68DB6D97
S3150800C6F008229A403B699A607B685B6D43F00102A9
S3150800C7007B685A657B68DB6D01229A40FB6813409B
S3150800C710002B12D07B681B685B6903F08003002B33
S3150800C7200BD07B68DB6D01229A403B699A607B6877
S3150800C7305B6D43F002027B685A657B68DB6D0422F9
S3150800C7409A40FB681340002B12D07B681B681B6855
S3150800C75003F00203002B0BD07B68DB6D04229A40A2
S3150800C7603B699A607B685B6D43F004027B685A6597
S3150800C7707B68DB6D10229A40FB681340002B43D080
S3150800C7807B681B681B6803F00803002B3CD07B689A
S3150800C790DB6D10229A403B699A607B681B681B68B0
S3150800C7A003F48023002B18D07B681B681B6803F4EE
S3150800C7B00023002B08D17B681B6C002B24D07B68D8
S3150800C7C01B6C786898471FE07B689B6C002B1BD016
S3150800C7D07B689B6C7868984716E07B681B681B68C3
S3150800C7E003F48073002B07D17B681B681A687B6883
S3150800C7F01B6822F008021A607B681B6C002B03D0AA
S3150800C8007B681B6C786898477B68DB6D20229A40AA
S3150800C810FB681340002B00F08F807B681B681B6841
S3150800C82003F01003002B00F087807B68DB6D202265
S3150800C8309A403B699A607B6893F83530DBB2052BE2
S3150800C84036D17B681B681A687B681B6822F016025B
S3150800C8501A607B681B685A697B681B6822F080022D
S3150800C8605A617B681B6C002B03D17B689B6C002B81
S3150800C87007D07B681B681A687B681B6822F0080269
S3150800C8801A607B68DB6D3F229A403B699A607B6839
S3150800C890012283F835207B68002283F834207B68E0
S3150800C8A01B6D002B7ED07B681B6D7868984779E0F6
S3150800C8B07B681B681B6803F48023002B1DD07B68EC
S3150800C8C01B681B6803F40023002B0DD17B685B6C87
S3150800C8D0002B31D07B685B6C786898472CE000BFEA
S3150800C8E038000020B5814E1B7B68DB6B002B23D0FC
S3150800C8F07B68DB6B786898471EE07B681B681B685B
S3150800C90003F48073002B0FD17B681B681A687B6859
S3150800C9101B6822F010021A607B68012283F8352012
S3150800C9207B68002283F834207B68DB6B002B03D0FE
S3150800C9307B68DB6B786898477B685B6D002B32D029
S3150800C9407B685B6D03F00103002B22D07B68052210
S3150800C95083F835207B681B681A687B681B6822F099
S3150800C96001021A60BB680133BB607A699A4207D331
S3150800C9707B681B681B6803F00103002BF2D100E0FB
S3150800C98000BF7B68012283F835207B68002283F884
S3150800C99034207B68DB6C002B05D07B68DB6C786801
S3150800C9A0984700E000BF1837BD4680BD80B485B003
S3150800C9B000AFF860B9607A603B60FB681B681A686C
S3150800C9C0FB681B6822F480221A60FB681B683A68B9
S3150800C9D05A60FB689B68402B08D1FB681B687A681D
S3150800C9E09A60FB681B68BA68DA6007E0FB681B6830
S3150800C9F0BA689A60FB681B687A68DA6000BF143701
S3150800CA00BD465DF8047B704780B485B000AF78609A
S3150800CA107B681B68DBB2103B144AA2FB03231B0985
S3150800CA20FB60134AFB6813441B781A467B68DA6571
S3150800CA30FB68032B09D97B681B6823F47F7323F0F3
S3150800CA4003031A1D7B689A6507E07B681B6823F455
S3150800CA507F7323F003037A6893657B689B6D18469A
S3150800CA601437BD465DF8047B704700BFABAAAAAA77
S3150800CA701CC4030880B485B000AF78600023FB733C
S3150800CA807B689B6ABB607B689B69002B1FD1BB6870
S3150800CA90032B56D801A252F823F000BFADCA0008EE
S3150800CAA0BFCA0008ADCA000843CB00087B68DB6A2A
S3150800CAB003F08073002B46D00123FB7343E07B68A9
S3150800CAC0DB6AB3F1C07F40D10123FB733DE07B688D
S3150800CAD09B69B3F5005F21D1BB68032B37D801A248
S3150800CAE052F823F0F5CA0008FBCA0008F5CA000880
S3150800CAF00DCB00080123FB7330E07B68DB6A03F08B
S3150800CB008073002B25D00123FB7322E07B68DB6A48
S3150800CB10B3F1C07F1FD10123FB731CE0BB68022B56
S3150800CB2003D9BB68032B03D018E00123FB7315E078
S3150800CB307B68DB6A03F08073002B0ED00123FB733E
S3150800CB400BE000BF0AE000BF08E000BF06E000BF38
S3150800CB5004E000BF02E000BF00E000BFFB7B184610
S3150800CB601437BD465DF8047B704700BF80B586B0B4
S3150800CB7000AFF860B960C7E900230123FB75234BB2
S3150800CB801B7E012B01D102233BE0204B01221A76A2
S3150800CB904CF2503000F060F80346FB75FB7D002B25
S3150800CBA02BD1FB68002B05D13B781946B86800F0F5
S3150800CBB00BF916E0FB68012B05D13B881946B868C6
S3150800CBC000F0DEF80DE0FB68022B05D13B6819463C
S3150800CBD0B86800F0B3F804E0D7E90023B86800F0B5
S3150800CBE07BF84CF2503000F037F80346FB75084BDB
S3150800CBF01B69074A23F001031361044B00221A76C6
S3150800CC00FB7D18461837BD4680BD00BFD42B0020D3
S3150800CC10003C024080B483B000AF0023FB710B4B8D
S3150800CC201B69002B0BDA094B094A5A60074B094A5C
S3150800CC305A60064B1B69002B01DA0123FB71FB794D
S3150800CC4018460C37BD465DF8047B7047003C024029
S3150800CC5023016745AB89EFCD80B584B000AF786016
S3150800CC600023FB601A4B0022DA61FEF727F8F8600A
S3150800CC7010E07B68B3F1FF3F0CD07B68002B07D030
S3150800CC80FEF71CF80246FB68D31A7A689A4201D264
S3150800CC90032319E00F4BDB6803F48033002BE8D13C
S3150800CCA00C4BDB6803F00103002B02D0094B012271
S3150800CCB0DA60084BDB6803F4F973002B03D000F045
S3150800CCC0A5F8012300E0002318461037BD4680BDAD
S3150800CCD0D42B0020003C024080B485B000AFF86039
S3150800CCE0C7E90023144B1B69134A23F440731361E5
S3150800CCF0114B1B69104A43F4407313610E4B1B69B1
S3150800CD000D4A43F001031361FB683A681A60BFF3E2
S3150800CD106F8F00BFD7E900014FF000024FF0000304
S3150800CD200A000023F968043113460B6000BF143764
S3150800CD30BD465DF8047B7047003C024080B483B072
S3150800CD4000AF786039600D4B1B690C4A23F44073B9
S3150800CD5013610A4B1B69094A43F400731361074BB5
S3150800CD601B69064A43F0010313617B683A681A6037
S3150800CD7000BF0C37BD465DF8047B7047003C024097
S3150800CD8080B483B000AF78600B467B800D4B1B697F
S3150800CD900C4A23F4407313610A4B1B69094A43F48E
S3150800CDA080731361074B1B69064A43F0010313613D
S3150800CDB07B687A881A8000BF0C37BD465DF8047B0D
S3150800CDC0704700BF003C024080B483B000AF786073
S3150800CDD00B46FB700C4B1B690B4A23F4407313611B
S3150800CDE0094B094A1B691361074B1B69064A43F03D
S3150800CDF0010313617B68FA781A7000BF0C37BD46C9
S3150800CE005DF8047B704700BF003C024080B400AF69
S3150800CE102F4BDB6803F01003002B08D02D4BDB6982
S3150800CE2043F010032B4AD361294B1022DA60284BB2
S3150800CE30DB6803F02003002B08D0264BDB6943F0A0
S3150800CE400803244AD361224B2022DA60204BDB6890
S3150800CE5003F04003002B08D01E4BDB6943F00403A4
S3150800CE601C4AD3611A4B4022DA60194BDB6803F07F
S3150800CE708003002B08D0174BDB6943F00203154AE1
S3150800CE80D361134B8022DA60114BDB6803F480739D
S3150800CE90002B09D00F4BDB6943F001030D4AD36120
S3150800CEA00B4B4FF48072DA60094BDB6803F0020320
S3150800CEB0002B08D0074BDB6943F02003054AD361F2
S3150800CEC0034B0222DA6000BFBD465DF8047B70475B
S3150800CED0003C0240D42B002080B584B000AF7860B7
S3150800CEE039600123FB730023BB60314B1B7E012B8A
S3150800CEF001D1022358E02E4B01221A764CF250300B
S3150800CF00FFF7AAFE0346FB73FB7B002B48D13B6861
S3150800CF104FF0FF321A607B681B68012B15D17B68BE
S3150800CF201B69DAB27B685B681946104600F044F85C
S3150800CF304CF25030FFF790FE0346FB731D4B1B69FE
S3150800CF401C4A23F00403136128E07B689B68BB60D6
S3150800CF501CE07B681B69DBB21946B86800F050F81C
S3150800CF604CF25030FFF778FE0346FB73114B1B69F2
S3150800CF70104A23F0FA031361FB7B002B03D03B68AE
S3150800CF80BA681A600AE0BB680133BB607B68DA6876
S3150800CF907B689B681344BA689A42DAD300F078F83B
S3150800CFA0034B00221A76FB7B18461037BD4680BD18
S3150800CFB0D42B0020003C024080B483B000AF034667
S3150800CFC03960FB710D4B1B690C4A23F440731361DE
S3150800CFD00A4B1B69094A43F004031361074B1A6994
S3150800CFE0FB791B021343054A43F48033136100BFE0
S3150800CFF00C37BD465DF8047B704700BF003C024015
S3150800D00080B485B000AF78600B46FB700023FB60E8
S3150800D010FB78002B02D10023FB6010E0FB78012B84
S3150800D02003D14FF48073FB6009E0FB78022B03D130
S3150800D0304FF40073FB6002E04FF44073FB60134B40
S3150800D0401B69124A23F440731361104B1A690F497E
S3150800D050FB6813430B610D4B1B690C4A23F0F8035D
S3150800D06013610A4B1A697B68DB001343074A43F0CE
S3150800D07002031361054B1B69044A43F480331361A9
S3150800D08000BF1437BD465DF8047B7047003C02407C
S3150800D09080B400AF204B1B6803F40073002B17D035
S3150800D0A01D4B1B681C4A23F4007313601A4B1B683C
S3150800D0B0194A43F400631360174B1B68164A23F496
S3150800D0C000631360144B1B68134A43F40073136020
S3150800D0D0114B1B6803F48063002B17D00E4B1B689B
S3150800D0E00D4A23F4806313600B4B1B680A4A43F40A
S3150800D0F080531360084B1B68074A23F48053136058
S3150800D100054B1B68044A43F48063136000BFBD46A1
S3150800D1105DF8047B704700BF003C024080B489B0CC
S3150800D12000AF7860396000237B6100233B610023F0
S3150800D130BB610023FB6153E10122FB6902FA03F399
S3150800D1407B613B681B687A6913403B613A697B6976
S3150800D1509A4240F042813B685B6803F00303012B67
S3150800D16005D03B685B6803F00303022B30D17B686C
S3150800D1709B68BB61FB695B00032202FA03F3DB438E
S3150800D180BA691340BB613B68DA68FB695B0002FA5F
S3150800D19003F3BA691343BB617B68BA699A607B6813
S3150800D1A05B68BB610122FB6902FA03F3DB43BA69D8
S3150800D1B01340BB613B685B681B0903F00102FB690E
S3150800D1C002FA03F3BA691343BB617B68BA695A600A
S3150800D1D03B685B6803F00303032B17D07B68DB68A7
S3150800D1E0BB61FB695B00032202FA03F3DB43BA69FE
S3150800D1F01340BB613B689A68FB695B0002FA03F35C
S3150800D200BA691343BB617B68BA69DA603B685B68D5
S3150800D21003F00303022B23D1FB69DA087B68083283
S3150800D22053F82230BB61FB6903F007039B000F220A
S3150800D23002FA03F3DB43BA691340BB613B681A6918
S3150800D240FB6903F007039B0002FA03F3BA69134369
S3150800D250BB61FB69DA087B680832B96943F82210B2
S3150800D2607B681B68BB61FB695B00032202FA03F358
S3150800D270DB43BA691340BB613B685B6803F0030292
S3150800D280FB695B0002FA03F3BA691343BB617B6867
S3150800D290BA691A603B685B6803F44033002B00F0F8
S3150800D2A09C800023FB60544B5B6C534A43F48043D9
S3150800D2B05364514B5B6C03F48043FB60FB684F4A35
S3150800D2C0FB699B08023352F82330BB61FB6903F004
S3150800D2D003039B000F2202FA03F3DB43BA691340E8
S3150800D2E0BB617B68464A934213D07B68454A9342A2
S3150800D2F00DD07B68444A934207D07B68434A9342E1
S3150800D30001D1032306E0072304E0022302E00123F8
S3150800D31000E00023FA6902F0030292009340BA691A
S3150800D3201343BB613549FB699B080233BA6941F867
S3150800D3302320374B1B68BB613B69DB43BA69134043
S3150800D340BB613B685B6803F48033002B03D0BA6982
S3150800D3503B691343BB612E4ABB6913602C4B5B6860
S3150800D360BB613B69DB43BA691340BB613B685B68D9
S3150800D37003F40033002B03D0BA693B691343BB613E
S3150800D380234ABB695360224B9B68BB613B69DB43FD
S3150800D390BA691340BB613B685B6803F48013002BD2
S3150800D3A003D0BA693B691343BB61194ABB699360E9
S3150800D3B0174BDB68BB613B69DB43BA691340BB614A
S3150800D3C03B685B6803F40013002B03D0BA693B691A
S3150800D3D01343BB610E4ABB69D360FB690133FB612A
S3150800D3E0FB690F2B7FF6A8AE00BF00BF2437BD46EA
S3150800D3F05DF8047B704700BF0038024000380140E2
S3150800D400000002400004024000080240000C0240EE
S3150800D410003C014080B485B000AF78600B467B8045
S3150800D4207B681A697B881340002B02D00123FB73A3
S3150800D43001E00023FB73FB7B18461437BD465DF8F5
S3150800D440047B704780B483B000AF78600B467B805E
S3150800D45013467B707B78002B03D07A887B689A61A9
S3150800D46003E07B881A047B689A6100BF0C37BD46C7
S3150800D4705DF8047B704780B485B000AF78600B46D2
S3150800D4807B807B685B69FB607A88FB6813401A04BB
S3150800D490FB68D9437B880B401A437B689A6100BFB7
S3150800D4A01437BD465DF8047B7047000080B582B02E
S3150800D4B000AF0346FB80084B5A69FB881340002BD4
S3150800D4C006D0054AFB885361FB881846FCF740FAE4
S3150800D4D000BF0837BD4680BD003C014080B483B01C
S3150800D4E000AF78607B681B684AF6AA221A60002398
S3150800D4F018460C37BD465DF8047B704780B483B088
S3150800D50000AF064B01221A60054B1B687B607B68DF
