:020000040800F2
:1000000000000420E10A0008690A00086F0A0008DD
:10001000750A00087B0A0008810A00080000000039
:10002000000000000000000000000000870A000837
:10003000950A000800000000A30A0008B10A0008A1
:10004000310B0008310B0008310B0008310B0008A0
:10005000310B0008310B0008310B0008310B000890
:10006000310B0008310B0008310B0008310B000880
:10007000310B0008310B0008310B0008310B000870
:10008000310B0008310B0008310B0008310B000860
:10009000310B0008310B0008310B0008310B000850
:1000A000310B0008310B0008310B0008310B000840
:1000B000310B0008310B0008310B0008310B000830
:1000C000310B0008310B0008310B0008310B000820
:1000D000310B0008310B0008310B0008310B000810
:1000E000310B0008310B0008310B0008310B000800
:1000F000310B0008310B0008310B0008310B0008F0
:1001000000000000310B0008310B0008310B000823
:100110000000000000000000310B0008310B000857
:10012000310B0008310B0008310B0008310B0008BF
:10013000310B0008310B0008310B0008310B0008AF
:10014000310B0008310B0008310B0008310B00089F
:10015000310B0008310B0008310B0008310B00088F
:10016000310B0008310B0008000000000000000007
:10017000000000000000000000000000000000007F
:10018000310B0008310B00080000000000000000E7
:10019000310B0008310B00080000000000000000D7
:1001A000000000000000000000000000000000004F
:1001B000310B00080000000000000000310B0008B7
:0401C000310B0008F7
:1001C40010B5054C237833B9044B13B10448AFF38D
:1001D40000800123237010BD4C00002000000000AB
:1001E400C841000808B5034B1BB103490348AFF3EA
:1001F400008008BD0000000050000020C841000835
:1002040053B94AB9002908BF00281CBF4FF0FF3179
:100214004FF0FF3000F074B9ADF1080C6DE904CE75
:1002240000F006F8DDF804E0DDE9022304B07047CD
:100234002DE9F047089D04468E46002B4DD18A4295
:10024400944669D9B2FA82F252B101FA02F3C2F1C8
:10025400200120FA01F10CFA02FC41EA030E944059
:100264004FEA1C48210CBEFBF8F61FFA8CF708FB7A
:1002740016E341EA034306FB07F199420AD91CEB52
:10028400030306F1FF3080F01F81994240F21C8184
:10029400023E63445B1AA4B2B3FBF8F008FB1033CC
:1002A40044EA034400FB07F7A7420AD91CEB040401
:1002B40000F1FF3380F00A81A74240F207816444D1
:1002C400023840EA0640E41B00261DB1D440002356
:1002D400C5E900433146BDE8F0878B4209D9002DBA
:1002E40000F0EF800026C5E9000130463146BDE844
:1002F400F087B3FA83F6002E4AD18B4202D38242AE
:1003040000F2F980841A61EB030301209E46002D5C
:10031400E0D0C5E9004EDDE702B9FFDEB2FA82F2B1
:10032400002A40F09280A1EB0C014FEA1C471FFA0F
:100334008CFE0126200CB1FBF7F307FB131140EAF6
:1003440001410EFB03F0884208D91CEB010103F1C3
:10035400FF3802D2884200F2CB804346091AA4B285
:10036400B1FBF7F007FB101144EA01440EFB00FE59
:10037400A64508D91CEB040400F1FF3102D2A645BE
:1003840000F2BB800846A4EB0E0440EA03409CE75D
:10039400C6F12007B34022FA07FC4CEA030C20FA0A
:1003A40007F401FA06F31C43F9404FEA1C4900FA2A
:1003B40006F3B1FBF9F8200C1FFA8CFE09FB1811A7
:1003C40040EA014108FB0EF0884202FA06F20BD91A
:1003D4001CEB010108F1FF3A80F08880884240F26A
:1003E4008580A8F102086144091AA4B2B1FBF9F0AE
:1003F40009FB101144EA014100FB0EFE8E4508D9A9
:100404001CEB010100F1FF346CD28E456AD902382D
:10041400614440EA0840A0FB0294A1EB0E01A14212
:10042400C846A64656D353D05DB1B3EB080261EB80
:100434000E0101FA07F722FA06F3F1401F43C5E95A
:10044400007100263146BDE8F087C2F12003D84090
:100454000CFA02FC21FA03F3914001434FEA1C47D2
:100464001FFA8CFEB3FBF7F007FB10360B0C43EAC4
:10047400064300FB0EF69E4204FA02F408D91CEB74
:10048400030300F1FF382FD29E422DD90238634472
:100494009B1B89B2B3FBF7F607FB163341EA034112
:1004A40006FB0EF38B4208D91CEB010106F1FF3861
:1004B40016D28B4214D9023E6144C91A46EA004658
:1004C40038E72E46284605E70646E3E61846F8E6EA
:1004D4004B45A9D2B9EB020864EB0C0E0138A3E733
:1004E4004646EAE7204694E74046D1E7D0467BE714
:1004F400023B614432E7304609E76444023842E78C
:10050400704700BF80B582B000AF0023FB7100F0DC
:1005140065F802F035FBFB1D1946002000F086F853
:10052400FB79012B01D102F086FD00BF0837BD46DF
:1005340080BD80B500AF02F033FB00BF80BD80B545
:1005440000AF642000F008F800BF80BD80B500AFA4
:1005540000F012F800BF80BD80B483B000AF034642
:10056400FB80044AFB88138000BF0C37BD465DF84E
:10057400047B70476800002080B500AF03F0AEF93B
:100584000246124B1B689A421ED3114B1B78002B58
:1005940009D10F4B01221A7001224FF400510D486A
:1005A40001F0DCFC08E00A4B00221A7000224FF430
:1005B4000051084801F0D2FC03F090F90346064AC2
:1005C40012881344014A136000BF80BD6C000020F0
:1005D40070000020000802406800002080B582B04E
:1005E40000AF00F045F8034683F00103DBB2002BB3
:1005F40013D00C4B0C4A1A6000237B6008E0094AB4
:100604007B681344043300221A707B6801337B60D7
:100614007B68372BF3D900F045F800BF0837BD4697
:1006240080BD00BF0C000020A2E742CE80B584B09C
:1006340000AF786039600023FB7300F019F80346BB
:10064400002B0ED07B68372B0BD83B68002B08D0CF
:10065400064A7B68134404331A783B681A700123F2
:10066400FB73FB7B18461037BD4680BD0C00002091
:1006740080B582B000AF0023FB71084B1B68084AA9
:10068400934206D100F01AF80346002B01D001234F
:10069400FB71FB7918460837BD4680BD0C0000206D
:1006A400A2E742CE80B500AF00F01EF803461A461A
:1006B400014B9A8700BF80BD0C00002080B582B03A
:1006C40000AF0023FB7100F00FF803461A46054BF8
:1006D4009B8F9A4201D10123FB71FB79184608379D
:1006E400BD4680BD0C00002080B483B000AF002361
:1006F400FB801F4B1B68DBB29AB2FB881344FB8060
:100704001B4B1B681B0ADBB29AB2FB881344FB80A9
:10071400174B1B681B0CDBB29AB2FB881344FB809B
:10072400134B1B681B0EDBB29AB2FB881344FB808D
:1007340000233B600BE00E4A3B68134404331B78F0
:100744009AB2FB881344FB803B6801333B603B68EF
:10075400372BF0D9FB88DB43FB80FB880133FB801C
:10076400FB8818460C37BD465DF8047B704700BF14
:100774000C00002080B500AF00F0DAF900F00AF8B0
:1007840000F0A8F800F070F8FFF7BCFEFFF7D1FE08
:10079400FCE7000080B594B000AF07F11C033422DD
:1007A4000021184603F006FD07F1080300221A6031
:1007B4005A609A60DA601A6100237B60284B1B6CD4
:1007C400274A43F080531364254B1B6C03F080537A
:1007D4007B607B6800233B60224B1B68214A43F407
:1007E400404313601F4B1B6803F440433B603B686A
:1007F4000123FB614FF480333B6202237B634FF49C
:100804008003BB630423FB6364233B6402237B6494
:100814000223BB640223FB6407F11C03184601F0A6
:10082400A3FD0346002B01D000F0A6F80F23BB6004
:100834000223FB6000233B614FF480537B61002360
:10084400BB6107F108030321184601F0A1FB03462D
:10085400002B01D000F090F800BF5037BD4680BD9A
:10086400003802400070004080B500AF174B184AB2
:100874001A60164B0B225A60144B00229A60134BD9
:100884000022DA60114B4FF400221A610F4B4FF42F
:10089400E0025A610D4B00221A760C4B00225A7664
:1008A4000A4B00229A76094B0022DA76074B002283
:1008B4001A77064B00225A77044800F0D3F903460E
:1008C400002B01D000F058F800BF80BD7400002058
:1008D4000064004080B588B000AF07F10C0300222B
:1008E4001A605A609A60DA601A610023BB60204B78
:1008F4001B6B1F4A43F0040313631D4B1B6B03F074
:100904000403BB60BB6800237B60194B1B6B184A54
:1009140043F080031363164B1B6B03F080037B606F
:100924007B6800233B60124B1B6B114A43F00103AD
:1009340013630F4B1B6B03F001033B603B68002206
:100944004FF400510B4801F009FB4FF40053FB60D6
:1009540001233B6100237B610023BB6107F10C038E
:100964001946044801F07EF900BF2037BD4680BD1A
:10097400003802400008024080B400AF72B600BFE5
:10098400FEE7000080B483B000AF00237B60104B0F
:100994005B6C0F4A43F4804353640D4B5B6C03F46C
:1009A40080437B607B6800233B60094B1B6C084AD7
:1009B40043F080531364064B1B6C03F080533B607D
:1009C4003B6800BF0C37BD465DF8047B704700BF31
:1009D4000038024080B58AB000AF786007F1140394
:1009E40000221A605A609A60DA601A617B681B6898
:1009F400194A93422CD100233B61184B1B6C174AB4
:100A040043F000731364154B1B6C03F000733B61DC
:100A14003B690023FB60114B1B6B104A43F001033D
:100A240013630E4B1B6B03F00103FB60FB684FF475
:100A3400C0537B610223BB610023FB6103233B6240
:100A440009237B6207F114031946054801F00AF9EA
:100A540000BF2837BD4680BD006400400038024016
:100A64000000024080B400AFFEE780B400AFFEE7B0
:100A740080B400AFFEE780B400AFFEE780B400AFFF
:100A8400FEE780B400AF00BFBD465DF8047B70474D
:100A940080B400AF00BFBD465DF8047B704780B4EE
:100AA40000AF00BFBD465DF8047B704780B500AF62
:100AB40000F0C4F800BF80BD80B400AF064BD3F88B
:100AC4008830054A43F47003C2F8883000BFBD463D
:100AD4005DF8047B704700BF00ED00E0DFF834D020
:100AE4000D480E490E4A002302E0D458C450043382
:100AF400C4188C42F9D30B4A0B4C002301E0136059
:100B04000432A242FBD3FFF7D7FF03F02FFBFFF71A
:100B140031FE704700000420000000200C0000207B
:100B2400A04200084C00002010060020FEE7000050
:100B340080B500AF0E4B1B680D4A43F4007313607D
:100B44000B4B1B680A4A43F480631360084B1B6811
:100B5400074A43F480731360032000F067FD0F20FD
:100B640000F03CF8FFF70EFF0023184680BD00BFDD
:100B7400003C024080B500AF134B4FF0FF321A62C5
:100B8400114B00221A62104B4FF0FF325A620E4B87
:100B940000225A620C4B4FF0FF321A610A4B0022BA
:100BA4001A61094B4FF0FF325A61074B00225A6118
:100BB400054B4FF0FF329A61034B00229A6100F01B
:100BC40005F80023184680BD0038024080B400AF09
:100BD40000BFBD465DF8047B7047000080B582B05D
:100BE40000AF7860124B1A68124B1B7819464FF409
:100BF4007A73B3FBF1F3B2FBF3F3184600F03DFD57
:100C04000346002B01D001230EE07B680F2B0AD88A
:100C1400002279684FF0FF3000F013FD064A7B682C
:100C24001360002300E0012318460837BD4680BD49
:100C340000000020080000200400002080B400AF61
:100C4400064B1B781A46064B1B681344044A136070
:100C540000BFBD465DF8047B704700BF080000205C
:100C64009C00002080B584B000AF78607B68002BC6
:100C740001D10123EDE07B6893F82030DBB2002B37
:100C840002D17868FFF7A6FE7B681B681A687B6848
:100C94001B6842F001021A6002F02AFEF86012E0BA
:100CA40002F026FE0246FB68D31A0A2B0BD97B6896
:100CB4005B6A43F400327B685A627B68052283F8DE
:100CC40020200123C5E07B681B685B6803F00103F7
:100CD400002BE5D07B681B681A687B681B6822F0D0
:100CE40002021A6002F004FEF86012E002F000FE54
:100CF4000246FB68D31A0A2B0BD97B685B6A43F460
:100D040000327B685A627B68052283F82020012325
:100D14009FE07B681B685B6803F00203002BE5D14E
:100D24007B681B7E012B08D17B681B681A687B6873
:100D34001B6842F080021A6007E07B681B681A682F
:100D44007B681B6822F080021A607B685B7E012B43
:100D540008D17B681B681A687B681B6842F04002F4
:100D64001A6007E07B681B681A687B681B6822F0BE
:100D740040021A607B689B7E012B08D17B681B684C
:100D84001A687B681B6842F020021A6007E07B68DF
:100D94001B681A687B681B6822F020021A607B6853
:100DA400DB7E012B08D17B681B681A687B681B6893
:100DB40022F010021A6007E07B681B681A687B68DF
:100DC4001B6842F010021A607B681B7F012B08D15C
:100DD4007B681B681A687B681B6842F008021A600B
:100DE40007E07B681B681A687B681B6822F00802AE
:100DF4001A607B685B7F012B08D17B681B681A68CB
:100E04007B681B6842F004021A6007E07B681B6879
:100E14001A687B681B6822F004021A607B689A686F
:100E24007B68DB681A437B681B691A437B685B69D0
:100E340042EA03017B685B685A1E7B681B680A43AD
:100E4400DA617B6800225A627B68012283F82020E1
:100E5400002318461037BD4680BD000080B487B01B
:100E640000AF786039607B681B687B617B6893F8AE
:100E74002030FB74FB7C012B03D0FB7C022B40F065
:100E8400BE80654B7B617B69D3F8003243F001027D
:100E94007B69C3F800227B69D3F8003223F47C52C7
:100EA4007B69C3F800227B69D3F800223B685B6A44
:100EB4001B021A437B69C3F800223B685B6903F099
:100EC4001F03012202FA03F3FB607B69D3F81C229F
:100ED400FB68DB431A407B69C3F81C223B68DB696F
:100EE400002B23D17B69D3F80C22FB68DB431A4027
:100EF4007B69C3F80C223B68DB6819043B685B68B8
:100F04009BB23A68526919437B69483243F83210FC
:100F14003B689B6819043B681B689AB23B685B6931
:100F24000A4379694833DB000B445A603B68DB6948
:100F3400012B22D17B69D3F80C22FB681A437B690D
:100F4400C3F80C223B681B6819043B685B689BB2BE
:100F54003A68526919437B69483243F832103B6856
:100F64009B6819043B68DB689AB23B685B690A4377
:100F740079694833DB000B445A603B689B69002B5A
:100F840009D17B69D3F80422FB68DB431A407B69EF
:100F9400C3F8042207E07B69D3F80422FB681A43F0
:100FA4007B69C3F804223B681B69002B09D17B6968
:100FB400D3F81422FB68DB431A407B69C3F814227C
:100FC40007E07B69D3F81422FB681A437B69C3F8F2
:100FD40014223B681B6A012B07D17B69D3F81C22BE
:100FE400FB681A437B69C3F81C227B69D3F800327F
:100FF40023F001027B69C3F80022002306E07B682A
:101004005B6A43F480227B685A62012318461C37CA
:10101400BD465DF8047B70470064004080B584B031
:1010240000AF78607B6893F82030DBB2012B2ED1BF
:101034007B68022283F820207B681B681A687B681F
:101044001B6822F001021A6002F052FCF86012E000
:1010540002F04EFC0246FB68D31A0A2B0BD97B68BC
:101064005B6A43F400327B685A627B68052283F82A
:101074002020012312E07B681B685B6803F00103F6
:10108400002BE5D17B6800225A62002306E07B68CE
:101094005B6A43F400227B685A62012318461037C6
:1010A400BD4680BD80B489B000AFF860B9607A6095
:1010B4003B60FB6893F82030FB77FB681B689B68F8
:1010C400BB61FB7F012B03D0FB7F022B40F0B88078
:1010D400BB6903F08063002B0AD1BB6903F0006392
:1010E400002B05D1BB6903F08053002B00F0A080D6
:1010F400BB691B0E03F003037B617B69022B07D9D9
:10110400FB685B6A43F40002FB685A6201239EE0B9
:1011140001227B699A403B681A60BB689B68002B7C
:101124000DD1BB681B685A05BB68DB68F9680968A0
:101134001A437B6918331B010B441A600FE0BB6828
:101144005B68DA00BB689B681A43BB68DB68F968B4
:1011540009681A437B6918331B010B441A60FB6846
:101164001968BB681A697B6918331B010B44043383
:101174001A60BB681B7D012B11D1FB681A687B695F
:1011840018331B01134404331B68FA68116843F4D1
:1011940080727B6918331B010B4404331A607B682B
:1011A40007331B781A067B6806331B781B041A4323
:1011B4007B6805331B781B0213437A680432127868
:1011C4001046FA68116843EA00027B691B010B446C
:1011D40003F5C6731A607B6803331B781A067B68B1
:1011E40002331B781B041A437B6801331B781B02F0
:1011F40013437A6812781046FA68116843EA0002C9
:101204007B691B010B4403F5C4731A60FB681A68FD
:101214007B6918331B0113441B68FA68116843F097
:1012240001027B6918331B010B441A6000230EE092
:10123400FB685B6A43F40012FB685A62012306E010
:10124400FB685B6A43F48022FB685A6201231846F8
:101254002437BD465DF8047B704780B485B000AF89
:10126400786039600023FB607B6893F82030FB7260
:10127400FB7A012B02D0FB7A022B0BD17B681B6813
:101284009A683B689B061A403B689B069A4201D0C9
:101294000123FB60FB6818461437BD465DF8047BE8
:1012A400704780B487B000AFF860B9607A603B6083
:1012B400FB6893F82030FB75FB7D012B03D0FB7D8D
:1012C400022B40F0F380BB68002B0ED1FB681B6837
:1012D400DB6803F00303002B16D1FB685B6A43F45D
:1012E4000012FB685A620123E7E0FB681B681B6974
:1012F40003F00303002B07D1FB685B6A43F400127D
:10130400FB685A620123D8E0FB681A68BB681B3388
:101314001B0113441B6803F004027B689A607B681A
:101324009B68002B0CD1FB681A68BB681B331B013C
:1013340013441B685B0DC3F30A027B681A600BE05D
:10134400FB681A68BB681B331B0113441B68DB086A
:1013540023F060427B685A60FB681A68BB681B33E1
:101364001B0113441B6803F002027B68DA60FB680C
:101374001A68BB681B331B01134404331B6803F056
:101384000F027B681A61FB681A68BB681B331B0178
:10139400134404331B681B0ADAB27B689A61FB6846
:1013A4001A68BB681B331B01134404331B681B0CF2
:1013B4009AB27B685A61FB681A68BB681B011344C4
:1013C40003F5DC731B68DAB23B681A70FB681A68B1
:1013D400BB681B01134403F5DC731B681A0A3B68E2
:1013E4000133D2B21A70FB681A68BB681B0113443C
:1013F40003F5DC731B681A0C3B680233D2B21A7013
:10140400FB681A68BB681B01134403F5DC731B6893
:101414001A0E3B680333D2B21A70FB681A68BB68B1
:101424001B01134403F5DE731A683B680433D2B21C
:101434001A70FB681A68BB681B01134403F5DE735A
:101444001B681A0A3B680533D2B21A70FB681A6823
:10145400BB681B01134403F5DE731B681A0C3B685D
:101464000633D2B21A70FB681A68BB681B011344B6
:1014740003F5DE731B681A0E3B680733D2B21A7089
:10148400BB68002B08D1FB681B68DA68FB681B6823
:1014940042F02002DA6007E0FB681B681A69FB6807
:1014A4001B6842F020021A61002306E0FB685B6AB5
:1014B40043F48022FB685A62012318461C37BD4658
:1014C4005DF8047B7047000080B485B000AF78609D
:1014D4007B6803F00703FB600C4BDB68BB60BA68F6
:1014E4004FF6FF031340BB60FB681A02BB6813434B
:1014F40043F0BF6343F40033BB60044ABB68D3606A
:1015040000BF1437BD465DF8047B704700ED00E072
:1015140080B400AF044BDB681B0A03F007031846D2
:10152400BD465DF8047B704700ED00E080B483B0F5
:1015340000AF03463960FB7197F90730002B0ADBD3
:101544003B68DAB20C4997F907301201D2B20B4466
:1015540083F800230AE03B68DAB20849FB7903F018
:101564000F03043B1201D2B20B441A7600BF0C37AE
:10157400BD465DF8047B704700E100E000ED00E04B
:1015840080B489B000AFF860B9607A60FB6803F09A
:101594000703FB61FB69C3F10703042B28BF042382
:1015A400BB61FB690433062B02D9FB69033B00E0F2
:1015B40000237B614FF0FF32BB6902FA03F3DA4385
:1015C400BB681A407B699A404FF0FF317B6901FA8E
:1015D40003F3D9437B680B40134318462437BD46B5
:1015E4005DF8047B7047000080B582B000AF78607E
:1015F4007B68013BB3F1807F01D301230FE00A4AEA
:101604007B68013B53600F214FF0FF30FFF78EFFE3
:10161400054B00229A60044B07221A6000231846E7
:101624000837BD4680BD00BF10E000E080B582B041
:1016340000AF78607868FFF747FF00BF0837BD4602
:1016440080BD80B586B000AF0346B9607A60FB7395
:1016540000237B61FFF75CFF78617A68B968786979
:10166400FFF78EFF024697F90F3011461846FFF731
:101674005DFF00BF1837BD4680BD80B582B000AFA6
:1016840078607868FFF7B0FF034618460837BD4610
:1016940080BD000080B586B000AFF860B960C7E9CE
:1016A40000230123FB75234B1B7E012B01D1022355
:1016B4003BE0204B01221A764CF2503000F070F8D7
:1016C4000346FB75FB7D002B2BD1FB68002B05D15A
:1016D4003B781946B86800F01BF916E0FB68012B4B
:1016E40005D13B881946B86800F0EEF80DE0FB68B8
:1016F400022B05D13B681946B86800F0C3F804E032
:10170400D7E90023B86800F08BF84CF2503000F0B1
:1017140047F80346FB75084B1B69074A23F001038E
:101724001361044B00221A76FB7D18461837BD4618
:1017340080BD00BFA0000020003C024080B483B004
:1017440000AF0023FB710B4B1B69002B0BDA094B19
:10175400094A5A60074B094A5A60064B1B69002B19
:1017640001DA0123FB71FB7918460C37BD465DF89D
:10177400047B7047003C024023016745AB89EFCDF1
:1017840080B400AF054B1B69044A43F00043136166
:1017940000231846BD465DF8047B7047003C0240B8
:1017A40080B584B000AF78600023FB601A4B002240
:1017B400DA6102F09DF8F86010E07B68B3F1FF3F56
:1017C4000CD07B68002B07D002F092F80246FB682D
:1017D400D31A7A689A4201D2032319E00F4BDB68CB
:1017E40003F48033002BE8D10C4BDB6803F00103D6
:1017F400002B02D0094B0122DA60084BDB6803F4AA
:10180400F973002B03D000F0A5F8012300E00023B6
:1018140018461037BD4680BDA0000020003C0240A1
:1018240080B485B000AFF860C7E90023144B1B698E
:10183400134A23F440731361114B1B69104A43F498
:10184400407313610E4B1B690D4A43F0010313618E
:10185400FB683A681A60BFF36F8F00BFD7E90001D5
:101864004FF000024FF000030A000023F96804312E
:1018740013460B6000BF1437BD465DF8047B704708
:10188400003C024080B483B000AF786039600D4BF7
:101894001B690C4A23F4407313610A4B1B69094A00
:1018A40043F400731361074B1B69064A43F00103B9
:1018B40013617B683A681A6000BF0C37BD465DF857
:1018C400047B7047003C024080B483B000AF786072
:1018D4000B467B800D4B1B690C4A23F44073136148
:1018E4000A4B1B69094A43F480731361074B1B6954
:1018F400064A43F0010313617B687A881A8000BFAB
:101904000C37BD465DF8047B704700BF003C0240C5
:1019140080B483B000AF78600B46FB700C4B1B693E
:101924000B4A23F440731361094B094A1B69136181
:10193400074B1B69064A43F0010313617B68FA787D
:101944001A7000BF0C37BD465DF8047B704700BFBA
:10195400003C024080B400AF2F4BDB6803F010035F
:10196400002B08D02D4BDB6943F010032B4AD361C5
:10197400294B1022DA60284BDB6803F02003002B8C
:1019840008D0264BDB6943F00803244AD361224B79
:101994002022DA60204BDB6803F04003002B08D0E0
:1019A4001E4BDB6943F004031C4AD3611A4B4022EB
:1019B400DA60194BDB6803F08003002B08D0174B67
:1019C400DB6943F00203154AD361134B8022DA60CA
:1019D400114BDB6803F48073002B09D00F4BDB69D8
:1019E40043F001030D4AD3610B4B4FF48072DA606C
:1019F400094BDB6803F00203002B08D0074BDB69BB
:101A040043F02003054AD361034B0222DA6000BF8E
:101A1400BD465DF8047B7047003C0240A0000020F6
:101A240080B584B000AF786039600123FB73002374
:101A3400BB60314B1B7E012B01D1022358E02E4B9E
:101A440001221A764CF25030FFF7AAFE0346FB73CC
:101A5400FB7B002B48D13B684FF0FF321A607B6858
:101A64001B68012B15D17B681B69DAB27B685B6844
:101A74001946104600F044F84CF25030FFF790FE3F
:101A84000346FB731D4B1B691C4A23F004031361BB
:101A940028E07B689B68BB601CE07B681B69DBB249
:101AA4001946B86800F050F84CF25030FFF778FE51
:101AB4000346FB73114B1B69104A23F0FA031361AD
:101AC400FB7B002B03D03B68BA681A600AE0BB6852
:101AD4000133BB607B68DA687B689B681344BA682F
:101AE4009A42DAD300F078F8034B00221A76FB7B93
:101AF40018461037BD4680BDA0000020003C0240BF
:101B040080B483B000AF03463960FB710D4B1B6991
:101B14000C4A23F4407313610A4B1B69094A43F0CE
:101B240004031361074B1A69FB791B021343054A2B
:101B340043F48033136100BF0C37BD465DF8047B6A
:101B4400704700BF003C024080B485B000AF7860AD
:101B54000B46FB700023FB60FB78002B02D10023B3
:101B6400FB6010E0FB78012B03D14FF48073FB6022
:101B740009E0FB78022B03D14FF40073FB6002E011
:101B84004FF44073FB60134B1B69124A23F44073F8
:101B94001361104B1A690F49FB6813430B610D4B1A
:101BA4001B690C4A23F0F80313610A4B1A697B681A
:101BB400DB001343074A43F002031361054B1B691F
:101BC400044A43F48033136100BF1437BD465DF803
:101BD400047B7047003C024080B400AF204B1B687C
:101BE40003F40073002B17D01D4B1B681C4A23F40D
:101BF400007313601A4B1B68194A43F400631360A3
:101C0400174B1B68164A23F400631360144B1B68BC
:101C1400134A43F400731360114B1B6803F480638D
:101C2400002B17D00E4B1B680D4A23F480631360FE
:101C34000B4B1B680A4A43F480531360084B1B6820
:101C4400074A23F480531360054B1B68044A43F48A
:101C54008063136000BFBD465DF8047B704700BF1E
:101C6400003C024080B489B000AF78603960002342
:101C74007B6100233B610023BB610023FB6153E1D3
:101C84000122FB6902FA03F37B613B681B687A69F2
:101C940013403B613A697B699A4240F042813B6858
:101CA4005B6803F00303012B05D03B685B6803F01A
:101CB4000303022B30D17B689B68BB61FB695B002B
:101CC400032202FA03F3DB43BA691340BB613B68A6
:101CD400DA68FB695B0002FA03F3BA691343BB6178
:101CE4007B68BA699A607B685B68BB610122FB69A7
:101CF40002FA03F3DB43BA691340BB613B685B68D8
:101D04001B0903F00102FB6902FA03F3BA691343E6
:101D1400BB617B68BA695A603B685B6803F0030384
:101D2400032B17D07B68DB68BB61FB695B00032274
:101D340002FA03F3DB43BA691340BB613B689A6858
:101D4400FB695B0002FA03F3BA691343BB617B6866
:101D5400BA69DA603B685B6803F00303022B23D1A2
:101D6400FB69DA087B68083253F82230BB61FB69EF
:101D740003F007039B000F2202FA03F3DB43BA6963
:101D84001340BB613B681A69FB6903F007039B00BE
:101D940002FA03F3BA691343BB61FB69DA087B688F
:101DA4000832B96943F822107B681B68BB61FB6980
:101DB4005B00032202FA03F3DB43BA691340BB61FD
:101DC4003B685B6803F00302FB695B0002FA03F300
:101DD400BA691343BB617B68BA691A603B685B6884
:101DE40003F44033002B00F09C800023FB60544B31
:101DF4005B6C534A43F480435364514B5B6C03F470
:101E04008043FB60FB684F4AFB699B08023352F82E
:101E14002330BB61FB6903F003039B000F2202FA2A
:101E240003F3DB43BA691340BB617B68464A9342C0
:101E340013D07B68454A93420DD07B68444A934251
:101E440007D07B68434A934201D1032306E007236A
:101E540004E0022302E0012300E00023FA6902F017
:101E6400030292009340BA691343BB613549FB698D
:101E74009B080233BA6941F82320374B9B68BB6146
:101E84003B69DB43BA691340BB613B685B6803F49D
:101E94008013002B03D0BA693B691343BB612E4AFC
:101EA400BB6993602C4BDB68BB613B69DB43BA695C
:101EB4001340BB613B685B6803F40013002B03D041
:101EC400BA693B691343BB61234ABB69D360224BA4
:101ED4005B68BB613B69DB43BA691340BB613B6828
:101EE4005B6803F40033002B03D0BA693B691343E6
:101EF400BB61194ABB695360174B1B68BB613B69E3
:101F0400DB43BA691340BB613B685B6803F480330D
:101F1400002B03D0BA693B691343BB610E4ABB690A
:101F24001360FB690133FB61FB690F2B7FF6A8AEDD
:101F340000BF00BF2437BD465DF8047B704700BF77
:101F44000038024000380140000002400004024012
:101F540000080240000C0240003C014080B483B001
:101F640000AF78600B467B8013467B707B78002B38
:101F740003D07A887B689A6103E07B881A047B68C3
:101F84009A6100BF0C37BD465DF8047B70470000C2
:101F940080B584B000AF786039607B68002B01D1D4
:101FA4000123CCE0684B1B6803F007033A689A42AC
:101FB4000CD9654B3A68D2B21A70634B1B6803F0B4
:101FC40007033A689A4201D00123B8E07B681B6892
:101FD40003F00203002B20D07B681B6803F004038A
:101FE400002B05D0594B9B68584A43F4E053936047
:101FF4007B681B6803F00803002B05D0534B9B68D8
:10200400524A43F460439360504B9B6823F0F002C0
:102014007B689B684D4913438B607B681B6803F0A6
:102024000103002B44D07B685B68012B07D1474B2D
:102034001B6803F40033002B19D101237FE07B6874
:102044005B68022B03D07B685B68032B07D13F4B93
:102054001B6803F00073002B09D101236FE03B4B95
:102064001B6803F00203002B01D1012367E0374B07
:102074009B6823F003027B685B68344913438B60DD
:1020840001F036FCF8600AE001F032FC0246FB681D
:10209400D31A41F28832934201D903234FE02B4BE8
:1020A4009B6803F00C027B685B689B009A42EBD14F
:1020B400254B1B6803F007033A689A420CD2224B63
:1020C4003A68D2B21A70204B1B6803F007033A68CF
:1020D4009A4201D0012332E07B681B6803F00403B9
:1020E400002B08D0194B9B6823F4E0527B68DB6813
:1020F400164913438B607B681B6803F00803002BAD
:1021040009D0124B9B6823F460427B681B69DB0097
:102114000E4913438B6000F021F802460B4B9B6879
:102124001B0903F00F030A49CB5C22FA03F3094AA3
:102134001360094B1B681846FEF750FD0023184630
:102144001037BD4680BD00BF003C0240003802404D
:102154000442000800000020040000202DE9B04FD4
:1021640094B000AF00237B640023FB6400233B6432
:102174000023BB64794B9B6803F00C03082B0DD040
:10218400082B00F2E180002B02D0042B03D0DBE00B
:10219400734BBB64DBE0734BBB64D8E06F4B5B6891
:1021A40003F03F037B646D4B5B6803F48003002BF7
:1021B40063D06A4B5B689B090022BB63FA63BB6B09
:1021C400C3F308033B6300237B63D7E90C45224632
:1021D4002B464FF000004FF00001590141EAD26153
:1021E400500102460B462146511A3961294663EBD8
:1021F40001037B614FF000024FF00003D7E904AB09
:1022040059468B01514643EA916351468A0151462E
:10221400B2EB0108594663EB01094FF000024FF09D
:1022240000034FEAC90343EA58734FEAC8029046D1
:102234009946234618EB0303BB602B4649EB030383
:10224400FB604FF000024FF00003D7E90245294636
:102254004B02214643EAD15321464A02104619460D
:102264007B6C0022BB62FA62D7E90A23FDF7C8FF40
:1022740002460B461346FB6458E0384B5B689B09E7
:10228400002218461146C0F308033B6200237B6218
:10229400D7E9088942464B464FF000004FF0000151
:1022A400590141EAD261500102460B464146B2EB64
:1022B400010A494663EB010B4FF000024FF00003A3
:1022C4004FEA8B1343EA9A634FEA8A12B2EB0A0489
:1022D40063EB0B054FF000024FF00003EB0043EA01
:1022E4005473E20014461D464346E3183B604B46D4
:1022F40045EB03037B604FF000024FF00003D7E986
:10230400004529468B02214643EA915321468A021D
:10231400104619467B6C0022BB61FA61D7E906239B
:10232400FDF76EFF02460B461346FB640B4B5B68DE
:102334001B0C03F0030301335B003B64FA6C3B6C3E
:10234400B2FBF3F3BB6402E0054BBB6400BFBB6CA0
:1023540018465037BD46BDE8B08F00BF0038024074
:102364000024F40000127A0080B586B000AF7860D3
:102374007B68002B01D1012373E27B681B6803F0A7
:102384000103002B75D0884B9B6803F00C03042BCE
:102394000CD0854B9B6803F00C03082B12D1824BA5
:1023A4005B6803F48003B3F5800F0BD17E4B1B688D
:1023B40003F40033002B5BD07B685B68002B57D1A0
:1023C40001234EE27B685B68B3F5803F06D1764B10
:1023D4001B68754A43F4803313601DE07B685B68B7
:1023E400B3F5A02F0CD1704B1B686F4A43F48023C4
:1023F40013606D4B1B686C4A43F4803313600BE02D
:10240400694B1B68684A23F480331360664B1B686E
:10241400654A23F4802313607B685B68002B13D028
:1024240001F066FA386108E001F062FA02463B699D
:10243400D31A642B01D9032313E25B4B1B6803F407
:102444000033002BF0D014E001F052FA386108E0B8
:1024540001F04EFA02463B69D31A642B01D90323D7
:10246400FFE1514B1B6803F40033002BF0D100E073
:1024740000BF7B681B6803F00203002B63D04A4B48
:102484009B6803F00C03002B0BD0474B9B6803F0B5
:102494000C03082B1CD1444B5B6803F48003002B12
:1024A40016D1414B1B6803F00203002B05D07B6857
:1024B400DB68012B01D00123D3E13B4B1B6823F0E4
:1024C400F8027B681B69DB00374913430B603AE071
:1024D4007B68DB68002B20D0344B01221A6001F0AA
:1024E40007FA386108E001F003FA02463B69D31A9F
:1024F400022B01D90323B4E12B4B1B6803F0020325
:10250400002BF0D0284B1B6823F0F8027B681B6972
:10251400DB00254913430B6015E0244B00221A60AD
:1025240001F0E6F9386108E001F0E2F902463B699E
:10253400D31A022B01D9032393E11B4B1B6803F02D
:102544000203002BF0D17B681B6803F00803002B07
:1025540036D07B685B69002B16D0154B01221A60BC
:1025640001F0C6F9386108E001F0C2F902463B699E
:10257400D31A022B01D9032373E10B4B5B6F03F0D6
:102584000203002BF0D01BE0094B00221A6001F07B
:10259400AFF938610EE001F0ABF902463B69D31A9A
:1025A400022B07D903235CE10038024000004742B4
:1025B400800E47428A4B5B6F03F00203002BEAD183
:1025C4007B681B6803F00403002B00F09780002352
:1025D400FB75834B1B6C03F08053002B0FD100233E
:1025E400BB607F4B1B6C7E4A43F0805313647C4B6F
:1025F4001B6C03F08053BB60BB680123FB75794BF4
:102604001B6803F48073002B18D1764B1B68754A42
:1026140043F48073136001F06BF9386108E001F052
:1026240067F902463B69D31A022B01D9032318E147
:102634006C4B1B6803F48073002BF0D07B689B68A1
:10264400012B06D1664B1B6F654A43F001031367E8
:102654001CE07B689B68052B0CD1614B1B6F604AA7
:1026640043F0040313675E4B1B6F5D4A43F00103A1
:1026740013670BE05A4B1B6F594A23F0010313678E
:10268400574B1B6F564A23F0040313677B689B6800
:10269400002B15D001F02CF938610AE001F028F97B
:1026A40002463B69D31A41F28832934201D903238B
:1026B400D7E04B4B1B6F03F00203002BEED014E06A
:1026C40001F016F938610AE001F012F902463B699B
:1026D400D31A41F28832934201D90323C1E0404B1B
:1026E4001B6F03F00203002BEED1FB7D012B05D100
:1026F4003B4B1B6C3A4A23F0805313647B689B6901
:10270400002B00F0AD80364B9B6803F00C03082BC4
:1027140060D07B689B69022B45D1334B00221A6041
:1027240001F0E6F8386108E001F0E2F802463B699E
:10273400D31A022B01D9032393E0294B1B6803F01E
:102744000073002BF0D17B68DA697B681B6A1A433B
:102754007B685B6A9B011A437B689B6A5B08013B4D
:102764001B041A437B68DB6A1B061A437B681B6BDA
:102774001B071B4913434B601B4B01221A6001F0DA
:10278400B7F8386108E001F0B3F802463B69D31AA0
:10279400022B01D9032364E0114B1B6803F000737F
:1027A400002BF0D05CE0104B00221A6001F0A0F87E
:1027B400386108E001F09CF802463B69D31A022B09
:1027C40001D903234DE0064B1B6803F00073002B73
:1027D400F0D145E07B689B69012B07D1012340E0E0
:1027E4000038024000700040600047421F4B5B68A5
:1027F400FB607B689B69012B30D0FB6803F480028B
:102804007B68DB699A4229D1FB6803F03F027B684D
:102814001B6A9A4222D1FA6847F6C07313407A6859
:10282400526A9201934219D1FB6803F440327B68E7
:102834009B6A5B08013B1B049A420FD1FB6803F0BF
:1028440070627B68DB6A1B069A4207D1FB6803F05F
:10285400E0427B681B6B1B079A4201D0012300E016
:10286400002318461837BD4680BD00BF003802401B
:1028740080B400AF044B9B6803F00C031846BD46BC
:102884005DF8047B704700BF0038024080B400AF9D
:10289400044B9B6803F0F0031846BD465DF8047BC7
:1028A400704700BF0038024080B400AF044B9B68FF
:1028B40003F4E0531846BD465DF8047B704700BF3F
:1028C4000038024080B400AF044B9B6803F46043BB
:1028D4001846BD465DF8047B704700BF00380240CF
:1028E40080B400AF044B5B6803F480031846BD4614
:1028F4005DF8047B704700BF0038024080B400AF2D
:10290400044B5B689B09C3F308031846BD465DF896
:10291400047B70470038024080B400AF044B5B680E
:1029240003F440331846BD465DF8047B704700BF8E
:102934000038024080B400AF044B5B6803F03F03EF
:102944001846BD465DF8047B704700BF003802405E
:1029540080B582B000AF786000F020F802467B6852
:102964001A607B681B68184600F040F802467B68D2
:102974005A607B685B68184600F04EF802467B6834
:102984009A607B685B68184600F05AF802467B68D8
:10299400DA6000BF0837BD4680BD000080B582B054
:1029A40000AF00237B60FFF763FF0346082B0CD0C6
:1029B400082B0FD8002B02D0042B03D00AE0094BBC
:1029C4007B600AE0084B7B6007E0082000F04CF8CD
:1029D400786002E0034B7B6000BF7B6818460837D1
:1029E400BD4680BD0024F40000127A0080B582B098
:1029F40000AF7860FFF74AFF03461B0903F00F039B
:102A0400044AD35C1A467B68D34018460837BD464F
:102A140080BD00BF0442000880B582B000AF78607A
:102A2400FFF742FF03469B0A044AD35C1A467B68BD
:102A3400D34018460837BD4680BD00BF1442000885
:102A440080B582B000AF7860FFF73CFF03465B0BB4
:102A5400044AD35C1A467B68D34018460837BD46FF
:102A640080BD00BF1442000890B587B000AF786005
:102A740000237B610023FB6000233B61FFF730FFF1
:102A8400F860FB68002B04D0FB68B3F5800F03D01B
:102A940005E0124B7B6105E0114B7B6102E00F4BBB
:102AA4007B6100BF7B68082B13D1FFF743FF02460D
:102AB4007B69B3FBF2F4FFF721FF034603FB04F445
:102AC400FFF72AFF03461B0C01335B00B4FBF3F34F
:102AD4003B613B6918461C37BD4690BD0024F40099
:102AE40000127A0080B582B000AF7860396000F0DF
:102AF400AEFAFCE780B500AF044B01221A7000F077
:102B04002DF800F005F800BF80BD00BFC000002014
:102B140080B500AF00F07EFA0346012B15D00C4BB4
:102B24001B78012B12D100F0D9FE0146094B1A681B
:102B3400094B1B68134403F5FA73994206D3044BFB
:102B440000221A7000F090FA00E000BF80BD00BFC0
:102B5400C0000020C8000020C400002080B500AFE1
:102B6400054B1B78012B04D100F0B8FE0346034A41
:102B7400136000BF80BD00BFC0000020C40000205F
:102B840080B500AF00F069FA00F05BFA00F066FE71
:102B940000F024FE00F0A0F9FFF7ACFF00BF80BDF9
:102BA40080B500AF00F053FA00F082FE00F0A2F905
:102BB400FFF7AEFF00BF80BD80B58AB000AFB9603B
:102BC4007A603B600346FB8107F110031846FFF768
:102BD400BFFEBB69314AA2FB03239B093B6200236E
:102BE40087F8273050E0FA8997F827302C4911F8F4
:102BF4001330184697F8273029495B000B445B785B
:102C04000344013302FB03F31A463B6AB3FBF2F1BC
:102C140001FB02F29B1A002B31D1FA8997F8273075
:102C24001F4911F81330184697F827301C495B00E8
:102C34000B445B780344013302FB03F31A463B6AFB
:102C4400B3FBF2F39AB2BB681A80BB681B88002BF3
:102C540015D0BB681B88B3F5806F10D897F8273060
:102C64000F4A12F813207B681A7097F827300C4A21
:102C74005B0013445A783B681A70012309E097F803
:102C84002730013387F8273097F82730112BAAD93A
:102C9400002318462837BD4680BD00BFD34D6210BF
:102CA4001C42000880B58EB000AF00237B85002352
:102CB40087F82930002387F8283040F26763FB62E5
:102CC40007F1280307F1290207F12A01FA20FFF787
:102CD40073FF0346002B03D1B5213448FFF702FFED
:102CE400334B344A1A60324B00221A76304B00229E
:102CF4005A762F4B00229A762D4B0122DA762C4BF2
:102D040000221A772A4B00225A77294B00229A6014
:102D1400274B0022DA6097F82930013B1B04244A30
:102D2400136197F82830013B1B05214A53617B8DC1
:102D34001A461F4B5A601E48FDF794FFFB6A002B8E
:102D440005DBFB6A5B057B631B4B3B630AE0FB6AA9
:102D540023F00043FB62FB6ADB0043F004037B6364
:102D6400164B3B6300237B610023BB610123FB61A2
:102D74007B6B1B0C3B607B6B9BB27B603B6B1B0CCC
:102D8400BB603B6B9BB2FB6000233B6101233B6256
:102D94000E237B623B4619460548FEF75FF804485C
:102DA400FEF73CF900BF3837BD4680BDE04100085E
:102DB400CC000020006400400400E0FFFCFF1F0082
:102DC40080B58CB000AF78600B46FB7040F2E173C5
:102DD400FB62FB6A002B04DBFB6AFB6000237B6164
:102DE40007E0FB6A23F00043FB62FB6A3B610423B8
:102DF4007B610023BB61FB78FB6107F1080307F1EA
:102E04000C017A681248FEF74DF9034687F82B3017
:102E140097F82B30002B17D100F060FD03463233B6
:102E24007B6207E000F013F900F058FD02467B6A6C
:102E3400934208D3BB6819460548FEF70EFA0346C9
:102E4400002BEFD100E000BF00BF3037BD4680BD8E
:102E5400CC00002080B58CB000AF7860396040F2BF
:102E64006763BB62002387F82F3007F10C027B688D
:102E740000211848FEF715FA0346002B1BD1BB6A44
:102E8400002B0ADBFB68BA6A9A4214D17B69002BD7
:102E940011D1012387F82F300DE0BB6A23F00043E2
:102EA400BB623B69BA6A9A4205D17B69042B02D1A1
:102EB400012387F82F3097F82F30012B03D1FB69BA
:102EC400DAB23B681A7097F82F3018463037BD468F
:102ED40080BD00BFCC00002080B500AF00F010FD25
:102EE400FFF7E0FE024B01221A7000BF80BD00BF55
:102EF4000900002080B582B000AFFB1D19460948C7
:102F0400FFF7A8FF0346012B07D1074B01221A70D4
:102F1400FB791946034800F035FD00BF0837BD466C
:102F240080BD00BFF40000200900002080B400AF81
:102F340000BFBD465DF8047B7047000080B582B0D9
:102F440000AF78600B467B80074B1B78012B05D1C3
:102F54007B88DBB219467868FFF732FF00F004FD86
:102F640000BF0837BD4680BD0900002080B483B08F
:102F740000AF124B1B78032B16D801A252F823F092
:102F8400952F00089B2F0008A12F0008A72F0008E9
:102F94008123FB800BE00823FB8008E03F23FB80B8
:102FA40005E08123FB8002E08123FB8000BFFB88D6
:102FB40018460C37BD465DF8047B704709000020B5
:102FC40080B483B000AF124B1B78032B16D801A238
:102FD40052F823F0E92F0008EF2F0008F52F00081E
:102FE400FB2F00088123FB800BE00823FB8008E013
:102FF4003F23FB8005E08123FB8002E08123FB80EB
:1030040000BFFB8818460C37BD465DF8047B70474B
:103014000900002080B582B000AF0023FB7100F0EE
:1030240091FC0346002B01D00123FB71FB79184668
:103034000837BD4680BD80B500AFFFF78FFD00BFE8
:1030440080BD80B500AFFDF77AFA00BF80BD80B5C2
:1030540000AFFDF77BFA00BF80BD80B500AF00F084
:103064004FF800BF80BD000080B582B000AF00F013
:10307400D9FB0346002B02D1FFF7DDFF1AE0FFF76F
:1030840055FFFDF777FD00F001FC00F0D2FB03468D
:103094000A4A23F0604323F07F03936000F0C9FBE6
:1030A400034604331B687B6000F032F87B68984762
:1030B400FFF7C1FF0837BD4680BD00BF00ED00E04B
:1030C40080B586B000AFF860B9601346FB80BB687A
:1030D4007B61FB683B6109E07A69531C7B613B6956
:1030E400591C396112781A70FFF7B1FFFB885A1E18
:1030F400FA80002BF0D100BF00BF1837BD4680BD59
:1031040080B400AF72B600BFBD465DF8047B704763
:1031140080B400AF62B600BFBD465DF8047B704763
:1031240080B400AF064B4FF0FF321A60054B4FF0EE
:10313400FF321A6000BFBD465DF8047B704700BFD4
:10314400780100207C03002080B586B000AFF860D1
:10315400B9607A60BB685A1E1C494FF400331944A5
:10316400FB68CB1A013B9A4201D900232AE0F86894
:1031740000F0F0FA0346FF2B09D0FA68BB68134449
:10318400013B184600F0E6FA0346FF2B01D1002369
:1031940018E0FB6823F4FF7323F001037B610C4AFE
:1031A4007B69934207D1BB687A68F968094800F0E3
:1031B40067F9034606E0BB687A68F968064800F0D8
:1031C4005FF9034618461837BD4680BD000006085F
:1031D400008000087C0300207801002080B584B0C2
:1031E40000AF786039603B685A1E16494FF40033CB
:1031F40019447B68CB1A013B9A4201D900231CE095
:10320400786800F0A7FA0346FB737A683B681344B6
:10321400013B184600F09EFA0346BB73FB7BFF2B71
:1032240002D0BB7BFF2B01D1002306E0BA7BFB7BE2
:103234001146184600F030FA034618461037BD46CA
:1032440080BD00BF0000060880B582B000AF002337
:103254007B601E4B1B68B3F1FF3F01D1012331E0BA
:103264001B4B1A687B6813447B601A4B1A687B6893
:1032740013447B60184B1A687B6813447B60174BBC
:103284001A687B6813447B60154B1A687B68134487
:103294007B60144B1A687B6813447B60124B1A687A
:1032A4007B6813447B607B68DB437B607B68013312
:1032B4007B600E4B03F5E2733A1D04211846FFF7B9
:1032C40043FF034618460837BD4680BD7C030020F3
:1032D4008003002084030020880300208C03002046
:1032E400900300209403002098030020008000082D
:1032F40080B483B000AF00237B601E4B1B687A68E8
:1033040013447B601B4B04331B687A6813447B6053
:10331400184B08331B687A6813447B60154B0C33D5
:103324001B687A6813447B60124B10331B687A68FD
:1033340013447B600F4B14331B687A6813447B601F
:103344000C4B18331B687A6813447B60094B03F5F4
:10335400E2731B687A6813447B607B68002B01D19D
:10336400012300E0002318460C37BD465DF8047BBA
:10337400704700BF0080000880B500AF0E4B1B688B
:10338400B3F1FF3F07D00C4800F0DCF80346002BF4
:1033940001D100230DE0094B1B68B3F1FF3F07D0B7
:1033A400064800F0CFF80346002B01D1002300E0CB
:1033B4000123184680BD00BF7C0300207801002053
:1033C40080B400AF024B1846BD465DF8047B7047DD
:1033D4000080000880B582B000AF786039603B6837
:1033E400C3F30803002B01D0002312E07B681B68A1
:1033F4003A689A4201D101230BE07B683A681A606B
:103404007B6804334FF4007239681846FFF758FE9E
:10341400012318460837BD4680BD000080B582B040
:1034240000AF786039607B68124A934202D1124B34
:103434007B6010E0114A3B68934204D10D4B7B60E2
:103444000E4B3B6007E0786800F07CF80346002BE5
:1034540001D1002309E039687868FFF7BBFF034610
:10346400002B01D1002300E07B6818460837BD46D5
:1034740080BD00BF7C03002078010020008000088C
:1034840080B588B000AFF860B9607A603B60BB6813
:1034940023F4FF7323F001037B61FB681B68B3F122
:1034A400FF3F08D17969F868FFF794FF0346002BC2
:1034B40001D1002342E0FB681B687A699A4209D073
:1034C4007969F868FFF7AAFFF860FB68002B01D15F
:1034D400002333E0FB681B68BA68D31AFA68134404
:1034E4000433FB617B68BB61FFF7B1FDFB68043308
:1034F400FA69D31AB3F5007F0FD37B6903F5007320
:103504001946F868FFF78AFFF860FB68002B01D1C1
:10351400002313E0FB680433FB61BB691A78FB6981
:103524001A70FB690133FB61BB690133BB613B6802
:10353400013B3B603B68002BD6D101231846203762
:10354400BD4680BDB0B586B000AF78600123FB7482
:10355400FEF7F4F800237B6129E07B681A687B6935
:103564009B001344FB607B699B007A68134404331B
:103574001B68BB60FFF76BFDBB6800221C46154649
:1035840022462B46F9680220FEF784F80346002BF6
:1035940002D00023FB740DE0FB681B68BA689A42F2
:1035A40002D00023FB7405E07B6901337B617B69F6
:1035B4007F2BD2D9FEF7E4F8FB7C18461837BD46BA
:1035C400B0BD000080B588B000AF0346FB71002396
:1035D400FB770023BB7752E0BA7F2D4913465B008B
:1035E40013449B000B4408331B78FA799A4243D165
:1035F400BA7F274913465B0013449B000B441B68A6
:103604003B61BA7F224913465B0013449B000B4481
:1036140004331B68FB603B6903F00303002B04D1F4
:10362400FB6803F00303002B04D040F2C5211948C2
:10363400FFF758FA0123FB773B697B610023BB61E9
:1036440014E0BB69DBB2002B01D1FFF700FD7B69FD
:103654001B68B3F1FF3F03D00023FB7700BF11E0E9
:103664007B6904337B61BB690133BB61FB689B08E5
:10367400BA699A42E5D305E0BB7F0133BB77BB7FD0
:10368400052BA9D9FB7F18462037BD4680BD00BF56
:1036940040420008F041000880B58AB000AF0346FC
:1036A4000A46FB711346BB71012387F827300023B8
:1036B400FB60FA79BB799A4202D9002387F8273054
:1036C4000222FB79934203D30722BB79934202D9A6
:1036D400002387F8273097F82730012B33D10023B4
:1036E4003B6102233B620123FB61FEF727F8FB7970
:1036F40087F8263020E097F826301846FFF762FF57
:103704000346002B13D1FFF7A2FC97F82630BB61C8
:1037140007F10C0207F1100311461846FEF780F971
:103724000346002B03D0002387F8273009E097F8DD
:103734002630013387F8263097F82620BB799A4241
:10374400D9D9FEF71DF897F8273018462837BD4613
:1037540080BD000080B584B000AF7860FF23FB73A8
:103764000023BB732FE0FFF772FCBA7B1A491346A0
:103774005B0013449B000B441B687A689A421FD376
:10378400BA7B154913465B0013449B000B4419682C
:10379400BA7B114813465B0013449B000344043373
:1037A4001B680B447A689A420AD2BA7B0A491346C8
:1037B4005B0013449B000B4408331B78FB7305E048
:1037C400BB7B0133BB73BB7B052BCCD9FB7B18467E
:1037D4001037BD4680BD00BF4042000880B500AF31
:1037E400FFF79EFC00BF80BD80B584B000AFF860D9
:1037F400B9607A607A68B968F868FFF7A5FC03468F
:1038040018461037BD4680BD80B582B000AF7860E1
:10381400396039687868FFF7E1FC034618460837D1
:10382400BD4680BD80B500AFFFF762FD0346184674
:1038340080BD80B500AFFFF7C3FD0346184680BDC9
:1038440080B500AFFFF700FD0346002B01D1002334
:1038540002E0FFF791FD0346184680BD80B500AF36
:1038640000F014F8064B074A5A60054B00229A6090
:10387400034B05221A60044B00221A6000BF80BD6E
:1038840010E000E09F8601008005002080B400AFB6
:10389400064B00221A60054B00225A60034B00229B
:1038A4009A6000BFBD465DF8047B704710E000E0FD
:1038B40080B400AF074B1B6803F48033002B04D0A3
:1038C400054B1B680133044A136000BFBD465DF815
:1038D400047B704710E000E08005002080B500AF55
:1038E400FFF7E6FF014B1B68184680BD80050020EA
:1038F40080B500AFFFF7F2FF0346184680BD000015
:1039040080B400AF0E4B002283F881200C4B0022C0
:10391400C3F888200A4B002283F88420084B002235
:10392400A3F88620064B002283F88320044B002250
:1039340083F8822000BFBD465DF8047B704700BF5A
:103944008405002080B400AF064B93F88130002B2F
:1039540001D1002300E001231846BD465DF8047B35
:10396400704700BF8405002080B400AF044B0022E0
:1039740083F8842000BFBD465DF8047B704700BF18
:103984008405002080B582B000AF78600B46FB70E0
:103994007B681B78FF2B03D1786800F079F9B7E0D6
:1039A4006A4B93F88130012B40F0CB807B681B7805
:1039B400C93B352B00F2A88001A252F823F000BFC6
:1039C400DD3A00080D3B00080D3B0008053B0008EC
:1039D4000D3B00080D3B0008FD3A0008E53A0008DD
:1039E400F53A0008ED3A00080D3B00080D3B0008CD
:1039F4000D3B00080D3B00080D3B00080D3B000883
:103A04000D3B00080D3B00080D3B00080D3B000872
:103A14000D3B00080D3B00080D3B00080D3B000862
:103A24000D3B00080D3B00080D3B00080D3B000852
:103A34000D3B00080D3B00080D3B00080D3B000842
:103A44000D3B00080D3B00080D3B00080D3B000832
:103A54000D3B00080D3B00080D3B00080D3B000822
:103A64000D3B00080D3B0008B53A0008A53A0008D4
:103A74009D3A0008AD3A00080D3B00080D3B0008D4
:103A84000D3B0008BD3A00080D3B0008C53A00088C
:103A9400CD3A0008D53A0008786800F0C7F937E055
:103AA400786800F001FA33E0786800F0A5F92FE0B7
:103AB400786800F041FA2BE0786800F075F927E0A7
:103AC400786800F065F923E0786800F03DF91FE0BC
:103AD400786800F021F91BE0786800F087FA17E0B5
:103AE400786800F0B3FA13E0786800F059FA0FE050
:103AF400786800F0F5FA0BE0786800F017FB07E04F
:103B0400786800F027FB03E0202000F05FF800BF96
:103B14000E4B93F88430012B02D1102000F056F89C
:103B24000A4BB3F98630002B0CDD084B012283F8D5
:103B34008420064BB3F986301946044800F008F88F
:103B440000E000BF0837BD4680BD00BF84050020EB
:103B540080B582B000AF78600B467B807B881946C5
:103B64007868FFF7EBF900BF0837BD4680BD80B524
:103B740086B000AFF860B9607A600023FB7509E095
:103B8400FB681A78FB7D1344FB75FB680133FB600B
:103B9400FFF75DFABB685A1EBA60002BF0D1FA7DBC
:103BA4007B681A60012318461837BD4680BD0000A3
:103BB40080B400AF044B002283F8822000BFBD46CE
:103BC4005DF8047B704700BF8405002080B483B097
:103BD40000AF0346FB71084BFE221A70064AFB79BC
:103BE4005370054B0222A3F8862000BF0C37BD4654
:103BF4005DF8047B704700BF8405002080B485B065
:103C040000AF78600023FB607B681B781A46FB6872
:103C14001343FB607B6801331B781B02FA68134370
:103C2400FB607B6802331B781B04FA681343FB6058
:103C34007B6803331B781B06FA681343FB60FB683D
:103C440018461437BD465DF8047B704780B483B0D2
:103C540000AF786039607B68DAB23B681A707B68C1
:103C64001A0A3B680133D2B21A707B681A0C3B689B
:103C74000233D2B21A707B681A0E3B680333D2B295
:103C84001A7000BF0C37BD465DF8047B7047000016
:103C940080B582B000AF7860FFF78AFF1D4B012228
:103CA40083F881201B4BFF221A701A4B00225A7092
:103CB400184B5B7843F01003DAB2164B5A70154B6D
:103CC40000229A70134B9A78124B9A70FFF74EF9B0
:103CD4000346DAB20F4BDA70FFF772F90346DAB231
:103CE4000C4B1A71FFF76CF903461B0A9BB2DAB24C
:103CF400084B5A71074B01229A71064B0122DA7163
:103D0400044B0822A3F88620FFF768FD00BF08379C
:103D1400BD4680BD8405002080B582B000AF7860C8
:103D2400084B002283F88120FFF742FF054BFF2256
:103D34001A70044B0122A3F8862000BF0837BD4641
:103D440080BD00BF8405002080B483B000AF7860DC
:103D54000E4BFF221A700D4B00225A700B4B93F836
:103D640082200A4B9A70094B0022DA70074B00221A
:103D74001A71064B00225A71044B0622A3F88620BE
:103D840000BF0C37BD465DF8047B704784050020F6
:103D940080B582B000AF78600020FFF717FF00BF46
:103DA4000837BD4680BD000080B584B000AF7860A0
:103DB4000E4BFF221A700E4A0C4BC3F888200B4B93
:103DC40000225A70094B00229A70084B0022DA70C4
:103DD4000723FB600749F868FFF738FF034B082205
:103DE400A3F8862000BF1037BD4680BD840500209F
:103DF400884200088805002080B582B000AF786052
:103E0400094BFF221A707B6804331846FFF7F6FE4D
:103E14000346054AC2F88830034B0122A3F88620E2
:103E240000BF0837BD4680BD8405002080B584B03E
:103E340000AF7860FFF79AF803461A467B680133AF
:103E44001B789BB29A4203D82220FFF7BFFE24E0DE
:103E54007B6801331B78FB81114BBB60BB68114A43
:103E6400D2F88810FA891846FFF72AF90D4BFF2279
:103E74001A700C4BD3F888307A68013212781344E4
:103E8400084AC2F888307B6801331B789BB201333F
:103E94009BB21AB2034BA3F886201037BD4680BDEF
:103EA400850500208405002080B584B000AF7860CB
:103EB400FFF75CF803461A467B6801331B789BB214
:103EC4009A4203D82220FFF781FE2DE07B68043359
:103ED4001846FFF793FE0346154AC2F888307B68FC
:103EE40001331B78FB81134BBB60BB68104AD2F8CB
:103EF4008810FA891846FFF7E3F80D4BFF221A7071
:103F04000B4BD3F888307A68013212781344084A8C
:103F1400C2F888307B6801331B789BB201339BB2B3
:103F24001AB2034BA3F886201037BD4680BD00BFEC
:103F3400840500208505002080B586B000AF786038
:103F44000023FB60144BFF221A707B68043318466D
:103F5400FFF754FE7861104BD3F8883007F10C0258
:103F640079691846FFF703FE0346FB740A4AFB7C93
:103F74005370FB6809491846FFF768FE064B002298
:103F84009A70054B0022DA70034B0822A3F88620AE
:103F940000BF1837BD4680BD840500208805002079
:103FA40080B582B000AF78600F4BFF221A700E4BC1
:103FB40000225A700C4B00229A70FEF7D7FF03467A
:103FC400DAB2094BDA70084B00221A71064B002250
:103FD4005A71054B00229A71034B0722A3F88620DD
:103FE40000BF0837BD4680BD8405002090B583B06E
:103FF40000AF7860144BD3F88840FEF7B7FF034650
:10400400013B19467B6801331A462046FFF7ECFB57
:104014000346002B03D13120FFF7D8FD11E00A4BF2
:10402400FF221A70FEF7A2FF03465A1E064BD3F86E
:1040340088301344044AC2F88830034B0122A3F8A1
:1040440086200C37BD4690BD8405002080B582B023
:1040540000AF7860FEF78AFF0346013B7A680132BD
:104064001278934203DC2220FFF7B0FD33E01B4BB0
:10407400FF221A70194B0122A3F886207B680133B2
:104084001B78002B08D1FFF7DBFB0346002B21D163
:104094003120FFF79BFD1DE0104BD3F888007B68AF
:1040A40001331B7819467B6802331A46FFF79CFBE1
:1040B4000346002B03D13120FFF788FD0BE0074BAB
:1040C400D3F888307A68013212781344034AC2F86C
:1040D400883000E000BF0837BD4680BD840500205D
:1040E40080B584B000AF78600F4BD3F88830FB60A4
:1040F4007B6804331846FFF781FDB860B968F86837
:10410400FFF782FB0346002B03D13120FFF75EFD4E
:1041140006E0054BFF221A70034B0122A3F8862008
:104124001037BD4680BD00BF8405002080B582B035
:1041340000AF7860FEF798FF054BFF221A70044B1E
:104144000122A3F8862000BF0837BD4680BD00BF0A
:104154008405002080B582B000AF78603120FFF77D
:1041640035FD00BF0837BD4680BD000070B50D4D5C
:104174000D4C641BA4100026A64209D10B4D0C4C17
:1041840000F020F8641BA4100026A64205D170BDDF
:1041940055F8043B98470136EEE755F8043B984739
:1041A4000136F2E798420008984200089842000855
:1041B4009C42000802440346934200D1704703F82E
:1041C400011BF9E7F8B500BFF8BC08BC9E46704770
:0C41D400F8B500BFF8BC08BC9E46704760
:1041E0002E2E2F536F757263652F63616E2E6300E1
:1041F0002E2E2F536F757263652F666C6173682E58
:104200006300000000000000000000000102030441
:104210000607080900000000010203040502060267
:10422000060307030803090309040A040B040C042A
:104230000C050D050E050F050F06100610071008DA
:1042400000800008004000000200000000C00008DC
:104250000040000003000000000001080000010011
:104260000400000000000208000002000500000039
:10427000000004080000020006000000000006081C
:1042800000000200070000004F70656E424C5400B1
:08429000A4BFFF7F0100000044
:04429800E901000830
:04429C00C501000850
:0C42A0000024F4001000000001040000E5
:1042AC000000000000000000000000000000000002
:1042BC0000000000000000000000000000000000F2
:1042CC0000000000000000000000000000000000E2
:1042DC0000000000000000000000000000000000D2
:0400000508000AE104
:00000001FF
